{
  "_format": "hh-sol-artifact-1",
  "contractName": "ArticleMock",
  "sourceName": "contracts/Mock/ArticleMock.sol",
  "abi": [
    {
      "inputs": [
        {
          "internalType": "string",
          "name": "name_",
          "type": "string"
        },
        {
          "internalType": "string",
          "name": "symbol_",
          "type": "string"
        }
      ],
      "stateMutability": "nonpayable",
      "type": "constructor"
    },
    {
      "anonymous": false,
      "inputs": [
        {
          "indexed": true,
          "internalType": "address",
          "name": "owner",
          "type": "address"
        },
        {
          "indexed": true,
          "internalType": "address",
          "name": "approved",
          "type": "address"
        },
        {
          "indexed": true,
          "internalType": "uint256",
          "name": "tokenId",
          "type": "uint256"
        }
      ],
      "name": "Approval",
      "type": "event"
    },
    {
      "anonymous": false,
      "inputs": [
        {
          "indexed": true,
          "internalType": "address",
          "name": "owner",
          "type": "address"
        },
        {
          "indexed": true,
          "internalType": "address",
          "name": "operator",
          "type": "address"
        },
        {
          "indexed": false,
          "internalType": "bool",
          "name": "approved",
          "type": "bool"
        }
      ],
      "name": "ApprovalForAll",
      "type": "event"
    },
    {
      "anonymous": false,
      "inputs": [
        {
          "indexed": true,
          "internalType": "address",
          "name": "minter",
          "type": "address"
        },
        {
          "indexed": true,
          "internalType": "address",
          "name": "to",
          "type": "address"
        },
        {
          "indexed": false,
          "internalType": "uint256",
          "name": "parentId",
          "type": "uint256"
        },
        {
          "indexed": false,
          "internalType": "uint256",
          "name": "tokenId",
          "type": "uint256"
        }
      ],
      "name": "Minted",
      "type": "event"
    },
    {
      "anonymous": false,
      "inputs": [
        {
          "indexed": true,
          "internalType": "address",
          "name": "from",
          "type": "address"
        },
        {
          "indexed": true,
          "internalType": "address",
          "name": "to",
          "type": "address"
        },
        {
          "indexed": true,
          "internalType": "uint256",
          "name": "tokenId",
          "type": "uint256"
        }
      ],
      "name": "Transfer",
      "type": "event"
    },
    {
      "inputs": [
        {
          "internalType": "address",
          "name": "to",
          "type": "address"
        },
        {
          "internalType": "uint256",
          "name": "parentId",
          "type": "uint256"
        },
        {
          "internalType": "uint256",
          "name": "tokenId",
          "type": "uint256"
        }
      ],
      "name": "__afterMintWithParent",
      "outputs": [],
      "stateMutability": "nonpayable",
      "type": "function"
    },
    {
      "inputs": [
        {
          "internalType": "address",
          "name": "to",
          "type": "address"
        },
        {
          "internalType": "uint256",
          "name": "parentId",
          "type": "uint256"
        },
        {
          "internalType": "uint256",
          "name": "tokenId",
          "type": "uint256"
        }
      ],
      "name": "__beforeMintWithParent",
      "outputs": [],
      "stateMutability": "nonpayable",
      "type": "function"
    },
    {
      "inputs": [
        {
          "internalType": "uint256",
          "name": "tokenId",
          "type": "uint256"
        }
      ],
      "name": "__getIndexInChildrenArray",
      "outputs": [
        {
          "internalType": "uint256",
          "name": "",
          "type": "uint256"
        }
      ],
      "stateMutability": "view",
      "type": "function"
    },
    {
      "inputs": [
        {
          "internalType": "address",
          "name": "to",
          "type": "address"
        },
        {
          "internalType": "uint256",
          "name": "parentId",
          "type": "uint256"
        },
        {
          "internalType": "uint256[]",
          "name": "tokenIds",
          "type": "uint256[]"
        },
        {
          "internalType": "bytes[]",
          "name": "datas",
          "type": "bytes[]"
        }
      ],
      "name": "__safeBatchMintWithParent",
      "outputs": [],
      "stateMutability": "nonpayable",
      "type": "function"
    },
    {
      "inputs": [
        {
          "internalType": "address",
          "name": "to",
          "type": "address"
        },
        {
          "internalType": "uint256",
          "name": "parentId",
          "type": "uint256"
        },
        {
          "internalType": "uint256[]",
          "name": "tokenIds",
          "type": "uint256[]"
        }
      ],
      "name": "__safeBatchMintWithParent",
      "outputs": [],
      "stateMutability": "nonpayable",
      "type": "function"
    },
    {
      "inputs": [
        {
          "internalType": "uint256",
          "name": "tokenId",
          "type": "uint256"
        }
      ],
      "name": "__safeBurn",
      "outputs": [],
      "stateMutability": "nonpayable",
      "type": "function"
    },
    {
      "inputs": [
        {
          "internalType": "address",
          "name": "to",
          "type": "address"
        },
        {
          "internalType": "uint256",
          "name": "parentId",
          "type": "uint256"
        },
        {
          "internalType": "uint256",
          "name": "tokenId",
          "type": "uint256"
        }
      ],
      "name": "__safeMintWithParent",
      "outputs": [],
      "stateMutability": "nonpayable",
      "type": "function"
    },
    {
      "inputs": [
        {
          "internalType": "address",
          "name": "to",
          "type": "address"
        },
        {
          "internalType": "uint256",
          "name": "parentId",
          "type": "uint256"
        },
        {
          "internalType": "uint256",
          "name": "tokenId",
          "type": "uint256"
        },
        {
          "internalType": "bytes",
          "name": "data",
          "type": "bytes"
        }
      ],
      "name": "__safeMintWithParent",
      "outputs": [],
      "stateMutability": "nonpayable",
      "type": "function"
    },
    {
      "inputs": [
        {
          "internalType": "address",
          "name": "to",
          "type": "address"
        },
        {
          "internalType": "uint256",
          "name": "tokenId",
          "type": "uint256"
        }
      ],
      "name": "approve",
      "outputs": [],
      "stateMutability": "nonpayable",
      "type": "function"
    },
    {
      "inputs": [
        {
          "internalType": "address",
          "name": "owner",
          "type": "address"
        }
      ],
      "name": "balanceOf",
      "outputs": [
        {
          "internalType": "uint256",
          "name": "",
          "type": "uint256"
        }
      ],
      "stateMutability": "view",
      "type": "function"
    },
    {
      "inputs": [
        {
          "internalType": "uint256",
          "name": "tokenId",
          "type": "uint256"
        }
      ],
      "name": "childrenOf",
      "outputs": [
        {
          "internalType": "uint256[]",
          "name": "childrenIds",
          "type": "uint256[]"
        }
      ],
      "stateMutability": "view",
      "type": "function"
    },
    {
      "inputs": [
        {
          "internalType": "uint256",
          "name": "tokenId",
          "type": "uint256"
        }
      ],
      "name": "getApproved",
      "outputs": [
        {
          "internalType": "address",
          "name": "",
          "type": "address"
        }
      ],
      "stateMutability": "view",
      "type": "function"
    },
    {
      "inputs": [
        {
          "internalType": "address",
          "name": "owner",
          "type": "address"
        },
        {
          "internalType": "address",
          "name": "operator",
          "type": "address"
        }
      ],
      "name": "isApprovedForAll",
      "outputs": [
        {
          "internalType": "bool",
          "name": "",
          "type": "bool"
        }
      ],
      "stateMutability": "view",
      "type": "function"
    },
    {
      "inputs": [
        {
          "internalType": "uint256",
          "name": "tokenId",
          "type": "uint256"
        }
      ],
      "name": "isLeaf",
      "outputs": [
        {
          "internalType": "bool",
          "name": "",
          "type": "bool"
        }
      ],
      "stateMutability": "view",
      "type": "function"
    },
    {
      "inputs": [
        {
          "internalType": "uint256",
          "name": "tokenId",
          "type": "uint256"
        }
      ],
      "name": "isRoot",
      "outputs": [
        {
          "internalType": "bool",
          "name": "",
          "type": "bool"
        }
      ],
      "stateMutability": "view",
      "type": "function"
    },
    {
      "inputs": [],
      "name": "name",
      "outputs": [
        {
          "internalType": "string",
          "name": "",
          "type": "string"
        }
      ],
      "stateMutability": "view",
      "type": "function"
    },
    {
      "inputs": [
        {
          "internalType": "uint256",
          "name": "tokenId",
          "type": "uint256"
        }
      ],
      "name": "ownerOf",
      "outputs": [
        {
          "internalType": "address",
          "name": "",
          "type": "address"
        }
      ],
      "stateMutability": "view",
      "type": "function"
    },
    {
      "inputs": [
        {
          "internalType": "uint256",
          "name": "tokenId",
          "type": "uint256"
        }
      ],
      "name": "parentOf",
      "outputs": [
        {
          "internalType": "uint256",
          "name": "parentId",
          "type": "uint256"
        }
      ],
      "stateMutability": "view",
      "type": "function"
    },
    {
      "inputs": [
        {
          "internalType": "address",
          "name": "from",
          "type": "address"
        },
        {
          "internalType": "address",
          "name": "to",
          "type": "address"
        },
        {
          "internalType": "uint256",
          "name": "tokenId",
          "type": "uint256"
        }
      ],
      "name": "safeTransferFrom",
      "outputs": [],
      "stateMutability": "nonpayable",
      "type": "function"
    },
    {
      "inputs": [
        {
          "internalType": "address",
          "name": "from",
          "type": "address"
        },
        {
          "internalType": "address",
          "name": "to",
          "type": "address"
        },
        {
          "internalType": "uint256",
          "name": "tokenId",
          "type": "uint256"
        },
        {
          "internalType": "bytes",
          "name": "data",
          "type": "bytes"
        }
      ],
      "name": "safeTransferFrom",
      "outputs": [],
      "stateMutability": "nonpayable",
      "type": "function"
    },
    {
      "inputs": [
        {
          "internalType": "address",
          "name": "operator",
          "type": "address"
        },
        {
          "internalType": "bool",
          "name": "approved",
          "type": "bool"
        }
      ],
      "name": "setApprovalForAll",
      "outputs": [],
      "stateMutability": "nonpayable",
      "type": "function"
    },
    {
      "inputs": [
        {
          "internalType": "bytes4",
          "name": "interfaceId",
          "type": "bytes4"
        }
      ],
      "name": "supportsInterface",
      "outputs": [
        {
          "internalType": "bool",
          "name": "",
          "type": "bool"
        }
      ],
      "stateMutability": "view",
      "type": "function"
    },
    {
      "inputs": [],
      "name": "symbol",
      "outputs": [
        {
          "internalType": "string",
          "name": "",
          "type": "string"
        }
      ],
      "stateMutability": "view",
      "type": "function"
    },
    {
      "inputs": [
        {
          "internalType": "uint256",
          "name": "tokenId",
          "type": "uint256"
        }
      ],
      "name": "tokenURI",
      "outputs": [
        {
          "internalType": "string",
          "name": "",
          "type": "string"
        }
      ],
      "stateMutability": "view",
      "type": "function"
    },
    {
      "inputs": [
        {
          "internalType": "address",
          "name": "from",
          "type": "address"
        },
        {
          "internalType": "address",
          "name": "to",
          "type": "address"
        },
        {
          "internalType": "uint256",
          "name": "tokenId",
          "type": "uint256"
        }
      ],
      "name": "transferFrom",
      "outputs": [],
      "stateMutability": "nonpayable",
      "type": "function"
    }
  ],
  "bytecode": "0x60806040523480156200001157600080fd5b506040516200204938038062002049833981016040819052620000349162000127565b81818181600062000046838262000220565b50600162000055828262000220565b50505050505050620002ec565b634e487b7160e01b600052604160045260246000fd5b600082601f8301126200008a57600080fd5b81516001600160401b0380821115620000a757620000a762000062565b604051601f8301601f19908116603f01168101908282118183101715620000d257620000d262000062565b81604052838152602092508683858801011115620000ef57600080fd5b600091505b83821015620001135785820183015181830184015290820190620000f4565b600093810190920192909252949350505050565b600080604083850312156200013b57600080fd5b82516001600160401b03808211156200015357600080fd5b620001618683870162000078565b935060208501519150808211156200017857600080fd5b50620001878582860162000078565b9150509250929050565b600181811c90821680620001a657607f821691505b602082108103620001c757634e487b7160e01b600052602260045260246000fd5b50919050565b601f8211156200021b57600081815260208120601f850160051c81016020861015620001f65750805b601f850160051c820191505b81811015620002175782815560010162000202565b5050505b505050565b81516001600160401b038111156200023c576200023c62000062565b62000254816200024d845462000191565b84620001cd565b602080601f8311600181146200028c5760008415620002735750858301515b600019600386901b1c1916600185901b17855562000217565b600085815260208120601f198616915b82811015620002bd578886015182559484019460019091019084016200029c565b5085821015620002dc5787850151600019600388901b60f8161c191681555b5050505050600190811b01905550565b611d4d80620002fc6000396000f3fe608060405234801561001057600080fd5b50600436106101735760003560e01c806370a08231116100de578063b2a171ce11610097578063cce3c13b11610071578063cce3c13b14610335578063cfa3c13214610348578063e527b9661461035b578063e985e9c51461036e57600080fd5b8063b2a171ce146102fc578063b88d4fde1461030f578063c87b56dd1461032257600080fd5b806370a08231146102a85780637341e03d146102bb578063859a6a381461022957806395d89b41146102ce578063a22cb465146102d6578063b1325f25146102e957600080fd5b806318029a9b1161013057806318029a9b1461022957806323b872dd1461023c57806342842e0e1461024f5780636352211e146102625780636b184de9146102755780636f19951c1461028857600080fd5b806301ffc9a71461017857806306fdde03146101a0578063081812fc146101b55780630954340c146101e0578063095ea7b3146102015780630fd061ac14610216575b600080fd5b61018b6101863660046115be565b610381565b60405190151581526020015b60405180910390f35b6101a86103ac565b604051610197919061162b565b6101c86101c336600461163e565b61043e565b6040516001600160a01b039091168152602001610197565b6101f36101ee36600461163e565b610465565b604051908152602001610197565b61021461020f366004611673565b610479565b005b61021461022436600461169d565b61058e565b61021461023736600461169d565b505050565b61021461024a3660046116d0565b610599565b61021461025d3660046116d0565b6105ca565b6101c861027036600461163e565b6105e5565b610214610283366004611852565b610645565b61029b61029636600461163e565b610657565b6040516101979190611942565b6101f36102b6366004611986565b6106c8565b6102146102c936600461163e565b61074e565b6101a861075a565b6102146102e43660046119a1565b610769565b6102146102f73660046119dd565b610778565b61021461030a366004611a34565b610783565b61021461031d366004611a95565b61078f565b6101a861033036600461163e565b6107c1565b61018b61034336600461163e565b610835565b6101f361035636600461163e565b610854565b61018b61036936600461163e565b610872565b61018b61037c366004611ae5565b610891565b60006001600160e01b0319821663897e2c7360e01b14806103a657506103a6826108bf565b92915050565b6060600080546103bb90611b18565b80601f01602080910402602001604051908101604052809291908181526020018280546103e790611b18565b80156104345780601f1061040957610100808354040283529160200191610434565b820191906000526020600020905b81548152906001019060200180831161041757829003601f168201915b5050505050905090565b60006104498261090f565b506000908152600460205260409020546001600160a01b031690565b6000818152600860205260408120546103a6565b6000610484826105e5565b9050806001600160a01b0316836001600160a01b0316036104f65760405162461bcd60e51b815260206004820152602160248201527f4552433732313a20617070726f76616c20746f2063757272656e74206f776e656044820152603960f91b60648201526084015b60405180910390fd5b336001600160a01b038216148061051257506105128133610891565b6105845760405162461bcd60e51b815260206004820152603d60248201527f4552433732313a20617070726f76652063616c6c6572206973206e6f7420746f60448201527f6b656e206f776e6572206f7220617070726f76656420666f7220616c6c00000060648201526084016104ed565b610237838361096e565b6102378383836109dc565b6105a333826109f7565b6105bf5760405162461bcd60e51b81526004016104ed90611b52565b610237838383610a56565b6102378383836040518060200160405280600081525061078f565b6000818152600260205260408120546001600160a01b0316806103a65760405162461bcd60e51b8152602060048201526018602482015277115490cdcc8c4e881a5b9d985b1a59081d1bdad95b88125160421b60448201526064016104ed565b61065184848484610bba565b50505050565b60608115610668576106688261090f565b600082815260076020908152604091829020805483518184028101840190945280845290918301828280156106bc57602002820191906000526020600020905b8154815260200190600101908083116106a8575b50505050509050919050565b60006001600160a01b0382166107325760405162461bcd60e51b815260206004820152602960248201527f4552433732313a2061646472657373207a65726f206973206e6f7420612076616044820152683634b21037bbb732b960b91b60648201526084016104ed565b506001600160a01b031660009081526003602052604090205490565b61075781610c7f565b50565b6060600180546103bb90611b18565b610774338383610e40565b5050565b610237838383610f0e565b61065184848484610f67565b61079933836109f7565b6107b55760405162461bcd60e51b81526004016104ed90611b52565b610651848484846110b6565b60606107cc8261090f565b60006107e360408051602081019091526000815290565b90506000815111610803576040518060200160405280600081525061082e565b8061080d846110e9565b60405160200161081e929190611b9f565b6040516020818303038152906040525b9392505050565b60006108408261090f565b506000908152600760205260409020541590565b600061085f8261090f565b5060009081526006602052604090205490565b600061087d8261090f565b506000908152600660205260409020541590565b6001600160a01b03918216600090815260056020908152604080832093909416825291909152205460ff1690565b60006001600160e01b031982166380ac58cd60e01b14806108f057506001600160e01b03198216635b5e139f60e01b145b806103a657506301ffc9a760e01b6001600160e01b03198316146103a6565b6000818152600260205260409020546001600160a01b03166107575760405162461bcd60e51b8152602060048201526018602482015277115490cdcc8c4e881a5b9d985b1a59081d1bdad95b88125160421b60448201526064016104ed565b600081815260046020526040902080546001600160a01b0319166001600160a01b03841690811790915581906109a3826105e5565b6001600160a01b03167f8c5be1e5ebec7d5bd14f71427d1e84f3dd0314c0f7b2291e5b200ac8c7c3b92560405160405180910390a45050565b61023783838360405180602001604052806000815250610f67565b600080610a03836105e5565b9050806001600160a01b0316846001600160a01b03161480610a2a5750610a2a8185610891565b80610a4e5750836001600160a01b0316610a438461043e565b6001600160a01b0316145b949350505050565b826001600160a01b0316610a69826105e5565b6001600160a01b031614610a8f5760405162461bcd60e51b81526004016104ed90611bce565b6001600160a01b038216610af15760405162461bcd60e51b8152602060048201526024808201527f4552433732313a207472616e7366657220746f20746865207a65726f206164646044820152637265737360e01b60648201526084016104ed565b826001600160a01b0316610b04826105e5565b6001600160a01b031614610b2a5760405162461bcd60e51b81526004016104ed90611bce565b600081815260046020908152604080832080546001600160a01b03199081169091556001600160a01b0387811680865260038552838620805460001901905590871680865283862080546001019055868652600290945282852080549092168417909155905184937fddf252ad1be2c89b69c2b068fc378daa952ba7f163c4a11628f55a4df523b3ef91a4505050565b8051825114610c1c5760405162461bcd60e51b815260206004820152602860248201527f455243363135303a20746f6b656e4964732e6c656e67746820213d20646174616044820152670e65cd8cadccee8d60c31b60648201526084016104ed565b60005b8251811015610c7857610c668585858481518110610c3f57610c3f611c13565b6020026020010151858581518110610c5957610c59611c13565b6020026020010151610f67565b80610c7081611c3f565b915050610c1f565b5050505050565b6000818152600260205260409020546001600160a01b0316610ce35760405162461bcd60e51b815260206004820152601e60248201527f455243363135303a20746f6b656e496420646f65736e2774206578697374000060448201526064016104ed565b610cec81610835565b610d385760405162461bcd60e51b815260206004820152601e60248201527f455243363135303a20746f6b656e4964206973206e6f742061206c656166000060448201526064016104ed565b6000818152600660209081526040808320548084526007909252822054909190610d6490600190611c58565b600084815260086020908152604080832054868452600790925282208054939450909284908110610d9757610d97611c13565b9060005260206000200154905081831115610df0576000848152600760205260409020805482919084908110610dcf57610dcf611c13565b60009182526020808320909101929092558281526008909152604090208290555b6000848152600760205260409020805482908110610e1057610e10611c13565b600091825260208083209091018290558682526008815260408083208390556006909152812055610c788561117c565b816001600160a01b0316836001600160a01b031603610ea15760405162461bcd60e51b815260206004820152601960248201527f4552433732313a20617070726f766520746f2063616c6c65720000000000000060448201526064016104ed565b6001600160a01b03838116600081815260056020908152604080832094871680845294825291829020805460ff191686151590811790915591519182527f17307eab39ab6107e8899845ad3d59bd9653f200f220920489ca2b5937696c31910160405180910390a3505050565b610237838383845167ffffffffffffffff811115610f2e57610f2e61170c565b604051908082528060200260200182016040528015610f6157816020015b6060815260200190600190039081610f4c5790505b50610bba565b60008211610fb75760405162461bcd60e51b815260206004820152601860248201527f455243363135303a20746f6b656e4964206973207a65726f000000000000000060448201526064016104ed565b8215611021576000838152600260205260409020546001600160a01b03166110215760405162461bcd60e51b815260206004820152601f60248201527f455243363135303a20706172656e74496420646f65736e27742065786973740060448201526064016104ed565b60008281526006602090815260408083208690558583526007808352818420805487865260088552928520839055908352600182018155835291200182905561106b848383611211565b60408051848152602081018490526001600160a01b0386169133917f03f17d66ad3bf18e9412eb06582908831508cdb9b8da9cddb1431f645a5b8632910160405180910390a3610651565b6110c1848484610a56565b6110cd84848484611244565b6106515760405162461bcd60e51b81526004016104ed90611c6b565b606060006110f683611345565b600101905060008167ffffffffffffffff8111156111165761111661170c565b6040519080825280601f01601f191660200182016040528015611140576020820181803683370190505b5090508181016020015b600019016f181899199a1a9b1b9c1cb0b131b232b360811b600a86061a8153600a850494508461114a57509392505050565b6000611187826105e5565b9050611192826105e5565b600083815260046020908152604080832080546001600160a01b03199081169091556001600160a01b0385168085526003845282852080546000190190558785526002909352818420805490911690555192935084927fddf252ad1be2c89b69c2b068fc378daa952ba7f163c4a11628f55a4df523b3ef908390a45050565b61121b838361141d565b6112286000848484611244565b6102375760405162461bcd60e51b81526004016104ed90611c6b565b60006001600160a01b0384163b1561133a57604051630a85bd0160e11b81526001600160a01b0385169063150b7a0290611288903390899088908890600401611cbd565b6020604051808303816000875af19250505080156112c3575060408051601f3d908101601f191682019092526112c091810190611cfa565b60015b611320573d8080156112f1576040519150601f19603f3d011682016040523d82523d6000602084013e6112f6565b606091505b5080516000036113185760405162461bcd60e51b81526004016104ed90611c6b565b805181602001fd5b6001600160e01b031916630a85bd0160e11b149050610a4e565b506001949350505050565b60008072184f03e93ff9f4daa797ed6e38ed64bf6a1f0160401b83106113845772184f03e93ff9f4daa797ed6e38ed64bf6a1f0160401b830492506040015b6d04ee2d6d415b85acef810000000083106113b0576d04ee2d6d415b85acef8100000000830492506020015b662386f26fc1000083106113ce57662386f26fc10000830492506010015b6305f5e10083106113e6576305f5e100830492506008015b61271083106113fa57612710830492506004015b6064831061140c576064830492506002015b600a83106103a65760010192915050565b6001600160a01b0382166114735760405162461bcd60e51b815260206004820181905260248201527f4552433732313a206d696e7420746f20746865207a65726f206164647265737360448201526064016104ed565b6000818152600260205260409020546001600160a01b0316156114d85760405162461bcd60e51b815260206004820152601c60248201527f4552433732313a20746f6b656e20616c7265616479206d696e7465640000000060448201526064016104ed565b6000818152600260205260409020546001600160a01b03161561153d5760405162461bcd60e51b815260206004820152601c60248201527f4552433732313a20746f6b656e20616c7265616479206d696e7465640000000060448201526064016104ed565b6001600160a01b038216600081815260036020908152604080832080546001019055848352600290915280822080546001600160a01b0319168417905551839291907fddf252ad1be2c89b69c2b068fc378daa952ba7f163c4a11628f55a4df523b3ef908290a45050565b6001600160e01b03198116811461075757600080fd5b6000602082840312156115d057600080fd5b813561082e816115a8565b60005b838110156115f65781810151838201526020016115de565b50506000910152565b600081518084526116178160208601602086016115db565b601f01601f19169290920160200192915050565b60208152600061082e60208301846115ff565b60006020828403121561165057600080fd5b5035919050565b80356001600160a01b038116811461166e57600080fd5b919050565b6000806040838503121561168657600080fd5b61168f83611657565b946020939093013593505050565b6000806000606084860312156116b257600080fd5b6116bb84611657565b95602085013595506040909401359392505050565b6000806000606084860312156116e557600080fd5b6116ee84611657565b92506116fc60208501611657565b9150604084013590509250925092565b634e487b7160e01b600052604160045260246000fd5b604051601f8201601f1916810167ffffffffffffffff8111828210171561174b5761174b61170c565b604052919050565b600067ffffffffffffffff82111561176d5761176d61170c565b5060051b60200190565b600082601f83011261178857600080fd5b8135602061179d61179883611753565b611722565b82815260059290921b840181019181810190868411156117bc57600080fd5b8286015b848110156117d757803583529183019183016117c0565b509695505050505050565b600082601f8301126117f357600080fd5b813567ffffffffffffffff81111561180d5761180d61170c565b611820601f8201601f1916602001611722565b81815284602083860101111561183557600080fd5b816020850160208301376000918101602001919091529392505050565b6000806000806080858703121561186857600080fd5b61187185611657565b93506020808601359350604086013567ffffffffffffffff8082111561189657600080fd5b6118a289838a01611777565b945060608801359150808211156118b857600080fd5b818801915088601f8301126118cc57600080fd5b81356118da61179882611753565b81815260059190911b8301840190848101908b8311156118f957600080fd5b8585015b83811015611931578035858111156119155760008081fd5b6119238e89838a01016117e2565b8452509186019186016118fd565b50989b979a50959850505050505050565b6020808252825182820181905260009190848201906040850190845b8181101561197a5783518352928401929184019160010161195e565b50909695505050505050565b60006020828403121561199857600080fd5b61082e82611657565b600080604083850312156119b457600080fd5b6119bd83611657565b9150602083013580151581146119d257600080fd5b809150509250929050565b6000806000606084860312156119f257600080fd5b6119fb84611657565b925060208401359150604084013567ffffffffffffffff811115611a1e57600080fd5b611a2a86828701611777565b9150509250925092565b60008060008060808587031215611a4a57600080fd5b611a5385611657565b93506020850135925060408501359150606085013567ffffffffffffffff811115611a7d57600080fd5b611a89878288016117e2565b91505092959194509250565b60008060008060808587031215611aab57600080fd5b611ab485611657565b9350611ac260208601611657565b925060408501359150606085013567ffffffffffffffff811115611a7d57600080fd5b60008060408385031215611af857600080fd5b611b0183611657565b9150611b0f60208401611657565b90509250929050565b600181811c90821680611b2c57607f821691505b602082108103611b4c57634e487b7160e01b600052602260045260246000fd5b50919050565b6020808252602d908201527f4552433732313a2063616c6c6572206973206e6f7420746f6b656e206f776e6560408201526c1c881bdc88185c1c1c9bdd9959609a1b606082015260800190565b60008351611bb18184602088016115db565b835190830190611bc58183602088016115db565b01949350505050565b60208082526025908201527f4552433732313a207472616e736665722066726f6d20696e636f72726563742060408201526437bbb732b960d91b606082015260800190565b634e487b7160e01b600052603260045260246000fd5b634e487b7160e01b600052601160045260246000fd5b600060018201611c5157611c51611c29565b5060010190565b818103818111156103a6576103a6611c29565b60208082526032908201527f4552433732313a207472616e7366657220746f206e6f6e20455243373231526560408201527131b2b4bb32b91034b6b83632b6b2b73a32b960711b606082015260800190565b6001600160a01b0385811682528416602082015260408101839052608060608201819052600090611cf0908301846115ff565b9695505050505050565b600060208284031215611d0c57600080fd5b815161082e816115a856fea264697066735822122058bdb0af9005005085493e53a049b4fc528edc093b9be80b513edff0ef66989564736f6c63430008130033",
  "linkReferences": {},
  "deployedLinkReferences": {}
}