{
  "_format": "hh-sol-artifact-1",
  "contractName": "Article",
  "sourceName": "contracts/Article.sol",
  "abi": [
    {
      "inputs": [
        {
          "internalType": "string",
          "name": "name_",
          "type": "string"
        },
        {
          "internalType": "string",
          "name": "symbol_",
          "type": "string"
        }
      ],
      "stateMutability": "nonpayable",
      "type": "constructor"
    },
    {
      "anonymous": false,
      "inputs": [
        {
          "indexed": true,
          "internalType": "address",
          "name": "owner",
          "type": "address"
        },
        {
          "indexed": true,
          "internalType": "address",
          "name": "approved",
          "type": "address"
        },
        {
          "indexed": true,
          "internalType": "uint256",
          "name": "tokenId",
          "type": "uint256"
        }
      ],
      "name": "Approval",
      "type": "event"
    },
    {
      "anonymous": false,
      "inputs": [
        {
          "indexed": true,
          "internalType": "address",
          "name": "owner",
          "type": "address"
        },
        {
          "indexed": true,
          "internalType": "address",
          "name": "operator",
          "type": "address"
        },
        {
          "indexed": false,
          "internalType": "bool",
          "name": "approved",
          "type": "bool"
        }
      ],
      "name": "ApprovalForAll",
      "type": "event"
    },
    {
      "anonymous": false,
      "inputs": [
        {
          "indexed": true,
          "internalType": "address",
          "name": "minter",
          "type": "address"
        },
        {
          "indexed": true,
          "internalType": "address",
          "name": "to",
          "type": "address"
        },
        {
          "indexed": false,
          "internalType": "uint256",
          "name": "parentId",
          "type": "uint256"
        },
        {
          "indexed": false,
          "internalType": "uint256",
          "name": "tokenId",
          "type": "uint256"
        }
      ],
      "name": "Minted",
      "type": "event"
    },
    {
      "anonymous": false,
      "inputs": [
        {
          "indexed": true,
          "internalType": "address",
          "name": "from",
          "type": "address"
        },
        {
          "indexed": true,
          "internalType": "address",
          "name": "to",
          "type": "address"
        },
        {
          "indexed": true,
          "internalType": "uint256",
          "name": "tokenId",
          "type": "uint256"
        }
      ],
      "name": "Transfer",
      "type": "event"
    },
    {
      "inputs": [
        {
          "internalType": "address",
          "name": "to",
          "type": "address"
        },
        {
          "internalType": "uint256",
          "name": "tokenId",
          "type": "uint256"
        }
      ],
      "name": "approve",
      "outputs": [],
      "stateMutability": "nonpayable",
      "type": "function"
    },
    {
      "inputs": [
        {
          "internalType": "address",
          "name": "owner",
          "type": "address"
        }
      ],
      "name": "balanceOf",
      "outputs": [
        {
          "internalType": "uint256",
          "name": "",
          "type": "uint256"
        }
      ],
      "stateMutability": "view",
      "type": "function"
    },
    {
      "inputs": [
        {
          "internalType": "uint256",
          "name": "tokenId",
          "type": "uint256"
        }
      ],
      "name": "childrenOf",
      "outputs": [
        {
          "internalType": "uint256[]",
          "name": "childrenIds",
          "type": "uint256[]"
        }
      ],
      "stateMutability": "view",
      "type": "function"
    },
    {
      "inputs": [
        {
          "internalType": "uint256",
          "name": "tokenId",
          "type": "uint256"
        }
      ],
      "name": "getApproved",
      "outputs": [
        {
          "internalType": "address",
          "name": "",
          "type": "address"
        }
      ],
      "stateMutability": "view",
      "type": "function"
    },
    {
      "inputs": [
        {
          "internalType": "address",
          "name": "owner",
          "type": "address"
        },
        {
          "internalType": "address",
          "name": "operator",
          "type": "address"
        }
      ],
      "name": "isApprovedForAll",
      "outputs": [
        {
          "internalType": "bool",
          "name": "",
          "type": "bool"
        }
      ],
      "stateMutability": "view",
      "type": "function"
    },
    {
      "inputs": [
        {
          "internalType": "uint256",
          "name": "tokenId",
          "type": "uint256"
        }
      ],
      "name": "isLeaf",
      "outputs": [
        {
          "internalType": "bool",
          "name": "",
          "type": "bool"
        }
      ],
      "stateMutability": "view",
      "type": "function"
    },
    {
      "inputs": [
        {
          "internalType": "uint256",
          "name": "tokenId",
          "type": "uint256"
        }
      ],
      "name": "isRoot",
      "outputs": [
        {
          "internalType": "bool",
          "name": "",
          "type": "bool"
        }
      ],
      "stateMutability": "view",
      "type": "function"
    },
    {
      "inputs": [],
      "name": "name",
      "outputs": [
        {
          "internalType": "string",
          "name": "",
          "type": "string"
        }
      ],
      "stateMutability": "view",
      "type": "function"
    },
    {
      "inputs": [
        {
          "internalType": "uint256",
          "name": "tokenId",
          "type": "uint256"
        }
      ],
      "name": "ownerOf",
      "outputs": [
        {
          "internalType": "address",
          "name": "",
          "type": "address"
        }
      ],
      "stateMutability": "view",
      "type": "function"
    },
    {
      "inputs": [
        {
          "internalType": "uint256",
          "name": "tokenId",
          "type": "uint256"
        }
      ],
      "name": "parentOf",
      "outputs": [
        {
          "internalType": "uint256",
          "name": "parentId",
          "type": "uint256"
        }
      ],
      "stateMutability": "view",
      "type": "function"
    },
    {
      "inputs": [
        {
          "internalType": "address",
          "name": "to",
          "type": "address"
        },
        {
          "internalType": "uint256",
          "name": "parentId",
          "type": "uint256"
        },
        {
          "internalType": "uint256",
          "name": "tokenId",
          "type": "uint256"
        }
      ],
      "name": "safeMintWithParent",
      "outputs": [],
      "stateMutability": "nonpayable",
      "type": "function"
    },
    {
      "inputs": [
        {
          "internalType": "address",
          "name": "from",
          "type": "address"
        },
        {
          "internalType": "address",
          "name": "to",
          "type": "address"
        },
        {
          "internalType": "uint256",
          "name": "tokenId",
          "type": "uint256"
        }
      ],
      "name": "safeTransferFrom",
      "outputs": [],
      "stateMutability": "nonpayable",
      "type": "function"
    },
    {
      "inputs": [
        {
          "internalType": "address",
          "name": "from",
          "type": "address"
        },
        {
          "internalType": "address",
          "name": "to",
          "type": "address"
        },
        {
          "internalType": "uint256",
          "name": "tokenId",
          "type": "uint256"
        },
        {
          "internalType": "bytes",
          "name": "data",
          "type": "bytes"
        }
      ],
      "name": "safeTransferFrom",
      "outputs": [],
      "stateMutability": "nonpayable",
      "type": "function"
    },
    {
      "inputs": [
        {
          "internalType": "address",
          "name": "operator",
          "type": "address"
        },
        {
          "internalType": "bool",
          "name": "approved",
          "type": "bool"
        }
      ],
      "name": "setApprovalForAll",
      "outputs": [],
      "stateMutability": "nonpayable",
      "type": "function"
    },
    {
      "inputs": [
        {
          "internalType": "bytes4",
          "name": "interfaceId",
          "type": "bytes4"
        }
      ],
      "name": "supportsInterface",
      "outputs": [
        {
          "internalType": "bool",
          "name": "",
          "type": "bool"
        }
      ],
      "stateMutability": "view",
      "type": "function"
    },
    {
      "inputs": [],
      "name": "symbol",
      "outputs": [
        {
          "internalType": "string",
          "name": "",
          "type": "string"
        }
      ],
      "stateMutability": "view",
      "type": "function"
    },
    {
      "inputs": [
        {
          "internalType": "uint256",
          "name": "tokenId",
          "type": "uint256"
        }
      ],
      "name": "tokenURI",
      "outputs": [
        {
          "internalType": "string",
          "name": "",
          "type": "string"
        }
      ],
      "stateMutability": "view",
      "type": "function"
    },
    {
      "inputs": [
        {
          "internalType": "address",
          "name": "from",
          "type": "address"
        },
        {
          "internalType": "address",
          "name": "to",
          "type": "address"
        },
        {
          "internalType": "uint256",
          "name": "tokenId",
          "type": "uint256"
        }
      ],
      "name": "transferFrom",
      "outputs": [],
      "stateMutability": "nonpayable",
      "type": "function"
    }
  ],
  "bytecode": "0x60806040523480156200001157600080fd5b506040516200193738038062001937833981016040819052620000349162000127565b81818181600062000046838262000220565b50600162000055828262000220565b50505050505050620002ec565b634e487b7160e01b600052604160045260246000fd5b600082601f8301126200008a57600080fd5b81516001600160401b0380821115620000a757620000a762000062565b604051601f8301601f19908116603f01168101908282118183101715620000d257620000d262000062565b81604052838152602092508683858801011115620000ef57600080fd5b600091505b83821015620001135785820183015181830184015290820190620000f4565b600093810190920192909252949350505050565b600080604083850312156200013b57600080fd5b82516001600160401b03808211156200015357600080fd5b620001618683870162000078565b935060208501519150808211156200017857600080fd5b50620001878582860162000078565b9150509250929050565b600181811c90821680620001a657607f821691505b602082108103620001c757634e487b7160e01b600052602260045260246000fd5b50919050565b601f8211156200021b57600081815260208120601f850160051c81016020861015620001f65750805b601f850160051c820191505b81811015620002175782815560010162000202565b5050505b505050565b81516001600160401b038111156200023c576200023c62000062565b62000254816200024d845462000191565b84620001cd565b602080601f8311600181146200028c5760008415620002735750858301515b600019600386901b1c1916600185901b17855562000217565b600085815260208120601f198616915b82811015620002bd578886015182559484019460019091019084016200029c565b5085821015620002dc5787850151600019600388901b60f8161c191681555b5050505050600190811b01905550565b61163b80620002fc6000396000f3fe608060405234801561001057600080fd5b50600436106101165760003560e01c806395d89b41116100a2578063c87b56dd11610071578063c87b56dd14610253578063cce3c13b14610266578063cfa3c13214610279578063e527b9661461028c578063e985e9c51461029f57600080fd5b806395d89b4114610212578063978a239b1461021a578063a22cb4651461022d578063b88d4fde1461024057600080fd5b806323b872dd116100e957806323b872dd1461019857806342842e0e146101ab5780636352211e146101be5780636f19951c146101d157806370a08231146101f157600080fd5b806301ffc9a71461011b57806306fdde0314610143578063081812fc14610158578063095ea7b314610183575b600080fd5b61012e610129366004611150565b6102db565b60405190151581526020015b60405180910390f35b61014b610306565b60405161013a91906111bd565b61016b6101663660046111d0565b610398565b6040516001600160a01b03909116815260200161013a565b610196610191366004611205565b6103bf565b005b6101966101a636600461122f565b6104d9565b6101966101b936600461122f565b61050a565b61016b6101cc3660046111d0565b610525565b6101e46101df3660046111d0565b610585565b60405161013a919061126b565b6102046101ff3660046112af565b6105f6565b60405190815260200161013a565b61014b61067c565b6101966102283660046112ca565b61068b565b61019661023b3660046112fd565b6106a6565b61019661024e36600461134f565b6106b5565b61014b6102613660046111d0565b6106ed565b61012e6102743660046111d0565b610761565b6102046102873660046111d0565b610780565b61012e61029a3660046111d0565b61079e565b61012e6102ad36600461142b565b6001600160a01b03918216600090815260056020908152604080832093909416825291909152205460ff1690565b60006001600160e01b0319821663897e2c7360e01b14806103005750610300826107bd565b92915050565b6060600080546103159061145e565b80601f01602080910402602001604051908101604052809291908181526020018280546103419061145e565b801561038e5780601f106103635761010080835404028352916020019161038e565b820191906000526020600020905b81548152906001019060200180831161037157829003601f168201915b5050505050905090565b60006103a38261080d565b506000908152600460205260409020546001600160a01b031690565b60006103ca82610525565b9050806001600160a01b0316836001600160a01b03160361043c5760405162461bcd60e51b815260206004820152602160248201527f4552433732313a20617070726f76616c20746f2063757272656e74206f776e656044820152603960f91b60648201526084015b60405180910390fd5b336001600160a01b0382161480610458575061045881336102ad565b6104ca5760405162461bcd60e51b815260206004820152603d60248201527f4552433732313a20617070726f76652063616c6c6572206973206e6f7420746f60448201527f6b656e206f776e6572206f7220617070726f76656420666f7220616c6c0000006064820152608401610433565b6104d4838361086f565b505050565b6104e333826108dd565b6104ff5760405162461bcd60e51b815260040161043390611498565b6104d483838361095c565b6104d4838383604051806020016040528060008152506106b5565b6000818152600260205260408120546001600160a01b0316806103005760405162461bcd60e51b8152602060048201526018602482015277115490cdcc8c4e881a5b9d985b1a59081d1bdad95b88125160421b6044820152606401610433565b60608115610596576105968261080d565b600082815260076020908152604091829020805483518184028101840190945280845290918301828280156105ea57602002820191906000526020600020905b8154815260200190600101908083116105d6575b50505050509050919050565b60006001600160a01b0382166106605760405162461bcd60e51b815260206004820152602960248201527f4552433732313a2061646472657373207a65726f206973206e6f7420612076616044820152683634b21037bbb732b960b91b6064820152608401610433565b506001600160a01b031660009081526003602052604090205490565b6060600180546103159061145e565b6104d483838360405180602001604052806000815250610ac0565b6106b1338383610c0f565b5050565b6106bf33836108dd565b6106db5760405162461bcd60e51b815260040161043390611498565b6106e784848484610cdd565b50505050565b60606106f88261080d565b600061070f60408051602081019091526000815290565b9050600081511161072f576040518060200160405280600081525061075a565b8061073984610d10565b60405160200161074a9291906114e5565b6040516020818303038152906040525b9392505050565b600061076c8261080d565b506000908152600760205260409020541590565b600061078b8261080d565b5060009081526006602052604090205490565b60006107a98261080d565b506000908152600660205260409020541590565b60006001600160e01b031982166380ac58cd60e01b14806107ee57506001600160e01b03198216635b5e139f60e01b145b8061030057506301ffc9a760e01b6001600160e01b0319831614610300565b6000818152600260205260409020546001600160a01b031661086c5760405162461bcd60e51b8152602060048201526018602482015277115490cdcc8c4e881a5b9d985b1a59081d1bdad95b88125160421b6044820152606401610433565b50565b600081815260046020526040902080546001600160a01b0319166001600160a01b03841690811790915581906108a482610525565b6001600160a01b03167f8c5be1e5ebec7d5bd14f71427d1e84f3dd0314c0f7b2291e5b200ac8c7c3b92560405160405180910390a45050565b6000806108e983610525565b9050806001600160a01b0316846001600160a01b0316148061093057506001600160a01b0380821660009081526005602090815260408083209388168352929052205460ff165b806109545750836001600160a01b031661094984610398565b6001600160a01b0316145b949350505050565b826001600160a01b031661096f82610525565b6001600160a01b0316146109955760405162461bcd60e51b815260040161043390611514565b6001600160a01b0382166109f75760405162461bcd60e51b8152602060048201526024808201527f4552433732313a207472616e7366657220746f20746865207a65726f206164646044820152637265737360e01b6064820152608401610433565b826001600160a01b0316610a0a82610525565b6001600160a01b031614610a305760405162461bcd60e51b815260040161043390611514565b600081815260046020908152604080832080546001600160a01b03199081169091556001600160a01b0387811680865260038552838620805460001901905590871680865283862080546001019055868652600290945282852080549092168417909155905184937fddf252ad1be2c89b69c2b068fc378daa952ba7f163c4a11628f55a4df523b3ef91a4505050565b60008211610b105760405162461bcd60e51b815260206004820152601860248201527f455243363135303a20746f6b656e4964206973207a65726f00000000000000006044820152606401610433565b8215610b7a576000838152600260205260409020546001600160a01b0316610b7a5760405162461bcd60e51b815260206004820152601f60248201527f455243363135303a20706172656e74496420646f65736e2774206578697374006044820152606401610433565b600082815260066020908152604080832086905585835260078083528184208054878652600885529285208390559083526001820181558352912001829055610bc4848383610da3565b60408051848152602081018490526001600160a01b0386169133917f03f17d66ad3bf18e9412eb06582908831508cdb9b8da9cddb1431f645a5b8632910160405180910390a36106e7565b816001600160a01b0316836001600160a01b031603610c705760405162461bcd60e51b815260206004820152601960248201527f4552433732313a20617070726f766520746f2063616c6c6572000000000000006044820152606401610433565b6001600160a01b03838116600081815260056020908152604080832094871680845294825291829020805460ff191686151590811790915591519182527f17307eab39ab6107e8899845ad3d59bd9653f200f220920489ca2b5937696c31910160405180910390a3505050565b610ce884848461095c565b610cf484848484610dd6565b6106e75760405162461bcd60e51b815260040161043390611559565b60606000610d1d83610ed7565b600101905060008167ffffffffffffffff811115610d3d57610d3d611339565b6040519080825280601f01601f191660200182016040528015610d67576020820181803683370190505b5090508181016020015b600019016f181899199a1a9b1b9c1cb0b131b232b360811b600a86061a8153600a8504945084610d7157509392505050565b610dad8383610faf565b610dba6000848484610dd6565b6104d45760405162461bcd60e51b815260040161043390611559565b60006001600160a01b0384163b15610ecc57604051630a85bd0160e11b81526001600160a01b0385169063150b7a0290610e1a9033908990889088906004016115ab565b6020604051808303816000875af1925050508015610e55575060408051601f3d908101601f19168201909252610e52918101906115e8565b60015b610eb2573d808015610e83576040519150601f19603f3d011682016040523d82523d6000602084013e610e88565b606091505b508051600003610eaa5760405162461bcd60e51b815260040161043390611559565b805181602001fd5b6001600160e01b031916630a85bd0160e11b149050610954565b506001949350505050565b60008072184f03e93ff9f4daa797ed6e38ed64bf6a1f0160401b8310610f165772184f03e93ff9f4daa797ed6e38ed64bf6a1f0160401b830492506040015b6d04ee2d6d415b85acef81000000008310610f42576d04ee2d6d415b85acef8100000000830492506020015b662386f26fc100008310610f6057662386f26fc10000830492506010015b6305f5e1008310610f78576305f5e100830492506008015b6127108310610f8c57612710830492506004015b60648310610f9e576064830492506002015b600a83106103005760010192915050565b6001600160a01b0382166110055760405162461bcd60e51b815260206004820181905260248201527f4552433732313a206d696e7420746f20746865207a65726f20616464726573736044820152606401610433565b6000818152600260205260409020546001600160a01b03161561106a5760405162461bcd60e51b815260206004820152601c60248201527f4552433732313a20746f6b656e20616c7265616479206d696e746564000000006044820152606401610433565b6000818152600260205260409020546001600160a01b0316156110cf5760405162461bcd60e51b815260206004820152601c60248201527f4552433732313a20746f6b656e20616c7265616479206d696e746564000000006044820152606401610433565b6001600160a01b038216600081815260036020908152604080832080546001019055848352600290915280822080546001600160a01b0319168417905551839291907fddf252ad1be2c89b69c2b068fc378daa952ba7f163c4a11628f55a4df523b3ef908290a45050565b6001600160e01b03198116811461086c57600080fd5b60006020828403121561116257600080fd5b813561075a8161113a565b60005b83811015611188578181015183820152602001611170565b50506000910152565b600081518084526111a981602086016020860161116d565b601f01601f19169290920160200192915050565b60208152600061075a6020830184611191565b6000602082840312156111e257600080fd5b5035919050565b80356001600160a01b038116811461120057600080fd5b919050565b6000806040838503121561121857600080fd5b611221836111e9565b946020939093013593505050565b60008060006060848603121561124457600080fd5b61124d846111e9565b925061125b602085016111e9565b9150604084013590509250925092565b6020808252825182820181905260009190848201906040850190845b818110156112a357835183529284019291840191600101611287565b50909695505050505050565b6000602082840312156112c157600080fd5b61075a826111e9565b6000806000606084860312156112df57600080fd5b6112e8846111e9565b95602085013595506040909401359392505050565b6000806040838503121561131057600080fd5b611319836111e9565b91506020830135801515811461132e57600080fd5b809150509250929050565b634e487b7160e01b600052604160045260246000fd5b6000806000806080858703121561136557600080fd5b61136e856111e9565b935061137c602086016111e9565b925060408501359150606085013567ffffffffffffffff808211156113a057600080fd5b818701915087601f8301126113b457600080fd5b8135818111156113c6576113c6611339565b604051601f8201601f19908116603f011681019083821181831017156113ee576113ee611339565b816040528281528a602084870101111561140757600080fd5b82602086016020830137600060208483010152809550505050505092959194509250565b6000806040838503121561143e57600080fd5b611447836111e9565b9150611455602084016111e9565b90509250929050565b600181811c9082168061147257607f821691505b60208210810361149257634e487b7160e01b600052602260045260246000fd5b50919050565b6020808252602d908201527f4552433732313a2063616c6c6572206973206e6f7420746f6b656e206f776e6560408201526c1c881bdc88185c1c1c9bdd9959609a1b606082015260800190565b600083516114f781846020880161116d565b83519083019061150b81836020880161116d565b01949350505050565b60208082526025908201527f4552433732313a207472616e736665722066726f6d20696e636f72726563742060408201526437bbb732b960d91b606082015260800190565b60208082526032908201527f4552433732313a207472616e7366657220746f206e6f6e20455243373231526560408201527131b2b4bb32b91034b6b83632b6b2b73a32b960711b606082015260800190565b6001600160a01b03858116825284166020820152604081018390526080606082018190526000906115de90830184611191565b9695505050505050565b6000602082840312156115fa57600080fd5b815161075a8161113a56fea2646970667358221220a22242b14ac31d118cfc3c4e3787a1d8f2e803d9997aeed4bd4c9b106927b36664736f6c63430008130033",
  "linkReferences": {},
  "deployedLinkReferences": {}
}