{
  "_format": "hh-sol-artifact-1",
  "contractName": "Article",
  "sourceName": "contracts/Article.sol",
  "abi": [
    {
      "inputs": [
        {
          "internalType": "string",
          "name": "name_",
          "type": "string"
        },
        {
          "internalType": "string",
          "name": "symbol_",
          "type": "string"
        }
      ],
      "stateMutability": "nonpayable",
      "type": "constructor"
    },
    {
      "anonymous": false,
      "inputs": [
        {
          "indexed": true,
          "internalType": "address",
          "name": "owner",
          "type": "address"
        },
        {
          "indexed": true,
          "internalType": "address",
          "name": "approved",
          "type": "address"
        },
        {
          "indexed": true,
          "internalType": "uint256",
          "name": "tokenId",
          "type": "uint256"
        }
      ],
      "name": "Approval",
      "type": "event"
    },
    {
      "anonymous": false,
      "inputs": [
        {
          "indexed": true,
          "internalType": "address",
          "name": "owner",
          "type": "address"
        },
        {
          "indexed": true,
          "internalType": "address",
          "name": "operator",
          "type": "address"
        },
        {
          "indexed": false,
          "internalType": "bool",
          "name": "approved",
          "type": "bool"
        }
      ],
      "name": "ApprovalForAll",
      "type": "event"
    },
    {
      "anonymous": false,
      "inputs": [
        {
          "indexed": true,
          "internalType": "address",
          "name": "minter",
          "type": "address"
        },
        {
          "indexed": true,
          "internalType": "address",
          "name": "to",
          "type": "address"
        },
        {
          "indexed": false,
          "internalType": "uint256",
          "name": "parentId",
          "type": "uint256"
        },
        {
          "indexed": false,
          "internalType": "uint256",
          "name": "tokenId",
          "type": "uint256"
        }
      ],
      "name": "Minted",
      "type": "event"
    },
    {
      "anonymous": false,
      "inputs": [
        {
          "indexed": true,
          "internalType": "address",
          "name": "from",
          "type": "address"
        },
        {
          "indexed": true,
          "internalType": "address",
          "name": "to",
          "type": "address"
        },
        {
          "indexed": true,
          "internalType": "uint256",
          "name": "tokenId",
          "type": "uint256"
        }
      ],
      "name": "Transfer",
      "type": "event"
    },
    {
      "inputs": [
        {
          "internalType": "address",
          "name": "to",
          "type": "address"
        },
        {
          "internalType": "uint256",
          "name": "tokenId",
          "type": "uint256"
        }
      ],
      "name": "approve",
      "outputs": [],
      "stateMutability": "nonpayable",
      "type": "function"
    },
    {
      "inputs": [
        {
          "internalType": "address",
          "name": "owner",
          "type": "address"
        }
      ],
      "name": "balanceOf",
      "outputs": [
        {
          "internalType": "uint256",
          "name": "",
          "type": "uint256"
        }
      ],
      "stateMutability": "view",
      "type": "function"
    },
    {
      "inputs": [
        {
          "internalType": "uint256",
          "name": "tokenId",
          "type": "uint256"
        }
      ],
      "name": "childrenOf",
      "outputs": [
        {
          "internalType": "uint256[]",
          "name": "childrenIds",
          "type": "uint256[]"
        }
      ],
      "stateMutability": "view",
      "type": "function"
    },
    {
      "inputs": [
        {
          "internalType": "uint256",
          "name": "tokenId",
          "type": "uint256"
        }
      ],
      "name": "getApproved",
      "outputs": [
        {
          "internalType": "address",
          "name": "",
          "type": "address"
        }
      ],
      "stateMutability": "view",
      "type": "function"
    },
    {
      "inputs": [],
      "name": "getLastTokenId",
      "outputs": [
        {
          "internalType": "uint256",
          "name": "",
          "type": "uint256"
        }
      ],
      "stateMutability": "view",
      "type": "function"
    },
    {
      "inputs": [
        {
          "internalType": "address",
          "name": "owner",
          "type": "address"
        },
        {
          "internalType": "address",
          "name": "operator",
          "type": "address"
        }
      ],
      "name": "isApprovedForAll",
      "outputs": [
        {
          "internalType": "bool",
          "name": "",
          "type": "bool"
        }
      ],
      "stateMutability": "view",
      "type": "function"
    },
    {
      "inputs": [
        {
          "internalType": "uint256",
          "name": "tokenId",
          "type": "uint256"
        }
      ],
      "name": "isLeaf",
      "outputs": [
        {
          "internalType": "bool",
          "name": "",
          "type": "bool"
        }
      ],
      "stateMutability": "view",
      "type": "function"
    },
    {
      "inputs": [
        {
          "internalType": "uint256",
          "name": "tokenId",
          "type": "uint256"
        }
      ],
      "name": "isRoot",
      "outputs": [
        {
          "internalType": "bool",
          "name": "",
          "type": "bool"
        }
      ],
      "stateMutability": "view",
      "type": "function"
    },
    {
      "inputs": [],
      "name": "name",
      "outputs": [
        {
          "internalType": "string",
          "name": "",
          "type": "string"
        }
      ],
      "stateMutability": "view",
      "type": "function"
    },
    {
      "inputs": [
        {
          "internalType": "uint256",
          "name": "tokenId",
          "type": "uint256"
        }
      ],
      "name": "ownerOf",
      "outputs": [
        {
          "internalType": "address",
          "name": "",
          "type": "address"
        }
      ],
      "stateMutability": "view",
      "type": "function"
    },
    {
      "inputs": [
        {
          "internalType": "uint256",
          "name": "tokenId",
          "type": "uint256"
        }
      ],
      "name": "parentOf",
      "outputs": [
        {
          "internalType": "uint256",
          "name": "parentId",
          "type": "uint256"
        }
      ],
      "stateMutability": "view",
      "type": "function"
    },
    {
      "inputs": [
        {
          "internalType": "address",
          "name": "to",
          "type": "address"
        },
        {
          "internalType": "uint256",
          "name": "parentId",
          "type": "uint256"
        }
      ],
      "name": "safeMintWithParent",
      "outputs": [],
      "stateMutability": "nonpayable",
      "type": "function"
    },
    {
      "inputs": [
        {
          "internalType": "address",
          "name": "from",
          "type": "address"
        },
        {
          "internalType": "address",
          "name": "to",
          "type": "address"
        },
        {
          "internalType": "uint256",
          "name": "tokenId",
          "type": "uint256"
        }
      ],
      "name": "safeTransferFrom",
      "outputs": [],
      "stateMutability": "nonpayable",
      "type": "function"
    },
    {
      "inputs": [
        {
          "internalType": "address",
          "name": "from",
          "type": "address"
        },
        {
          "internalType": "address",
          "name": "to",
          "type": "address"
        },
        {
          "internalType": "uint256",
          "name": "tokenId",
          "type": "uint256"
        },
        {
          "internalType": "bytes",
          "name": "data",
          "type": "bytes"
        }
      ],
      "name": "safeTransferFrom",
      "outputs": [],
      "stateMutability": "nonpayable",
      "type": "function"
    },
    {
      "inputs": [
        {
          "internalType": "address",
          "name": "operator",
          "type": "address"
        },
        {
          "internalType": "bool",
          "name": "approved",
          "type": "bool"
        }
      ],
      "name": "setApprovalForAll",
      "outputs": [],
      "stateMutability": "nonpayable",
      "type": "function"
    },
    {
      "inputs": [
        {
          "internalType": "bytes4",
          "name": "interfaceId",
          "type": "bytes4"
        }
      ],
      "name": "supportsInterface",
      "outputs": [
        {
          "internalType": "bool",
          "name": "",
          "type": "bool"
        }
      ],
      "stateMutability": "view",
      "type": "function"
    },
    {
      "inputs": [],
      "name": "symbol",
      "outputs": [
        {
          "internalType": "string",
          "name": "",
          "type": "string"
        }
      ],
      "stateMutability": "view",
      "type": "function"
    },
    {
      "inputs": [
        {
          "internalType": "uint256",
          "name": "tokenId",
          "type": "uint256"
        }
      ],
      "name": "tokenURI",
      "outputs": [
        {
          "internalType": "string",
          "name": "",
          "type": "string"
        }
      ],
      "stateMutability": "view",
      "type": "function"
    },
    {
      "inputs": [
        {
          "internalType": "address",
          "name": "from",
          "type": "address"
        },
        {
          "internalType": "address",
          "name": "to",
          "type": "address"
        },
        {
          "internalType": "uint256",
          "name": "tokenId",
          "type": "uint256"
        }
      ],
      "name": "transferFrom",
      "outputs": [],
      "stateMutability": "nonpayable",
      "type": "function"
    }
  ],
  "bytecode": "0x60806040523480156200001157600080fd5b506040516200198138038062001981833981016040819052620000349162000142565b8181818160006200004683826200023b565b5060016200005582826200023b565b50505050506200006c60096200007460201b60201c565b505062000307565b80546001019055565b634e487b7160e01b600052604160045260246000fd5b600082601f830112620000a557600080fd5b81516001600160401b0380821115620000c257620000c26200007d565b604051601f8301601f19908116603f01168101908282118183101715620000ed57620000ed6200007d565b816040528381526020925086838588010111156200010a57600080fd5b600091505b838210156200012e57858201830151818301840152908201906200010f565b600093810190920192909252949350505050565b600080604083850312156200015657600080fd5b82516001600160401b03808211156200016e57600080fd5b6200017c8683870162000093565b935060208501519150808211156200019357600080fd5b50620001a28582860162000093565b9150509250929050565b600181811c90821680620001c157607f821691505b602082108103620001e257634e487b7160e01b600052602260045260246000fd5b50919050565b601f8211156200023657600081815260208120601f850160051c81016020861015620002115750805b601f850160051c820191505b8181101562000232578281556001016200021d565b5050505b505050565b81516001600160401b038111156200025757620002576200007d565b6200026f81620002688454620001ac565b84620001e8565b602080601f831160018114620002a757600084156200028e5750858301515b600019600386901b1c1916600185901b17855562000232565b600085815260208120601f198616915b82811015620002d857888601518255948401946001909101908401620002b7565b5085821015620002f75787850151600019600388901b60f8161c191681555b5050505050600190811b01905550565b61166a80620003176000396000f3fe608060405234801561001057600080fd5b50600436106101215760003560e01c806383c4c00d116100ad578063c87b56dd11610071578063c87b56dd14610266578063cce3c13b14610279578063cfa3c1321461028c578063e527b9661461029f578063e985e9c5146102b257600080fd5b806383c4c00d1461021d578063919c2e9c1461022557806395d89b4114610238578063a22cb46514610240578063b88d4fde1461025357600080fd5b806323b872dd116100f457806323b872dd146101a357806342842e0e146101b65780636352211e146101c95780636f19951c146101dc57806370a08231146101fc57600080fd5b806301ffc9a71461012657806306fdde031461014e578063081812fc14610163578063095ea7b31461018e575b600080fd5b6101396101343660046111b2565b6102ee565b60405190151581526020015b60405180910390f35b610156610319565b604051610145919061121f565b610176610171366004611232565b6103ab565b6040516001600160a01b039091168152602001610145565b6101a161019c366004611267565b6103d2565b005b6101a16101b1366004611291565b6104ec565b6101a16101c4366004611291565b61051d565b6101766101d7366004611232565b610538565b6101ef6101ea366004611232565b610598565b60405161014591906112cd565b61020f61020a366004611311565b610609565b604051908152602001610145565b61020f61068f565b6101a1610233366004611267565b61069f565b6101566106f9565b6101a161024e36600461132c565b610708565b6101a161026136600461137e565b610717565b610156610274366004611232565b61074f565b610139610287366004611232565b6107c3565b61020f61029a366004611232565b6107e2565b6101396102ad366004611232565b610800565b6101396102c036600461145a565b6001600160a01b03918216600090815260056020908152604080832093909416825291909152205460ff1690565b60006001600160e01b0319821663897e2c7360e01b148061031357506103138261081f565b92915050565b6060600080546103289061148d565b80601f01602080910402602001604051908101604052809291908181526020018280546103549061148d565b80156103a15780601f10610376576101008083540402835291602001916103a1565b820191906000526020600020905b81548152906001019060200180831161038457829003601f168201915b5050505050905090565b60006103b68261086f565b506000908152600460205260409020546001600160a01b031690565b60006103dd82610538565b9050806001600160a01b0316836001600160a01b03160361044f5760405162461bcd60e51b815260206004820152602160248201527f4552433732313a20617070726f76616c20746f2063757272656e74206f776e656044820152603960f91b60648201526084015b60405180910390fd5b336001600160a01b038216148061046b575061046b81336102c0565b6104dd5760405162461bcd60e51b815260206004820152603d60248201527f4552433732313a20617070726f76652063616c6c6572206973206e6f7420746f60448201527f6b656e206f776e6572206f7220617070726f76656420666f7220616c6c0000006064820152608401610446565b6104e783836108d1565b505050565b6104f6338261093f565b6105125760405162461bcd60e51b8152600401610446906114c7565b6104e78383836109be565b6104e783838360405180602001604052806000815250610717565b6000818152600260205260408120546001600160a01b0316806103135760405162461bcd60e51b8152602060048201526018602482015277115490cdcc8c4e881a5b9d985b1a59081d1bdad95b88125160421b6044820152606401610446565b606081156105a9576105a98261086f565b600082815260076020908152604091829020805483518184028101840190945280845290918301828280156105fd57602002820191906000526020600020905b8154815260200190600101908083116105e9575b50505050509050919050565b60006001600160a01b0382166106735760405162461bcd60e51b815260206004820152602960248201527f4552433732313a2061646472657373207a65726f206973206e6f7420612076616044820152683634b21037bbb732b960b91b6064820152608401610446565b506001600160a01b031660009081526003602052604090205490565b600061069a60095490565b905090565b60006106aa60095490565b90506106ba600980546001019055565b6106d583838360405180602001604052806000815250610b22565b336000908152600a6020908152604082208054600181018255908352912001555050565b6060600180546103289061148d565b610713338383610c71565b5050565b610721338361093f565b61073d5760405162461bcd60e51b8152600401610446906114c7565b61074984848484610d3f565b50505050565b606061075a8261086f565b600061077160408051602081019091526000815290565b9050600081511161079157604051806020016040528060008152506107bc565b8061079b84610d72565b6040516020016107ac929190611514565b6040516020818303038152906040525b9392505050565b60006107ce8261086f565b506000908152600760205260409020541590565b60006107ed8261086f565b5060009081526006602052604090205490565b600061080b8261086f565b506000908152600660205260409020541590565b60006001600160e01b031982166380ac58cd60e01b148061085057506001600160e01b03198216635b5e139f60e01b145b8061031357506301ffc9a760e01b6001600160e01b0319831614610313565b6000818152600260205260409020546001600160a01b03166108ce5760405162461bcd60e51b8152602060048201526018602482015277115490cdcc8c4e881a5b9d985b1a59081d1bdad95b88125160421b6044820152606401610446565b50565b600081815260046020526040902080546001600160a01b0319166001600160a01b038416908117909155819061090682610538565b6001600160a01b03167f8c5be1e5ebec7d5bd14f71427d1e84f3dd0314c0f7b2291e5b200ac8c7c3b92560405160405180910390a45050565b60008061094b83610538565b9050806001600160a01b0316846001600160a01b0316148061099257506001600160a01b0380821660009081526005602090815260408083209388168352929052205460ff165b806109b65750836001600160a01b03166109ab846103ab565b6001600160a01b0316145b949350505050565b826001600160a01b03166109d182610538565b6001600160a01b0316146109f75760405162461bcd60e51b815260040161044690611543565b6001600160a01b038216610a595760405162461bcd60e51b8152602060048201526024808201527f4552433732313a207472616e7366657220746f20746865207a65726f206164646044820152637265737360e01b6064820152608401610446565b826001600160a01b0316610a6c82610538565b6001600160a01b031614610a925760405162461bcd60e51b815260040161044690611543565b600081815260046020908152604080832080546001600160a01b03199081169091556001600160a01b0387811680865260038552838620805460001901905590871680865283862080546001019055868652600290945282852080549092168417909155905184937fddf252ad1be2c89b69c2b068fc378daa952ba7f163c4a11628f55a4df523b3ef91a4505050565b60008211610b725760405162461bcd60e51b815260206004820152601860248201527f455243363135303a20746f6b656e4964206973207a65726f00000000000000006044820152606401610446565b8215610bdc576000838152600260205260409020546001600160a01b0316610bdc5760405162461bcd60e51b815260206004820152601f60248201527f455243363135303a20706172656e74496420646f65736e2774206578697374006044820152606401610446565b600082815260066020908152604080832086905585835260078083528184208054878652600885529285208390559083526001820181558352912001829055610c26848383610e05565b60408051848152602081018490526001600160a01b0386169133917f03f17d66ad3bf18e9412eb06582908831508cdb9b8da9cddb1431f645a5b8632910160405180910390a3610749565b816001600160a01b0316836001600160a01b031603610cd25760405162461bcd60e51b815260206004820152601960248201527f4552433732313a20617070726f766520746f2063616c6c6572000000000000006044820152606401610446565b6001600160a01b03838116600081815260056020908152604080832094871680845294825291829020805460ff191686151590811790915591519182527f17307eab39ab6107e8899845ad3d59bd9653f200f220920489ca2b5937696c31910160405180910390a3505050565b610d4a8484846109be565b610d5684848484610e38565b6107495760405162461bcd60e51b815260040161044690611588565b60606000610d7f83610f39565b600101905060008167ffffffffffffffff811115610d9f57610d9f611368565b6040519080825280601f01601f191660200182016040528015610dc9576020820181803683370190505b5090508181016020015b600019016f181899199a1a9b1b9c1cb0b131b232b360811b600a86061a8153600a8504945084610dd357509392505050565b610e0f8383611011565b610e1c6000848484610e38565b6104e75760405162461bcd60e51b815260040161044690611588565b60006001600160a01b0384163b15610f2e57604051630a85bd0160e11b81526001600160a01b0385169063150b7a0290610e7c9033908990889088906004016115da565b6020604051808303816000875af1925050508015610eb7575060408051601f3d908101601f19168201909252610eb491810190611617565b60015b610f14573d808015610ee5576040519150601f19603f3d011682016040523d82523d6000602084013e610eea565b606091505b508051600003610f0c5760405162461bcd60e51b815260040161044690611588565b805181602001fd5b6001600160e01b031916630a85bd0160e11b1490506109b6565b506001949350505050565b60008072184f03e93ff9f4daa797ed6e38ed64bf6a1f0160401b8310610f785772184f03e93ff9f4daa797ed6e38ed64bf6a1f0160401b830492506040015b6d04ee2d6d415b85acef81000000008310610fa4576d04ee2d6d415b85acef8100000000830492506020015b662386f26fc100008310610fc257662386f26fc10000830492506010015b6305f5e1008310610fda576305f5e100830492506008015b6127108310610fee57612710830492506004015b60648310611000576064830492506002015b600a83106103135760010192915050565b6001600160a01b0382166110675760405162461bcd60e51b815260206004820181905260248201527f4552433732313a206d696e7420746f20746865207a65726f20616464726573736044820152606401610446565b6000818152600260205260409020546001600160a01b0316156110cc5760405162461bcd60e51b815260206004820152601c60248201527f4552433732313a20746f6b656e20616c7265616479206d696e746564000000006044820152606401610446565b6000818152600260205260409020546001600160a01b0316156111315760405162461bcd60e51b815260206004820152601c60248201527f4552433732313a20746f6b656e20616c7265616479206d696e746564000000006044820152606401610446565b6001600160a01b038216600081815260036020908152604080832080546001019055848352600290915280822080546001600160a01b0319168417905551839291907fddf252ad1be2c89b69c2b068fc378daa952ba7f163c4a11628f55a4df523b3ef908290a45050565b6001600160e01b0319811681146108ce57600080fd5b6000602082840312156111c457600080fd5b81356107bc8161119c565b60005b838110156111ea5781810151838201526020016111d2565b50506000910152565b6000815180845261120b8160208601602086016111cf565b601f01601f19169290920160200192915050565b6020815260006107bc60208301846111f3565b60006020828403121561124457600080fd5b5035919050565b80356001600160a01b038116811461126257600080fd5b919050565b6000806040838503121561127a57600080fd5b6112838361124b565b946020939093013593505050565b6000806000606084860312156112a657600080fd5b6112af8461124b565b92506112bd6020850161124b565b9150604084013590509250925092565b6020808252825182820181905260009190848201906040850190845b81811015611305578351835292840192918401916001016112e9565b50909695505050505050565b60006020828403121561132357600080fd5b6107bc8261124b565b6000806040838503121561133f57600080fd5b6113488361124b565b91506020830135801515811461135d57600080fd5b809150509250929050565b634e487b7160e01b600052604160045260246000fd5b6000806000806080858703121561139457600080fd5b61139d8561124b565b93506113ab6020860161124b565b925060408501359150606085013567ffffffffffffffff808211156113cf57600080fd5b818701915087601f8301126113e357600080fd5b8135818111156113f5576113f5611368565b604051601f8201601f19908116603f0116810190838211818310171561141d5761141d611368565b816040528281528a602084870101111561143657600080fd5b82602086016020830137600060208483010152809550505050505092959194509250565b6000806040838503121561146d57600080fd5b6114768361124b565b91506114846020840161124b565b90509250929050565b600181811c908216806114a157607f821691505b6020821081036114c157634e487b7160e01b600052602260045260246000fd5b50919050565b6020808252602d908201527f4552433732313a2063616c6c6572206973206e6f7420746f6b656e206f776e6560408201526c1c881bdc88185c1c1c9bdd9959609a1b606082015260800190565b600083516115268184602088016111cf565b83519083019061153a8183602088016111cf565b01949350505050565b60208082526025908201527f4552433732313a207472616e736665722066726f6d20696e636f72726563742060408201526437bbb732b960d91b606082015260800190565b60208082526032908201527f4552433732313a207472616e7366657220746f206e6f6e20455243373231526560408201527131b2b4bb32b91034b6b83632b6b2b73a32b960711b606082015260800190565b6001600160a01b038581168252841660208201526040810183905260806060820181905260009061160d908301846111f3565b9695505050505050565b60006020828403121561162957600080fd5b81516107bc8161119c56fea26469706673582212201a27635e92dd31628dd0fcc730d9db42932826dc1c8734ad6de8dd0ff5c9895b64736f6c63430008130033",
  "linkReferences": {},
  "deployedLinkReferences": {}
}