{
  "_format": "hh-sol-artifact-1",
  "contractName": "Article",
  "sourceName": "contracts/Article.sol",
  "abi": [
    {
      "inputs": [
        {
          "internalType": "string",
          "name": "name_",
          "type": "string"
        },
        {
          "internalType": "string",
          "name": "symbol_",
          "type": "string"
        }
      ],
      "stateMutability": "nonpayable",
      "type": "constructor"
    },
    {
      "anonymous": false,
      "inputs": [
        {
          "indexed": true,
          "internalType": "address",
          "name": "owner",
          "type": "address"
        },
        {
          "indexed": true,
          "internalType": "address",
          "name": "approved",
          "type": "address"
        },
        {
          "indexed": true,
          "internalType": "uint256",
          "name": "tokenId",
          "type": "uint256"
        }
      ],
      "name": "Approval",
      "type": "event"
    },
    {
      "anonymous": false,
      "inputs": [
        {
          "indexed": true,
          "internalType": "address",
          "name": "owner",
          "type": "address"
        },
        {
          "indexed": true,
          "internalType": "address",
          "name": "operator",
          "type": "address"
        },
        {
          "indexed": false,
          "internalType": "bool",
          "name": "approved",
          "type": "bool"
        }
      ],
      "name": "ApprovalForAll",
      "type": "event"
    },
    {
      "anonymous": false,
      "inputs": [
        {
          "indexed": true,
          "internalType": "address",
          "name": "minter",
          "type": "address"
        },
        {
          "indexed": true,
          "internalType": "address",
          "name": "to",
          "type": "address"
        },
        {
          "indexed": false,
          "internalType": "uint256",
          "name": "parentId",
          "type": "uint256"
        },
        {
          "indexed": false,
          "internalType": "uint256",
          "name": "tokenId",
          "type": "uint256"
        }
      ],
      "name": "Minted",
      "type": "event"
    },
    {
      "anonymous": false,
      "inputs": [
        {
          "indexed": true,
          "internalType": "address",
          "name": "from",
          "type": "address"
        },
        {
          "indexed": true,
          "internalType": "address",
          "name": "to",
          "type": "address"
        },
        {
          "indexed": true,
          "internalType": "uint256",
          "name": "tokenId",
          "type": "uint256"
        }
      ],
      "name": "Transfer",
      "type": "event"
    },
    {
      "inputs": [
        {
          "internalType": "address",
          "name": "to",
          "type": "address"
        },
        {
          "internalType": "uint256",
          "name": "tokenId",
          "type": "uint256"
        }
      ],
      "name": "approve",
      "outputs": [],
      "stateMutability": "nonpayable",
      "type": "function"
    },
    {
      "inputs": [
        {
          "internalType": "address",
          "name": "owner",
          "type": "address"
        }
      ],
      "name": "balanceOf",
      "outputs": [
        {
          "internalType": "uint256",
          "name": "",
          "type": "uint256"
        }
      ],
      "stateMutability": "view",
      "type": "function"
    },
    {
      "inputs": [
        {
          "internalType": "uint256",
          "name": "tokenId",
          "type": "uint256"
        }
      ],
      "name": "childrenOf",
      "outputs": [
        {
          "internalType": "uint256[]",
          "name": "childrenIds",
          "type": "uint256[]"
        }
      ],
      "stateMutability": "view",
      "type": "function"
    },
    {
      "inputs": [
        {
          "internalType": "uint256",
          "name": "tokenId",
          "type": "uint256"
        }
      ],
      "name": "getApproved",
      "outputs": [
        {
          "internalType": "address",
          "name": "",
          "type": "address"
        }
      ],
      "stateMutability": "view",
      "type": "function"
    },
    {
      "inputs": [
        {
          "internalType": "address",
          "name": "owner",
          "type": "address"
        },
        {
          "internalType": "address",
          "name": "operator",
          "type": "address"
        }
      ],
      "name": "isApprovedForAll",
      "outputs": [
        {
          "internalType": "bool",
          "name": "",
          "type": "bool"
        }
      ],
      "stateMutability": "view",
      "type": "function"
    },
    {
      "inputs": [
        {
          "internalType": "uint256",
          "name": "tokenId",
          "type": "uint256"
        }
      ],
      "name": "isLeaf",
      "outputs": [
        {
          "internalType": "bool",
          "name": "",
          "type": "bool"
        }
      ],
      "stateMutability": "view",
      "type": "function"
    },
    {
      "inputs": [
        {
          "internalType": "uint256",
          "name": "tokenId",
          "type": "uint256"
        }
      ],
      "name": "isRoot",
      "outputs": [
        {
          "internalType": "bool",
          "name": "",
          "type": "bool"
        }
      ],
      "stateMutability": "view",
      "type": "function"
    },
    {
      "inputs": [],
      "name": "name",
      "outputs": [
        {
          "internalType": "string",
          "name": "",
          "type": "string"
        }
      ],
      "stateMutability": "view",
      "type": "function"
    },
    {
      "inputs": [
        {
          "internalType": "uint256",
          "name": "tokenId",
          "type": "uint256"
        }
      ],
      "name": "ownerOf",
      "outputs": [
        {
          "internalType": "address",
          "name": "",
          "type": "address"
        }
      ],
      "stateMutability": "view",
      "type": "function"
    },
    {
      "inputs": [
        {
          "internalType": "uint256",
          "name": "tokenId",
          "type": "uint256"
        }
      ],
      "name": "parentOf",
      "outputs": [
        {
          "internalType": "uint256",
          "name": "parentId",
          "type": "uint256"
        }
      ],
      "stateMutability": "view",
      "type": "function"
    },
    {
      "inputs": [
        {
          "internalType": "address",
          "name": "from",
          "type": "address"
        },
        {
          "internalType": "address",
          "name": "to",
          "type": "address"
        },
        {
          "internalType": "uint256",
          "name": "tokenId",
          "type": "uint256"
        }
      ],
      "name": "safeTransferFrom",
      "outputs": [],
      "stateMutability": "nonpayable",
      "type": "function"
    },
    {
      "inputs": [
        {
          "internalType": "address",
          "name": "from",
          "type": "address"
        },
        {
          "internalType": "address",
          "name": "to",
          "type": "address"
        },
        {
          "internalType": "uint256",
          "name": "tokenId",
          "type": "uint256"
        },
        {
          "internalType": "bytes",
          "name": "data",
          "type": "bytes"
        }
      ],
      "name": "safeTransferFrom",
      "outputs": [],
      "stateMutability": "nonpayable",
      "type": "function"
    },
    {
      "inputs": [
        {
          "internalType": "address",
          "name": "operator",
          "type": "address"
        },
        {
          "internalType": "bool",
          "name": "approved",
          "type": "bool"
        }
      ],
      "name": "setApprovalForAll",
      "outputs": [],
      "stateMutability": "nonpayable",
      "type": "function"
    },
    {
      "inputs": [
        {
          "internalType": "bytes4",
          "name": "interfaceId",
          "type": "bytes4"
        }
      ],
      "name": "supportsInterface",
      "outputs": [
        {
          "internalType": "bool",
          "name": "",
          "type": "bool"
        }
      ],
      "stateMutability": "view",
      "type": "function"
    },
    {
      "inputs": [],
      "name": "symbol",
      "outputs": [
        {
          "internalType": "string",
          "name": "",
          "type": "string"
        }
      ],
      "stateMutability": "view",
      "type": "function"
    },
    {
      "inputs": [
        {
          "internalType": "uint256",
          "name": "tokenId",
          "type": "uint256"
        }
      ],
      "name": "tokenURI",
      "outputs": [
        {
          "internalType": "string",
          "name": "",
          "type": "string"
        }
      ],
      "stateMutability": "view",
      "type": "function"
    },
    {
      "inputs": [
        {
          "internalType": "address",
          "name": "from",
          "type": "address"
        },
        {
          "internalType": "address",
          "name": "to",
          "type": "address"
        },
        {
          "internalType": "uint256",
          "name": "tokenId",
          "type": "uint256"
        }
      ],
      "name": "transferFrom",
      "outputs": [],
      "stateMutability": "nonpayable",
      "type": "function"
    }
  ],
  "bytecode": "0x60806040523480156200001157600080fd5b50604051620015be380380620015be833981016040819052620000349162000127565b81818181600062000046838262000220565b50600162000055828262000220565b50505050505050620002ec565b634e487b7160e01b600052604160045260246000fd5b600082601f8301126200008a57600080fd5b81516001600160401b0380821115620000a757620000a762000062565b604051601f8301601f19908116603f01168101908282118183101715620000d257620000d262000062565b81604052838152602092508683858801011115620000ef57600080fd5b600091505b83821015620001135785820183015181830184015290820190620000f4565b600093810190920192909252949350505050565b600080604083850312156200013b57600080fd5b82516001600160401b03808211156200015357600080fd5b620001618683870162000078565b935060208501519150808211156200017857600080fd5b50620001878582860162000078565b9150509250929050565b600181811c90821680620001a657607f821691505b602082108103620001c757634e487b7160e01b600052602260045260246000fd5b50919050565b601f8211156200021b57600081815260208120601f850160051c81016020861015620001f65750805b601f850160051c820191505b81811015620002175782815560010162000202565b5050505b505050565b81516001600160401b038111156200023c576200023c62000062565b62000254816200024d845462000191565b84620001cd565b602080601f8311600181146200028c5760008415620002735750858301515b600019600386901b1c1916600185901b17855562000217565b600085815260208120601f198616915b82811015620002bd578886015182559484019460019091019084016200029c565b5085821015620002dc5787850151600019600388901b60f8161c191681555b5050505050600190811b01905550565b6112c280620002fc6000396000f3fe608060405234801561001057600080fd5b506004361061010b5760003560e01c806370a08231116100a2578063c87b56dd11610071578063c87b56dd14610235578063cce3c13b14610248578063cfa3c1321461025b578063e527b9661461026e578063e985e9c51461028157600080fd5b806370a08231146101e657806395d89b4114610207578063a22cb4651461020f578063b88d4fde1461022257600080fd5b806323b872dd116100de57806323b872dd1461018d57806342842e0e146101a05780636352211e146101b35780636f19951c146101c657600080fd5b806301ffc9a71461011057806306fdde0314610138578063081812fc1461014d578063095ea7b314610178575b600080fd5b61012361011e366004610e0a565b6102bd565b60405190151581526020015b60405180910390f35b6101406102e8565b60405161012f9190610e77565b61016061015b366004610e8a565b61037a565b6040516001600160a01b03909116815260200161012f565b61018b610186366004610ebf565b6103a1565b005b61018b61019b366004610ee9565b6104bb565b61018b6101ae366004610ee9565b6104ec565b6101606101c1366004610e8a565b610507565b6101d96101d4366004610e8a565b610567565b60405161012f9190610f25565b6101f96101f4366004610f69565b6105d8565b60405190815260200161012f565b61014061065e565b61018b61021d366004610f84565b61066d565b61018b610230366004610fd6565b61067c565b610140610243366004610e8a565b6106b4565b610123610256366004610e8a565b610728565b6101f9610269366004610e8a565b610747565b61012361027c366004610e8a565b610765565b61012361028f3660046110b2565b6001600160a01b03918216600090815260056020908152604080832093909416825291909152205460ff1690565b60006001600160e01b0319821663897e2c7360e01b14806102e257506102e282610784565b92915050565b6060600080546102f7906110e5565b80601f0160208091040260200160405190810160405280929190818152602001828054610323906110e5565b80156103705780601f1061034557610100808354040283529160200191610370565b820191906000526020600020905b81548152906001019060200180831161035357829003601f168201915b5050505050905090565b6000610385826107d4565b506000908152600460205260409020546001600160a01b031690565b60006103ac82610507565b9050806001600160a01b0316836001600160a01b03160361041e5760405162461bcd60e51b815260206004820152602160248201527f4552433732313a20617070726f76616c20746f2063757272656e74206f776e656044820152603960f91b60648201526084015b60405180910390fd5b336001600160a01b038216148061043a575061043a813361028f565b6104ac5760405162461bcd60e51b815260206004820152603d60248201527f4552433732313a20617070726f76652063616c6c6572206973206e6f7420746f60448201527f6b656e206f776e6572206f7220617070726f76656420666f7220616c6c0000006064820152608401610415565b6104b68383610836565b505050565b6104c533826108a4565b6104e15760405162461bcd60e51b81526004016104159061111f565b6104b6838383610923565b6104b68383836040518060200160405280600081525061067c565b6000818152600260205260408120546001600160a01b0316806102e25760405162461bcd60e51b8152602060048201526018602482015277115490cdcc8c4e881a5b9d985b1a59081d1bdad95b88125160421b6044820152606401610415565b6060811561057857610578826107d4565b600082815260076020908152604091829020805483518184028101840190945280845290918301828280156105cc57602002820191906000526020600020905b8154815260200190600101908083116105b8575b50505050509050919050565b60006001600160a01b0382166106425760405162461bcd60e51b815260206004820152602960248201527f4552433732313a2061646472657373207a65726f206973206e6f7420612076616044820152683634b21037bbb732b960b91b6064820152608401610415565b506001600160a01b031660009081526003602052604090205490565b6060600180546102f7906110e5565b610678338383610a87565b5050565b61068633836108a4565b6106a25760405162461bcd60e51b81526004016104159061111f565b6106ae84848484610b55565b50505050565b60606106bf826107d4565b60006106d660408051602081019091526000815290565b905060008151116106f65760405180602001604052806000815250610721565b8061070084610b88565b60405160200161071192919061116c565b6040516020818303038152906040525b9392505050565b6000610733826107d4565b506000908152600760205260409020541590565b6000610752826107d4565b5060009081526006602052604090205490565b6000610770826107d4565b506000908152600660205260409020541590565b60006001600160e01b031982166380ac58cd60e01b14806107b557506001600160e01b03198216635b5e139f60e01b145b806102e257506301ffc9a760e01b6001600160e01b03198316146102e2565b6000818152600260205260409020546001600160a01b03166108335760405162461bcd60e51b8152602060048201526018602482015277115490cdcc8c4e881a5b9d985b1a59081d1bdad95b88125160421b6044820152606401610415565b50565b600081815260046020526040902080546001600160a01b0319166001600160a01b038416908117909155819061086b82610507565b6001600160a01b03167f8c5be1e5ebec7d5bd14f71427d1e84f3dd0314c0f7b2291e5b200ac8c7c3b92560405160405180910390a45050565b6000806108b083610507565b9050806001600160a01b0316846001600160a01b031614806108f757506001600160a01b0380821660009081526005602090815260408083209388168352929052205460ff165b8061091b5750836001600160a01b03166109108461037a565b6001600160a01b0316145b949350505050565b826001600160a01b031661093682610507565b6001600160a01b03161461095c5760405162461bcd60e51b81526004016104159061119b565b6001600160a01b0382166109be5760405162461bcd60e51b8152602060048201526024808201527f4552433732313a207472616e7366657220746f20746865207a65726f206164646044820152637265737360e01b6064820152608401610415565b826001600160a01b03166109d182610507565b6001600160a01b0316146109f75760405162461bcd60e51b81526004016104159061119b565b600081815260046020908152604080832080546001600160a01b03199081169091556001600160a01b0387811680865260038552838620805460001901905590871680865283862080546001019055868652600290945282852080549092168417909155905184937fddf252ad1be2c89b69c2b068fc378daa952ba7f163c4a11628f55a4df523b3ef91a4505050565b816001600160a01b0316836001600160a01b031603610ae85760405162461bcd60e51b815260206004820152601960248201527f4552433732313a20617070726f766520746f2063616c6c6572000000000000006044820152606401610415565b6001600160a01b03838116600081815260056020908152604080832094871680845294825291829020805460ff191686151590811790915591519182527f17307eab39ab6107e8899845ad3d59bd9653f200f220920489ca2b5937696c31910160405180910390a3505050565b610b60848484610923565b610b6c84848484610c1b565b6106ae5760405162461bcd60e51b8152600401610415906111e0565b60606000610b9583610d1c565b600101905060008167ffffffffffffffff811115610bb557610bb5610fc0565b6040519080825280601f01601f191660200182016040528015610bdf576020820181803683370190505b5090508181016020015b600019016f181899199a1a9b1b9c1cb0b131b232b360811b600a86061a8153600a8504945084610be957509392505050565b60006001600160a01b0384163b15610d1157604051630a85bd0160e11b81526001600160a01b0385169063150b7a0290610c5f903390899088908890600401611232565b6020604051808303816000875af1925050508015610c9a575060408051601f3d908101601f19168201909252610c979181019061126f565b60015b610cf7573d808015610cc8576040519150601f19603f3d011682016040523d82523d6000602084013e610ccd565b606091505b508051600003610cef5760405162461bcd60e51b8152600401610415906111e0565b805181602001fd5b6001600160e01b031916630a85bd0160e11b14905061091b565b506001949350505050565b60008072184f03e93ff9f4daa797ed6e38ed64bf6a1f0160401b8310610d5b5772184f03e93ff9f4daa797ed6e38ed64bf6a1f0160401b830492506040015b6d04ee2d6d415b85acef81000000008310610d87576d04ee2d6d415b85acef8100000000830492506020015b662386f26fc100008310610da557662386f26fc10000830492506010015b6305f5e1008310610dbd576305f5e100830492506008015b6127108310610dd157612710830492506004015b60648310610de3576064830492506002015b600a83106102e25760010192915050565b6001600160e01b03198116811461083357600080fd5b600060208284031215610e1c57600080fd5b813561072181610df4565b60005b83811015610e42578181015183820152602001610e2a565b50506000910152565b60008151808452610e63816020860160208601610e27565b601f01601f19169290920160200192915050565b6020815260006107216020830184610e4b565b600060208284031215610e9c57600080fd5b5035919050565b80356001600160a01b0381168114610eba57600080fd5b919050565b60008060408385031215610ed257600080fd5b610edb83610ea3565b946020939093013593505050565b600080600060608486031215610efe57600080fd5b610f0784610ea3565b9250610f1560208501610ea3565b9150604084013590509250925092565b6020808252825182820181905260009190848201906040850190845b81811015610f5d57835183529284019291840191600101610f41565b50909695505050505050565b600060208284031215610f7b57600080fd5b61072182610ea3565b60008060408385031215610f9757600080fd5b610fa083610ea3565b915060208301358015158114610fb557600080fd5b809150509250929050565b634e487b7160e01b600052604160045260246000fd5b60008060008060808587031215610fec57600080fd5b610ff585610ea3565b935061100360208601610ea3565b925060408501359150606085013567ffffffffffffffff8082111561102757600080fd5b818701915087601f83011261103b57600080fd5b81358181111561104d5761104d610fc0565b604051601f8201601f19908116603f0116810190838211818310171561107557611075610fc0565b816040528281528a602084870101111561108e57600080fd5b82602086016020830137600060208483010152809550505050505092959194509250565b600080604083850312156110c557600080fd5b6110ce83610ea3565b91506110dc60208401610ea3565b90509250929050565b600181811c908216806110f957607f821691505b60208210810361111957634e487b7160e01b600052602260045260246000fd5b50919050565b6020808252602d908201527f4552433732313a2063616c6c6572206973206e6f7420746f6b656e206f776e6560408201526c1c881bdc88185c1c1c9bdd9959609a1b606082015260800190565b6000835161117e818460208801610e27565b835190830190611192818360208801610e27565b01949350505050565b60208082526025908201527f4552433732313a207472616e736665722066726f6d20696e636f72726563742060408201526437bbb732b960d91b606082015260800190565b60208082526032908201527f4552433732313a207472616e7366657220746f206e6f6e20455243373231526560408201527131b2b4bb32b91034b6b83632b6b2b73a32b960711b606082015260800190565b6001600160a01b038581168252841660208201526040810183905260806060820181905260009061126590830184610e4b565b9695505050505050565b60006020828403121561128157600080fd5b815161072181610df456fea2646970667358221220220f8310b9ad5af0c8660bb4f64d86724fd11bbd42bf8d88f5cc456cf6bf645b64736f6c63430008130033",
  "linkReferences": {},
  "deployedLinkReferences": {}
}