{
  "_format": "hh-sol-artifact-1",
  "contractName": "Emoji",
  "sourceName": "contracts/Emoji.sol",
  "abi": [
    {
      "inputs": [],
      "name": "BulkParametersOfUnequalLength",
      "type": "error"
    },
    {
      "inputs": [],
      "name": "ExpiredPresignedEmote",
      "type": "error"
    },
    {
      "inputs": [],
      "name": "InvalidSignature",
      "type": "error"
    },
    {
      "anonymous": false,
      "inputs": [
        {
          "indexed": true,
          "internalType": "address",
          "name": "emoter",
          "type": "address"
        },
        {
          "indexed": true,
          "internalType": "address",
          "name": "collection",
          "type": "address"
        },
        {
          "indexed": true,
          "internalType": "uint256",
          "name": "tokenId",
          "type": "uint256"
        },
        {
          "indexed": false,
          "internalType": "bytes4",
          "name": "emoji",
          "type": "bytes4"
        },
        {
          "indexed": false,
          "internalType": "bool",
          "name": "on",
          "type": "bool"
        }
      ],
      "name": "Emoted",
      "type": "event"
    },
    {
      "inputs": [],
      "name": "DOMAIN_SEPARATOR",
      "outputs": [
        {
          "internalType": "bytes32",
          "name": "",
          "type": "bytes32"
        }
      ],
      "stateMutability": "view",
      "type": "function"
    },
    {
      "inputs": [
        {
          "internalType": "address[]",
          "name": "collections",
          "type": "address[]"
        },
        {
          "internalType": "uint256[]",
          "name": "tokenIds",
          "type": "uint256[]"
        },
        {
          "internalType": "bytes4[]",
          "name": "emojis",
          "type": "bytes4[]"
        },
        {
          "internalType": "bool[]",
          "name": "states",
          "type": "bool[]"
        }
      ],
      "name": "bulkEmote",
      "outputs": [],
      "stateMutability": "nonpayable",
      "type": "function"
    },
    {
      "inputs": [
        {
          "internalType": "address[]",
          "name": "collections",
          "type": "address[]"
        },
        {
          "internalType": "uint256[]",
          "name": "tokenIds",
          "type": "uint256[]"
        },
        {
          "internalType": "bytes4[]",
          "name": "emojis",
          "type": "bytes4[]"
        }
      ],
      "name": "bulkEmoteCountOf",
      "outputs": [
        {
          "internalType": "uint256[]",
          "name": "",
          "type": "uint256[]"
        }
      ],
      "stateMutability": "view",
      "type": "function"
    },
    {
      "inputs": [
        {
          "internalType": "address[]",
          "name": "collections",
          "type": "address[]"
        },
        {
          "internalType": "uint256[]",
          "name": "tokenIds",
          "type": "uint256[]"
        },
        {
          "internalType": "bytes4[]",
          "name": "emojis",
          "type": "bytes4[]"
        },
        {
          "internalType": "bool[]",
          "name": "states",
          "type": "bool[]"
        },
        {
          "internalType": "uint256[]",
          "name": "deadlines",
          "type": "uint256[]"
        }
      ],
      "name": "bulkPrepareMessagesToPresignEmote",
      "outputs": [
        {
          "internalType": "bytes32[]",
          "name": "",
          "type": "bytes32[]"
        }
      ],
      "stateMutability": "view",
      "type": "function"
    },
    {
      "inputs": [
        {
          "internalType": "address[]",
          "name": "emoters",
          "type": "address[]"
        },
        {
          "internalType": "address[]",
          "name": "collections",
          "type": "address[]"
        },
        {
          "internalType": "uint256[]",
          "name": "tokenIds",
          "type": "uint256[]"
        },
        {
          "internalType": "bytes4[]",
          "name": "emojis",
          "type": "bytes4[]"
        },
        {
          "internalType": "bool[]",
          "name": "states",
          "type": "bool[]"
        },
        {
          "internalType": "uint256[]",
          "name": "deadlines",
          "type": "uint256[]"
        },
        {
          "internalType": "uint8[]",
          "name": "v",
          "type": "uint8[]"
        },
        {
          "internalType": "bytes32[]",
          "name": "r",
          "type": "bytes32[]"
        },
        {
          "internalType": "bytes32[]",
          "name": "s",
          "type": "bytes32[]"
        }
      ],
      "name": "bulkPresignedEmote",
      "outputs": [],
      "stateMutability": "nonpayable",
      "type": "function"
    },
    {
      "inputs": [
        {
          "internalType": "address",
          "name": "collection",
          "type": "address"
        },
        {
          "internalType": "uint256",
          "name": "tokenId",
          "type": "uint256"
        },
        {
          "internalType": "bytes4",
          "name": "emoji",
          "type": "bytes4"
        },
        {
          "internalType": "bool",
          "name": "state",
          "type": "bool"
        }
      ],
      "name": "emote",
      "outputs": [],
      "stateMutability": "nonpayable",
      "type": "function"
    },
    {
      "inputs": [
        {
          "internalType": "address",
          "name": "collection",
          "type": "address"
        },
        {
          "internalType": "uint256",
          "name": "tokenId",
          "type": "uint256"
        },
        {
          "internalType": "bytes4",
          "name": "emoji",
          "type": "bytes4"
        }
      ],
      "name": "emoteCountOf",
      "outputs": [
        {
          "internalType": "uint256",
          "name": "",
          "type": "uint256"
        }
      ],
      "stateMutability": "view",
      "type": "function"
    },
    {
      "inputs": [
        {
          "internalType": "address",
          "name": "emoter",
          "type": "address"
        },
        {
          "internalType": "address",
          "name": "collection",
          "type": "address"
        },
        {
          "internalType": "uint256",
          "name": "tokenId",
          "type": "uint256"
        },
        {
          "internalType": "bytes4",
          "name": "emoji",
          "type": "bytes4"
        }
      ],
      "name": "hasEmoterUsedEmote",
      "outputs": [
        {
          "internalType": "bool",
          "name": "",
          "type": "bool"
        }
      ],
      "stateMutability": "view",
      "type": "function"
    },
    {
      "inputs": [
        {
          "internalType": "address[]",
          "name": "emoters",
          "type": "address[]"
        },
        {
          "internalType": "address[]",
          "name": "collections",
          "type": "address[]"
        },
        {
          "internalType": "uint256[]",
          "name": "tokenIds",
          "type": "uint256[]"
        },
        {
          "internalType": "bytes4[]",
          "name": "emojis",
          "type": "bytes4[]"
        }
      ],
      "name": "haveEmotersUsedEmotes",
      "outputs": [
        {
          "internalType": "bool[]",
          "name": "",
          "type": "bool[]"
        }
      ],
      "stateMutability": "view",
      "type": "function"
    },
    {
      "inputs": [
        {
          "internalType": "address",
          "name": "collection",
          "type": "address"
        },
        {
          "internalType": "uint256",
          "name": "tokenId",
          "type": "uint256"
        },
        {
          "internalType": "bytes4",
          "name": "emoji",
          "type": "bytes4"
        },
        {
          "internalType": "bool",
          "name": "state",
          "type": "bool"
        },
        {
          "internalType": "uint256",
          "name": "deadline",
          "type": "uint256"
        }
      ],
      "name": "prepareMessageToPresignEmote",
      "outputs": [
        {
          "internalType": "bytes32",
          "name": "",
          "type": "bytes32"
        }
      ],
      "stateMutability": "view",
      "type": "function"
    },
    {
      "inputs": [
        {
          "internalType": "address",
          "name": "emoter",
          "type": "address"
        },
        {
          "internalType": "address",
          "name": "collection",
          "type": "address"
        },
        {
          "internalType": "uint256",
          "name": "tokenId",
          "type": "uint256"
        },
        {
          "internalType": "bytes4",
          "name": "emoji",
          "type": "bytes4"
        },
        {
          "internalType": "bool",
          "name": "state",
          "type": "bool"
        },
        {
          "internalType": "uint256",
          "name": "deadline",
          "type": "uint256"
        },
        {
          "internalType": "uint8",
          "name": "v",
          "type": "uint8"
        },
        {
          "internalType": "bytes32",
          "name": "r",
          "type": "bytes32"
        },
        {
          "internalType": "bytes32",
          "name": "s",
          "type": "bytes32"
        }
      ],
      "name": "presignedEmote",
      "outputs": [],
      "stateMutability": "nonpayable",
      "type": "function"
    },
    {
      "inputs": [
        {
          "internalType": "bytes4",
          "name": "interfaceId",
          "type": "bytes4"
        }
      ],
      "name": "supportsInterface",
      "outputs": [
        {
          "internalType": "bool",
          "name": "",
          "type": "bool"
        }
      ],
      "stateMutability": "view",
      "type": "function"
    }
  ],
  "bytecode": "0x608060c08181526034610140527f4552432d363338313a205075626c6963204e6f6e2d46756e6769626c6520546f610160527f6b656e20456d6f7465205265706f7369746f72790000000000000000000000006101805260e0805260016101a052603160f81b6101c05246610100523061012090815260a08190526101e06040529020905234801561009057600080fd5b506080516121c86100c76000396000818160fb01528181610abe01528181610bdf01528181610ed9015261117201526121c86000f3fe608060405234801561001057600080fd5b50600436106100b45760003560e01c80637d42e2bc116100715780637d42e2bc146101c257806381af4ca3146101d5578063a3a370b4146101e8578063b1495281146101fb578063dad998a61461020e578063ef0561411461025957600080fd5b806301ffc9a7146100b95780632d2ac944146100e15780633644e515146100f657806339e5c8f91461012b578063637b5d811461014b5780637595ecab146101a2575b600080fd5b6100cc6100c73660046117e3565b61026c565b60405190151581526020015b60405180910390f35b6100f46100ef366004611a1d565b6102a3565b005b61011d7f000000000000000000000000000000000000000000000000000000000000000081565b6040519081526020016100d8565b61013e610139366004611aca565b610712565b6040516100d89190611b6b565b6100cc610159366004611bb1565b6001600160a01b03808516600090815260208181526040808320938716835292815282822085835281528282206001600160e01b03198516835290522054600114949350505050565b6101b56101b0366004611bfe565b6108bf565b6040516100d89190611c86565b6101b56101d0366004611cbe565b610a1b565b6100f46101e3366004611da1565b610bba565b61011d6101f6366004611e2d565b610ed5565b6100f4610209366004611e82565b610f33565b61011d61021c366004611ec4565b6001600160a01b038316600090815260016020908152604080832085845282528083206001600160e01b0319851684529091529020549392505050565b6100f4610267366004611f62565b6110a7565b60006001600160e01b03198216636cfd62ad60e11b148061029d57506001600160e01b031982166301ffc9a760e01b145b92915050565b825184511415806102b657508151845114155b806102c357508051845114155b156102e15760405163395c70bb60e11b815260040160405180910390fd5b6000805b855181101561070a573360009081526020819052604081208751909190889084908110610314576103146120c7565b60200260200101516001600160a01b03166001600160a01b031681526020019081526020016000206000868381518110610350576103506120c7565b60200260200101518152602001908152602001600020600085838151811061037a5761037a6120c7565b60200260200101516001600160e01b0319166001600160e01b03191681526020019081526020016000205460011491508281815181106103bc576103bc6120c7565b6020026020010151151582151514610702578281815181106103e0576103e06120c7565b6020026020010151156104ae576001806000888481518110610404576104046120c7565b60200260200101516001600160a01b03166001600160a01b031681526020019081526020016000206000878481518110610440576104406120c7565b60200260200101518152602001908152602001600020600086848151811061046a5761046a6120c7565b60200260200101516001600160e01b0319166001600160e01b031916815260200190815260200160002060008282546104a391906120f3565b9091555061056a9050565b60018060008884815181106104c5576104c56120c7565b60200260200101516001600160a01b03166001600160a01b031681526020019081526020016000206000878481518110610501576105016120c7565b60200260200101518152602001908152602001600020600086848151811061052b5761052b6120c7565b60200260200101516001600160e01b0319166001600160e01b031916815260200190815260200160002060008282546105649190612106565b90915550505b82818151811061057c5761057c6120c7565b602002602001015161058f576000610592565b60015b60ff16600080336001600160a01b03166001600160a01b0316815260200190815260200160002060008884815181106105cd576105cd6120c7565b60200260200101516001600160a01b03166001600160a01b031681526020019081526020016000206000878481518110610609576106096120c7565b602002602001015181526020019081526020016000206000868481518110610633576106336120c7565b60200260200101516001600160e01b0319166001600160e01b031916815260200190815260200160002081905550848181518110610673576106736120c7565b602002602001015186828151811061068d5761068d6120c7565b60200260200101516001600160a01b0316336001600160a01b03166000805160206121738339815191528785815181106106c9576106c96120c7565b60200260200101518786815181106106e3576106e36120c7565b60200260200101516040516106f9929190612119565b60405180910390a45b6001016102e5565b505050505050565b60608351855114158061072757508251855114155b8061073457508151855114155b156107525760405163395c70bb60e11b815260040160405180910390fd5b6000845167ffffffffffffffff81111561076e5761076e611805565b604051908082528060200260200182016040528015610797578160200160208202803683370190505b50905060005b85518110156108b5576000808883815181106107bb576107bb6120c7565b60200260200101516001600160a01b03166001600160a01b0316815260200190815260200160002060008783815181106107f7576107f76120c7565b60200260200101516001600160a01b03166001600160a01b031681526020019081526020016000206000868381518110610833576108336120c7565b60200260200101518152602001908152602001600020600085838151811061085d5761085d6120c7565b60200260200101516001600160e01b0319166001600160e01b03191681526020019081526020016000205460011482828151811061089d5761089d6120c7565b9115156020928302919091019091015260010161079d565b5095945050505050565b6060825184511415806108d457508151845114155b156108f25760405163395c70bb60e11b815260040160405180910390fd5b6000845167ffffffffffffffff81111561090e5761090e611805565b604051908082528060200260200182016040528015610937578160200160208202803683370190505b50905060005b8551811015610a12576001600087838151811061095c5761095c6120c7565b60200260200101516001600160a01b03166001600160a01b031681526020019081526020016000206000868381518110610998576109986120c7565b6020026020010151815260200190815260200160002060008583815181106109c2576109c26120c7565b60200260200101516001600160e01b0319166001600160e01b0319168152602001908152602001600020548282815181106109ff576109ff6120c7565b602090810291909101015260010161093d565b50949350505050565b606084518651141580610a3057508351865114155b80610a3d57508251865114155b80610a4a57508151865114155b15610a685760405163395c70bb60e11b815260040160405180910390fd5b6000865167ffffffffffffffff811115610a8457610a84611805565b604051908082528060200260200182016040528015610aad578160200160208202803683370190505b50905060005b8751811015610baf577f0000000000000000000000000000000000000000000000000000000000000000888281518110610aef57610aef6120c7565b6020026020010151888381518110610b0957610b096120c7565b6020026020010151888481518110610b2357610b236120c7565b6020026020010151888581518110610b3d57610b3d6120c7565b6020026020010151888681518110610b5757610b576120c7565b6020026020010151604051602001610b7496959493929190612135565b60405160208183030381529060405280519060200120828281518110610b9c57610b9c6120c7565b6020908102919091010152600101610ab3565b509695505050505050565b83421115610bdb576040516368c38c9160e01b815260040160405180910390fd5b60007f00000000000000000000000000000000000000000000000000000000000000008989898989604051602001610c1896959493929190612135565b60408051601f198184030181529082905280516020918201207f19457468657265756d205369676e6564204d6573736167653a0a33320000000091830191909152603c820152605c0160408051601f198184030181528282528051602091820120600080855291840180845281905260ff88169284019290925260608301869052608083018590529092509060019060a0016020604051602081039080840390855afa158015610ccc573d6000803e3d6000fd5b5050506020604051035190508a6001600160a01b0316816001600160a01b031614610d0a57604051638baa579f60e01b815260040160405180910390fd5b6001600160a01b03808216600090815260208181526040808320938e1683529281528282208c835281528282206001600160e01b03198c168352905220546001148715158114610ec7578715610dab576001600160a01b038b1660009081526001602081815260408084208e855282528084206001600160e01b03198e1685529091528220805491929091610da09084906120f3565b90915550610df79050565b6001600160a01b038b1660009081526001602081815260408084208e855282528084206001600160e01b03198e1685529091528220805491929091610df1908490612106565b90915550505b87610e03576000610e06565b60015b60ff16600080846001600160a01b03166001600160a01b0316815260200190815260200160002060008d6001600160a01b03166001600160a01b0316815260200190815260200160002060008c815260200190815260200160002060008b6001600160e01b0319166001600160e01b031916815260200190815260200160002081905550898b6001600160a01b0316836001600160a01b03166000805160206121738339815191528c8c604051610ebe929190612119565b60405180910390a45b505050505050505050505050565b60007f00000000000000000000000000000000000000000000000000000000000000008686868686604051602001610f1296959493929190612135565b60405160208183030381529060405280519060200120905095945050505050565b336000908152602081815260408083206001600160a01b0388168452825280832086845282528083206001600160e01b03198616845290915290205460011481151581146110a0578115610fd2576001600160a01b038516600090815260016020818152604080842088855282528084206001600160e01b0319881685529091528220805491929091610fc79084906120f3565b9091555061101e9050565b6001600160a01b038516600090815260016020818152604080842088855282528084206001600160e01b0319881685529091528220805491929091611018908490612106565b90915550505b8161102a57600061102d565b60015b336000818152602081815260408083206001600160a01b038b168085529083528184208a855283528184206001600160e01b03198a1685529092529182902060ff949094169093555186929190600080516020612173833981519152906110979088908890612119565b60405180910390a45b5050505050565b875189511415806110ba57508651895114155b806110c757508551895114155b806110d457508451895114155b806110e157508351895114155b806110ee57508251895114155b806110fb57508151895114155b8061110857508051895114155b156111265760405163395c70bb60e11b815260040160405180910390fd5b6000806000805b8b518110156117b757878181518110611148576111486120c7565b6020026020010151421115611170576040516368c38c9160e01b815260040160405180910390fd5b7f00000000000000000000000000000000000000000000000000000000000000008c82815181106111a3576111a36120c7565b60200260200101518c83815181106111bd576111bd6120c7565b60200260200101518c84815181106111d7576111d76120c7565b60200260200101518c85815181106111f1576111f16120c7565b60200260200101518c868151811061120b5761120b6120c7565b602002602001015160405160200161122896959493929190612135565b60408051601f198184030181529082905280516020918201207f19457468657265756d205369676e6564204d6573736167653a0a33320000000091830191909152603c820152605c0160405160208183030381529060405280519060200120935060018488838151811061129e5761129e6120c7565b60200260200101518884815181106112b8576112b86120c7565b60200260200101518885815181106112d2576112d26120c7565b602002602001015160405160008152602001604052604051611310949392919093845260ff9290921660208401526040830152606082015260800190565b6020604051602081039080840390855afa158015611332573d6000803e3d6000fd5b5050506020604051035192508c8181518110611350576113506120c7565b60200260200101516001600160a01b0316836001600160a01b03161461138957604051638baa579f60e01b815260040160405180910390fd5b600080846001600160a01b03166001600160a01b0316815260200190815260200160002060008d83815181106113c1576113c16120c7565b60200260200101516001600160a01b03166001600160a01b0316815260200190815260200160002060008c83815181106113fd576113fd6120c7565b6020026020010151815260200190815260200160002060008b8381518110611427576114276120c7565b60200260200101516001600160e01b0319166001600160e01b0319168152602001908152602001600020546001149150888181518110611469576114696120c7565b60200260200101511515821515146117af5788818151811061148d5761148d6120c7565b60200260200101511561155b5760018060008e84815181106114b1576114b16120c7565b60200260200101516001600160a01b03166001600160a01b0316815260200190815260200160002060008d84815181106114ed576114ed6120c7565b6020026020010151815260200190815260200160002060008c8481518110611517576115176120c7565b60200260200101516001600160e01b0319166001600160e01b0319168152602001908152602001600020600082825461155091906120f3565b909155506116179050565b60018060008e8481518110611572576115726120c7565b60200260200101516001600160a01b03166001600160a01b0316815260200190815260200160002060008d84815181106115ae576115ae6120c7565b6020026020010151815260200190815260200160002060008c84815181106115d8576115d86120c7565b60200260200101516001600160e01b0319166001600160e01b031916815260200190815260200160002060008282546116119190612106565b90915550505b888181518110611629576116296120c7565b602002602001015161163c57600061163f565b60015b60ff16600080856001600160a01b03166001600160a01b0316815260200190815260200160002060008e848151811061167a5761167a6120c7565b60200260200101516001600160a01b03166001600160a01b0316815260200190815260200160002060008d84815181106116b6576116b66120c7565b6020026020010151815260200190815260200160002060008c84815181106116e0576116e06120c7565b60200260200101516001600160e01b0319166001600160e01b0319168152602001908152602001600020819055508a8181518110611720576117206120c7565b60200260200101518c828151811061173a5761173a6120c7565b60200260200101516001600160a01b0316846001600160a01b03166000805160206121738339815191528d8581518110611776576117766120c7565b60200260200101518d8681518110611790576117906120c7565b60200260200101516040516117a6929190612119565b60405180910390a45b60010161112d565b50505050505050505050505050565b80356001600160e01b0319811681146117de57600080fd5b919050565b6000602082840312156117f557600080fd5b6117fe826117c6565b9392505050565b634e487b7160e01b600052604160045260246000fd5b604051601f8201601f1916810167ffffffffffffffff8111828210171561184457611844611805565b604052919050565b600067ffffffffffffffff82111561186657611866611805565b5060051b60200190565b80356001600160a01b03811681146117de57600080fd5b600082601f83011261189857600080fd5b813560206118ad6118a88361184c565b61181b565b82815260059290921b840181019181810190868411156118cc57600080fd5b8286015b84811015610baf576118e181611870565b83529183019183016118d0565b600082601f8301126118ff57600080fd5b8135602061190f6118a88361184c565b82815260059290921b8401810191818101908684111561192e57600080fd5b8286015b84811015610baf5780358352918301918301611932565b600082601f83011261195a57600080fd5b8135602061196a6118a88361184c565b82815260059290921b8401810191818101908684111561198957600080fd5b8286015b84811015610baf5761199e816117c6565b835291830191830161198d565b803580151581146117de57600080fd5b600082601f8301126119cc57600080fd5b813560206119dc6118a88361184c565b82815260059290921b840181019181810190868411156119fb57600080fd5b8286015b84811015610baf57611a10816119ab565b83529183019183016119ff565b60008060008060808587031215611a3357600080fd5b843567ffffffffffffffff80821115611a4b57600080fd5b611a5788838901611887565b95506020870135915080821115611a6d57600080fd5b611a79888389016118ee565b94506040870135915080821115611a8f57600080fd5b611a9b88838901611949565b93506060870135915080821115611ab157600080fd5b50611abe878288016119bb565b91505092959194509250565b60008060008060808587031215611ae057600080fd5b843567ffffffffffffffff80821115611af857600080fd5b611b0488838901611887565b95506020870135915080821115611b1a57600080fd5b611b2688838901611887565b94506040870135915080821115611b3c57600080fd5b611b48888389016118ee565b93506060870135915080821115611b5e57600080fd5b50611abe87828801611949565b6020808252825182820181905260009190848201906040850190845b81811015611ba5578351151583529284019291840191600101611b87565b50909695505050505050565b60008060008060808587031215611bc757600080fd5b611bd085611870565b9350611bde60208601611870565b925060408501359150611bf3606086016117c6565b905092959194509250565b600080600060608486031215611c1357600080fd5b833567ffffffffffffffff80821115611c2b57600080fd5b611c3787838801611887565b94506020860135915080821115611c4d57600080fd5b611c59878388016118ee565b93506040860135915080821115611c6f57600080fd5b50611c7c86828701611949565b9150509250925092565b6020808252825182820181905260009190848201906040850190845b81811015611ba557835183529284019291840191600101611ca2565b600080600080600060a08688031215611cd657600080fd5b853567ffffffffffffffff80821115611cee57600080fd5b611cfa89838a01611887565b96506020880135915080821115611d1057600080fd5b611d1c89838a016118ee565b95506040880135915080821115611d3257600080fd5b611d3e89838a01611949565b94506060880135915080821115611d5457600080fd5b611d6089838a016119bb565b93506080880135915080821115611d7657600080fd5b50611d83888289016118ee565b9150509295509295909350565b803560ff811681146117de57600080fd5b60008060008060008060008060006101208a8c031215611dc057600080fd5b611dc98a611870565b9850611dd760208b01611870565b975060408a01359650611dec60608b016117c6565b9550611dfa60808b016119ab565b945060a08a01359350611e0f60c08b01611d90565b925060e08a013591506101008a013590509295985092959850929598565b600080600080600060a08688031215611e4557600080fd5b611e4e86611870565b945060208601359350611e63604087016117c6565b9250611e71606087016119ab565b949793965091946080013592915050565b60008060008060808587031215611e9857600080fd5b611ea185611870565b935060208501359250611eb6604086016117c6565b9150611bf3606086016119ab565b600080600060608486031215611ed957600080fd5b611ee284611870565b925060208401359150611ef7604085016117c6565b90509250925092565b600082601f830112611f1157600080fd5b81356020611f216118a88361184c565b82815260059290921b84018101918181019086841115611f4057600080fd5b8286015b84811015610baf57611f5581611d90565b8352918301918301611f44565b60008060008060008060008060006101208a8c031215611f8157600080fd5b893567ffffffffffffffff80821115611f9957600080fd5b611fa58d838e01611887565b9a5060208c0135915080821115611fbb57600080fd5b611fc78d838e01611887565b995060408c0135915080821115611fdd57600080fd5b611fe98d838e016118ee565b985060608c0135915080821115611fff57600080fd5b61200b8d838e01611949565b975060808c013591508082111561202157600080fd5b61202d8d838e016119bb565b965060a08c013591508082111561204357600080fd5b61204f8d838e016118ee565b955060c08c013591508082111561206557600080fd5b6120718d838e01611f00565b945060e08c013591508082111561208757600080fd5b6120938d838e016118ee565b93506101008c01359150808211156120aa57600080fd5b506120b78c828d016118ee565b9150509295985092959850929598565b634e487b7160e01b600052603260045260246000fd5b634e487b7160e01b600052601160045260246000fd5b8082018082111561029d5761029d6120dd565b8181038181111561029d5761029d6120dd565b6001600160e01b03199290921682521515602082015260400190565b9586526001600160a01b0394909416602086015260408501929092526001600160e01b03191660608401521515608083015260a082015260c0019056fe6b0e468bf8d2b303be2f302153e4c5d06cdf1fc436eab9e127e482dc596dc0b7a264697066735822122045e3f8894b96bd3714d36f4a2aa4365a65a4ff7eba56c2478a0e80bcc734e33364736f6c63430008130033",
  "linkReferences": {},
  "deployedLinkReferences": {}
}