{"contracts/Emoji.sol":{"Emoji":{"abi":[{"inputs":[],"name":"BulkParametersOfUnequalLength","type":"error"},{"inputs":[],"name":"ExpiredPresignedEmote","type":"error"},{"inputs":[],"name":"InvalidSignature","type":"error"},{"anonymous":false,"inputs":[{"indexed":true,"internalType":"address","name":"emoter","type":"address"},{"indexed":true,"internalType":"address","name":"collection","type":"address"},{"indexed":true,"internalType":"uint256","name":"tokenId","type":"uint256"},{"indexed":false,"internalType":"bytes4","name":"emoji","type":"bytes4"},{"indexed":false,"internalType":"bool","name":"on","type":"bool"}],"name":"Emoted","type":"event"},{"inputs":[],"name":"DOMAIN_SEPARATOR","outputs":[{"internalType":"bytes32","name":"","type":"bytes32"}],"stateMutability":"view","type":"function"},{"inputs":[{"internalType":"address[]","name":"collections","type":"address[]"},{"internalType":"uint256[]","name":"tokenIds","type":"uint256[]"},{"internalType":"bytes4[]","name":"emojis","type":"bytes4[]"},{"internalType":"bool[]","name":"states","type":"bool[]"}],"name":"bulkEmote","outputs":[],"stateMutability":"nonpayable","type":"function"},{"inputs":[{"internalType":"address[]","name":"collections","type":"address[]"},{"internalType":"uint256[]","name":"tokenIds","type":"uint256[]"},{"internalType":"bytes4[]","name":"emojis","type":"bytes4[]"}],"name":"bulkEmoteCountOf","outputs":[{"internalType":"uint256[]","name":"","type":"uint256[]"}],"stateMutability":"view","type":"function"},{"inputs":[{"internalType":"address[]","name":"collections","type":"address[]"},{"internalType":"uint256[]","name":"tokenIds","type":"uint256[]"},{"internalType":"bytes4[]","name":"emojis","type":"bytes4[]"},{"internalType":"bool[]","name":"states","type":"bool[]"},{"internalType":"uint256[]","name":"deadlines","type":"uint256[]"}],"name":"bulkPrepareMessagesToPresignEmote","outputs":[{"internalType":"bytes32[]","name":"","type":"bytes32[]"}],"stateMutability":"view","type":"function"},{"inputs":[{"internalType":"address[]","name":"emoters","type":"address[]"},{"internalType":"address[]","name":"collections","type":"address[]"},{"internalType":"uint256[]","name":"tokenIds","type":"uint256[]"},{"internalType":"bytes4[]","name":"emojis","type":"bytes4[]"},{"internalType":"bool[]","name":"states","type":"bool[]"},{"internalType":"uint256[]","name":"deadlines","type":"uint256[]"},{"internalType":"uint8[]","name":"v","type":"uint8[]"},{"internalType":"bytes32[]","name":"r","type":"bytes32[]"},{"internalType":"bytes32[]","name":"s","type":"bytes32[]"}],"name":"bulkPresignedEmote","outputs":[],"stateMutability":"nonpayable","type":"function"},{"inputs":[{"internalType":"address","name":"collection","type":"address"},{"internalType":"uint256","name":"tokenId","type":"uint256"},{"internalType":"bytes4","name":"emoji","type":"bytes4"},{"internalType":"bool","name":"state","type":"bool"}],"name":"emote","outputs":[],"stateMutability":"nonpayable","type":"function"},{"inputs":[{"internalType":"address","name":"collection","type":"address"},{"internalType":"uint256","name":"tokenId","type":"uint256"},{"internalType":"bytes4","name":"emoji","type":"bytes4"}],"name":"emoteCountOf","outputs":[{"internalType":"uint256","name":"","type":"uint256"}],"stateMutability":"view","type":"function"},{"inputs":[{"internalType":"address","name":"emoter","type":"address"},{"internalType":"address","name":"collection","type":"address"},{"internalType":"uint256","name":"tokenId","type":"uint256"},{"internalType":"bytes4","name":"emoji","type":"bytes4"}],"name":"hasEmoterUsedEmote","outputs":[{"internalType":"bool","name":"","type":"bool"}],"stateMutability":"view","type":"function"},{"inputs":[{"internalType":"address[]","name":"emoters","type":"address[]"},{"internalType":"address[]","name":"collections","type":"address[]"},{"internalType":"uint256[]","name":"tokenIds","type":"uint256[]"},{"internalType":"bytes4[]","name":"emojis","type":"bytes4[]"}],"name":"haveEmotersUsedEmotes","outputs":[{"internalType":"bool[]","name":"","type":"bool[]"}],"stateMutability":"view","type":"function"},{"inputs":[{"internalType":"address","name":"collection","type":"address"},{"internalType":"uint256","name":"tokenId","type":"uint256"},{"internalType":"bytes4","name":"emoji","type":"bytes4"},{"internalType":"bool","name":"state","type":"bool"},{"internalType":"uint256","name":"deadline","type":"uint256"}],"name":"prepareMessageToPresignEmote","outputs":[{"internalType":"bytes32","name":"","type":"bytes32"}],"stateMutability":"view","type":"function"},{"inputs":[{"internalType":"address","name":"emoter","type":"address"},{"internalType":"address","name":"collection","type":"address"},{"internalType":"uint256","name":"tokenId","type":"uint256"},{"internalType":"bytes4","name":"emoji","type":"bytes4"},{"internalType":"bool","name":"state","type":"bool"},{"internalType":"uint256","name":"deadline","type":"uint256"},{"internalType":"uint8","name":"v","type":"uint8"},{"internalType":"bytes32","name":"r","type":"bytes32"},{"internalType":"bytes32","name":"s","type":"bytes32"}],"name":"presignedEmote","outputs":[],"stateMutability":"nonpayable","type":"function"},{"inputs":[{"internalType":"bytes4","name":"interfaceId","type":"bytes4"}],"name":"supportsInterface","outputs":[{"internalType":"bool","name":"","type":"bool"}],"stateMutability":"view","type":"function"}],"evm":{"bytecode":{"linkReferences":{},"object":"608060c08181526034610140527f4552432d363338313a205075626c6963204e6f6e2d46756e6769626c6520546f610160527f6b656e20456d6f7465205265706f7369746f72790000000000000000000000006101805260e0805260016101a052603160f81b6101c05246610100523061012090815260a08190526101e06040529020905234801561009057600080fd5b506080516121c86100c76000396000818160fb01528181610abe01528181610bdf01528181610ed9015261117201526121c86000f3fe608060405234801561001057600080fd5b50600436106100b45760003560e01c80637d42e2bc116100715780637d42e2bc146101c257806381af4ca3146101d5578063a3a370b4146101e8578063b1495281146101fb578063dad998a61461020e578063ef0561411461025957600080fd5b806301ffc9a7146100b95780632d2ac944146100e15780633644e515146100f657806339e5c8f91461012b578063637b5d811461014b5780637595ecab146101a2575b600080fd5b6100cc6100c73660046117e3565b61026c565b60405190151581526020015b60405180910390f35b6100f46100ef366004611a1d565b6102a3565b005b61011d7f000000000000000000000000000000000000000000000000000000000000000081565b6040519081526020016100d8565b61013e610139366004611aca565b610712565b6040516100d89190611b6b565b6100cc610159366004611bb1565b6001600160a01b03808516600090815260208181526040808320938716835292815282822085835281528282206001600160e01b03198516835290522054600114949350505050565b6101b56101b0366004611bfe565b6108bf565b6040516100d89190611c86565b6101b56101d0366004611cbe565b610a1b565b6100f46101e3366004611da1565b610bba565b61011d6101f6366004611e2d565b610ed5565b6100f4610209366004611e82565b610f33565b61011d61021c366004611ec4565b6001600160a01b038316600090815260016020908152604080832085845282528083206001600160e01b0319851684529091529020549392505050565b6100f4610267366004611f62565b6110a7565b60006001600160e01b03198216636cfd62ad60e11b148061029d57506001600160e01b031982166301ffc9a760e01b145b92915050565b825184511415806102b657508151845114155b806102c357508051845114155b156102e15760405163395c70bb60e11b815260040160405180910390fd5b6000805b855181101561070a573360009081526020819052604081208751909190889084908110610314576103146120c7565b60200260200101516001600160a01b03166001600160a01b031681526020019081526020016000206000868381518110610350576103506120c7565b60200260200101518152602001908152602001600020600085838151811061037a5761037a6120c7565b60200260200101516001600160e01b0319166001600160e01b03191681526020019081526020016000205460011491508281815181106103bc576103bc6120c7565b6020026020010151151582151514610702578281815181106103e0576103e06120c7565b6020026020010151156104ae576001806000888481518110610404576104046120c7565b60200260200101516001600160a01b03166001600160a01b031681526020019081526020016000206000878481518110610440576104406120c7565b60200260200101518152602001908152602001600020600086848151811061046a5761046a6120c7565b60200260200101516001600160e01b0319166001600160e01b031916815260200190815260200160002060008282546104a391906120f3565b9091555061056a9050565b60018060008884815181106104c5576104c56120c7565b60200260200101516001600160a01b03166001600160a01b031681526020019081526020016000206000878481518110610501576105016120c7565b60200260200101518152602001908152602001600020600086848151811061052b5761052b6120c7565b60200260200101516001600160e01b0319166001600160e01b031916815260200190815260200160002060008282546105649190612106565b90915550505b82818151811061057c5761057c6120c7565b602002602001015161058f576000610592565b60015b60ff16600080336001600160a01b03166001600160a01b0316815260200190815260200160002060008884815181106105cd576105cd6120c7565b60200260200101516001600160a01b03166001600160a01b031681526020019081526020016000206000878481518110610609576106096120c7565b602002602001015181526020019081526020016000206000868481518110610633576106336120c7565b60200260200101516001600160e01b0319166001600160e01b031916815260200190815260200160002081905550848181518110610673576106736120c7565b602002602001015186828151811061068d5761068d6120c7565b60200260200101516001600160a01b0316336001600160a01b03166000805160206121738339815191528785815181106106c9576106c96120c7565b60200260200101518786815181106106e3576106e36120c7565b60200260200101516040516106f9929190612119565b60405180910390a45b6001016102e5565b505050505050565b60608351855114158061072757508251855114155b8061073457508151855114155b156107525760405163395c70bb60e11b815260040160405180910390fd5b6000845167ffffffffffffffff81111561076e5761076e611805565b604051908082528060200260200182016040528015610797578160200160208202803683370190505b50905060005b85518110156108b5576000808883815181106107bb576107bb6120c7565b60200260200101516001600160a01b03166001600160a01b0316815260200190815260200160002060008783815181106107f7576107f76120c7565b60200260200101516001600160a01b03166001600160a01b031681526020019081526020016000206000868381518110610833576108336120c7565b60200260200101518152602001908152602001600020600085838151811061085d5761085d6120c7565b60200260200101516001600160e01b0319166001600160e01b03191681526020019081526020016000205460011482828151811061089d5761089d6120c7565b9115156020928302919091019091015260010161079d565b5095945050505050565b6060825184511415806108d457508151845114155b156108f25760405163395c70bb60e11b815260040160405180910390fd5b6000845167ffffffffffffffff81111561090e5761090e611805565b604051908082528060200260200182016040528015610937578160200160208202803683370190505b50905060005b8551811015610a12576001600087838151811061095c5761095c6120c7565b60200260200101516001600160a01b03166001600160a01b031681526020019081526020016000206000868381518110610998576109986120c7565b6020026020010151815260200190815260200160002060008583815181106109c2576109c26120c7565b60200260200101516001600160e01b0319166001600160e01b0319168152602001908152602001600020548282815181106109ff576109ff6120c7565b602090810291909101015260010161093d565b50949350505050565b606084518651141580610a3057508351865114155b80610a3d57508251865114155b80610a4a57508151865114155b15610a685760405163395c70bb60e11b815260040160405180910390fd5b6000865167ffffffffffffffff811115610a8457610a84611805565b604051908082528060200260200182016040528015610aad578160200160208202803683370190505b50905060005b8751811015610baf577f0000000000000000000000000000000000000000000000000000000000000000888281518110610aef57610aef6120c7565b6020026020010151888381518110610b0957610b096120c7565b6020026020010151888481518110610b2357610b236120c7565b6020026020010151888581518110610b3d57610b3d6120c7565b6020026020010151888681518110610b5757610b576120c7565b6020026020010151604051602001610b7496959493929190612135565b60405160208183030381529060405280519060200120828281518110610b9c57610b9c6120c7565b6020908102919091010152600101610ab3565b509695505050505050565b83421115610bdb576040516368c38c9160e01b815260040160405180910390fd5b60007f00000000000000000000000000000000000000000000000000000000000000008989898989604051602001610c1896959493929190612135565b60408051601f198184030181529082905280516020918201207f19457468657265756d205369676e6564204d6573736167653a0a33320000000091830191909152603c820152605c0160408051601f198184030181528282528051602091820120600080855291840180845281905260ff88169284019290925260608301869052608083018590529092509060019060a0016020604051602081039080840390855afa158015610ccc573d6000803e3d6000fd5b5050506020604051035190508a6001600160a01b0316816001600160a01b031614610d0a57604051638baa579f60e01b815260040160405180910390fd5b6001600160a01b03808216600090815260208181526040808320938e1683529281528282208c835281528282206001600160e01b03198c168352905220546001148715158114610ec7578715610dab576001600160a01b038b1660009081526001602081815260408084208e855282528084206001600160e01b03198e1685529091528220805491929091610da09084906120f3565b90915550610df79050565b6001600160a01b038b1660009081526001602081815260408084208e855282528084206001600160e01b03198e1685529091528220805491929091610df1908490612106565b90915550505b87610e03576000610e06565b60015b60ff16600080846001600160a01b03166001600160a01b0316815260200190815260200160002060008d6001600160a01b03166001600160a01b0316815260200190815260200160002060008c815260200190815260200160002060008b6001600160e01b0319166001600160e01b031916815260200190815260200160002081905550898b6001600160a01b0316836001600160a01b03166000805160206121738339815191528c8c604051610ebe929190612119565b60405180910390a45b505050505050505050505050565b60007f00000000000000000000000000000000000000000000000000000000000000008686868686604051602001610f1296959493929190612135565b60405160208183030381529060405280519060200120905095945050505050565b336000908152602081815260408083206001600160a01b0388168452825280832086845282528083206001600160e01b03198616845290915290205460011481151581146110a0578115610fd2576001600160a01b038516600090815260016020818152604080842088855282528084206001600160e01b0319881685529091528220805491929091610fc79084906120f3565b9091555061101e9050565b6001600160a01b038516600090815260016020818152604080842088855282528084206001600160e01b0319881685529091528220805491929091611018908490612106565b90915550505b8161102a57600061102d565b60015b336000818152602081815260408083206001600160a01b038b168085529083528184208a855283528184206001600160e01b03198a1685529092529182902060ff949094169093555186929190600080516020612173833981519152906110979088908890612119565b60405180910390a45b5050505050565b875189511415806110ba57508651895114155b806110c757508551895114155b806110d457508451895114155b806110e157508351895114155b806110ee57508251895114155b806110fb57508151895114155b8061110857508051895114155b156111265760405163395c70bb60e11b815260040160405180910390fd5b6000806000805b8b518110156117b757878181518110611148576111486120c7565b6020026020010151421115611170576040516368c38c9160e01b815260040160405180910390fd5b7f00000000000000000000000000000000000000000000000000000000000000008c82815181106111a3576111a36120c7565b60200260200101518c83815181106111bd576111bd6120c7565b60200260200101518c84815181106111d7576111d76120c7565b60200260200101518c85815181106111f1576111f16120c7565b60200260200101518c868151811061120b5761120b6120c7565b602002602001015160405160200161122896959493929190612135565b60408051601f198184030181529082905280516020918201207f19457468657265756d205369676e6564204d6573736167653a0a33320000000091830191909152603c820152605c0160405160208183030381529060405280519060200120935060018488838151811061129e5761129e6120c7565b60200260200101518884815181106112b8576112b86120c7565b60200260200101518885815181106112d2576112d26120c7565b602002602001015160405160008152602001604052604051611310949392919093845260ff9290921660208401526040830152606082015260800190565b6020604051602081039080840390855afa158015611332573d6000803e3d6000fd5b5050506020604051035192508c8181518110611350576113506120c7565b60200260200101516001600160a01b0316836001600160a01b03161461138957604051638baa579f60e01b815260040160405180910390fd5b600080846001600160a01b03166001600160a01b0316815260200190815260200160002060008d83815181106113c1576113c16120c7565b60200260200101516001600160a01b03166001600160a01b0316815260200190815260200160002060008c83815181106113fd576113fd6120c7565b6020026020010151815260200190815260200160002060008b8381518110611427576114276120c7565b60200260200101516001600160e01b0319166001600160e01b0319168152602001908152602001600020546001149150888181518110611469576114696120c7565b60200260200101511515821515146117af5788818151811061148d5761148d6120c7565b60200260200101511561155b5760018060008e84815181106114b1576114b16120c7565b60200260200101516001600160a01b03166001600160a01b0316815260200190815260200160002060008d84815181106114ed576114ed6120c7565b6020026020010151815260200190815260200160002060008c8481518110611517576115176120c7565b60200260200101516001600160e01b0319166001600160e01b0319168152602001908152602001600020600082825461155091906120f3565b909155506116179050565b60018060008e8481518110611572576115726120c7565b60200260200101516001600160a01b03166001600160a01b0316815260200190815260200160002060008d84815181106115ae576115ae6120c7565b6020026020010151815260200190815260200160002060008c84815181106115d8576115d86120c7565b60200260200101516001600160e01b0319166001600160e01b031916815260200190815260200160002060008282546116119190612106565b90915550505b888181518110611629576116296120c7565b602002602001015161163c57600061163f565b60015b60ff16600080856001600160a01b03166001600160a01b0316815260200190815260200160002060008e848151811061167a5761167a6120c7565b60200260200101516001600160a01b03166001600160a01b0316815260200190815260200160002060008d84815181106116b6576116b66120c7565b6020026020010151815260200190815260200160002060008c84815181106116e0576116e06120c7565b60200260200101516001600160e01b0319166001600160e01b0319168152602001908152602001600020819055508a8181518110611720576117206120c7565b60200260200101518c828151811061173a5761173a6120c7565b60200260200101516001600160a01b0316846001600160a01b03166000805160206121738339815191528d8581518110611776576117766120c7565b60200260200101518d8681518110611790576117906120c7565b60200260200101516040516117a6929190612119565b60405180910390a45b60010161112d565b50505050505050505050505050565b80356001600160e01b0319811681146117de57600080fd5b919050565b6000602082840312156117f557600080fd5b6117fe826117c6565b9392505050565b634e487b7160e01b600052604160045260246000fd5b604051601f8201601f1916810167ffffffffffffffff8111828210171561184457611844611805565b604052919050565b600067ffffffffffffffff82111561186657611866611805565b5060051b60200190565b80356001600160a01b03811681146117de57600080fd5b600082601f83011261189857600080fd5b813560206118ad6118a88361184c565b61181b565b82815260059290921b840181019181810190868411156118cc57600080fd5b8286015b84811015610baf576118e181611870565b83529183019183016118d0565b600082601f8301126118ff57600080fd5b8135602061190f6118a88361184c565b82815260059290921b8401810191818101908684111561192e57600080fd5b8286015b84811015610baf5780358352918301918301611932565b600082601f83011261195a57600080fd5b8135602061196a6118a88361184c565b82815260059290921b8401810191818101908684111561198957600080fd5b8286015b84811015610baf5761199e816117c6565b835291830191830161198d565b803580151581146117de57600080fd5b600082601f8301126119cc57600080fd5b813560206119dc6118a88361184c565b82815260059290921b840181019181810190868411156119fb57600080fd5b8286015b84811015610baf57611a10816119ab565b83529183019183016119ff565b60008060008060808587031215611a3357600080fd5b843567ffffffffffffffff80821115611a4b57600080fd5b611a5788838901611887565b95506020870135915080821115611a6d57600080fd5b611a79888389016118ee565b94506040870135915080821115611a8f57600080fd5b611a9b88838901611949565b93506060870135915080821115611ab157600080fd5b50611abe878288016119bb565b91505092959194509250565b60008060008060808587031215611ae057600080fd5b843567ffffffffffffffff80821115611af857600080fd5b611b0488838901611887565b95506020870135915080821115611b1a57600080fd5b611b2688838901611887565b94506040870135915080821115611b3c57600080fd5b611b48888389016118ee565b93506060870135915080821115611b5e57600080fd5b50611abe87828801611949565b6020808252825182820181905260009190848201906040850190845b81811015611ba5578351151583529284019291840191600101611b87565b50909695505050505050565b60008060008060808587031215611bc757600080fd5b611bd085611870565b9350611bde60208601611870565b925060408501359150611bf3606086016117c6565b905092959194509250565b600080600060608486031215611c1357600080fd5b833567ffffffffffffffff80821115611c2b57600080fd5b611c3787838801611887565b94506020860135915080821115611c4d57600080fd5b611c59878388016118ee565b93506040860135915080821115611c6f57600080fd5b50611c7c86828701611949565b9150509250925092565b6020808252825182820181905260009190848201906040850190845b81811015611ba557835183529284019291840191600101611ca2565b600080600080600060a08688031215611cd657600080fd5b853567ffffffffffffffff80821115611cee57600080fd5b611cfa89838a01611887565b96506020880135915080821115611d1057600080fd5b611d1c89838a016118ee565b95506040880135915080821115611d3257600080fd5b611d3e89838a01611949565b94506060880135915080821115611d5457600080fd5b611d6089838a016119bb565b93506080880135915080821115611d7657600080fd5b50611d83888289016118ee565b9150509295509295909350565b803560ff811681146117de57600080fd5b60008060008060008060008060006101208a8c031215611dc057600080fd5b611dc98a611870565b9850611dd760208b01611870565b975060408a01359650611dec60608b016117c6565b9550611dfa60808b016119ab565b945060a08a01359350611e0f60c08b01611d90565b925060e08a013591506101008a013590509295985092959850929598565b600080600080600060a08688031215611e4557600080fd5b611e4e86611870565b945060208601359350611e63604087016117c6565b9250611e71606087016119ab565b949793965091946080013592915050565b60008060008060808587031215611e9857600080fd5b611ea185611870565b935060208501359250611eb6604086016117c6565b9150611bf3606086016119ab565b600080600060608486031215611ed957600080fd5b611ee284611870565b925060208401359150611ef7604085016117c6565b90509250925092565b600082601f830112611f1157600080fd5b81356020611f216118a88361184c565b82815260059290921b84018101918181019086841115611f4057600080fd5b8286015b84811015610baf57611f5581611d90565b8352918301918301611f44565b60008060008060008060008060006101208a8c031215611f8157600080fd5b893567ffffffffffffffff80821115611f9957600080fd5b611fa58d838e01611887565b9a5060208c0135915080821115611fbb57600080fd5b611fc78d838e01611887565b995060408c0135915080821115611fdd57600080fd5b611fe98d838e016118ee565b985060608c0135915080821115611fff57600080fd5b61200b8d838e01611949565b975060808c013591508082111561202157600080fd5b61202d8d838e016119bb565b965060a08c013591508082111561204357600080fd5b61204f8d838e016118ee565b955060c08c013591508082111561206557600080fd5b6120718d838e01611f00565b945060e08c013591508082111561208757600080fd5b6120938d838e016118ee565b93506101008c01359150808211156120aa57600080fd5b506120b78c828d016118ee565b9150509295985092959850929598565b634e487b7160e01b600052603260045260246000fd5b634e487b7160e01b600052601160045260246000fd5b8082018082111561029d5761029d6120dd565b8181038181111561029d5761029d6120dd565b6001600160e01b03199290921682521515602082015260400190565b9586526001600160a01b0394909416602086015260408501929092526001600160e01b03191660608401521515608083015260a082015260c0019056fe6b0e468bf8d2b303be2f302153e4c5d06cdf1fc436eab9e127e482dc596dc0b7a264697066735822122045e3f8894b96bd3714d36f4a2aa4365a65a4ff7eba56c2478a0e80bcc734e33364736f6c63430008130033","opcodes":"PUSH1 0x80 PUSH1 0xC0 DUP2 DUP2 MSTORE PUSH1 0x34 PUSH2 0x140 MSTORE PUSH32 0x4552432D363338313A205075626C6963204E6F6E2D46756E6769626C6520546F PUSH2 0x160 MSTORE PUSH32 0x6B656E20456D6F7465205265706F7369746F7279000000000000000000000000 PUSH2 0x180 MSTORE PUSH1 0xE0 DUP1 MSTORE PUSH1 0x1 PUSH2 0x1A0 MSTORE PUSH1 0x31 PUSH1 0xF8 SHL PUSH2 0x1C0 MSTORE CHAINID PUSH2 0x100 MSTORE ADDRESS PUSH2 0x120 SWAP1 DUP2 MSTORE PUSH1 0xA0 DUP2 SWAP1 MSTORE PUSH2 0x1E0 PUSH1 0x40 MSTORE SWAP1 KECCAK256 SWAP1 MSTORE CALLVALUE DUP1 ISZERO PUSH2 0x90 JUMPI PUSH1 0x0 DUP1 REVERT JUMPDEST POP PUSH1 0x80 MLOAD PUSH2 0x21C8 PUSH2 0xC7 PUSH1 0x0 CODECOPY PUSH1 0x0 DUP2 DUP2 PUSH1 0xFB ADD MSTORE DUP2 DUP2 PUSH2 0xABE ADD MSTORE DUP2 DUP2 PUSH2 0xBDF ADD MSTORE DUP2 DUP2 PUSH2 0xED9 ADD MSTORE PUSH2 0x1172 ADD MSTORE PUSH2 0x21C8 PUSH1 0x0 RETURN INVALID PUSH1 0x80 PUSH1 0x40 MSTORE CALLVALUE DUP1 ISZERO PUSH2 0x10 JUMPI PUSH1 0x0 DUP1 REVERT JUMPDEST POP PUSH1 0x4 CALLDATASIZE LT PUSH2 0xB4 JUMPI PUSH1 0x0 CALLDATALOAD PUSH1 0xE0 SHR DUP1 PUSH4 0x7D42E2BC GT PUSH2 0x71 JUMPI DUP1 PUSH4 0x7D42E2BC EQ PUSH2 0x1C2 JUMPI DUP1 PUSH4 0x81AF4CA3 EQ PUSH2 0x1D5 JUMPI DUP1 PUSH4 0xA3A370B4 EQ PUSH2 0x1E8 JUMPI DUP1 PUSH4 0xB1495281 EQ PUSH2 0x1FB JUMPI DUP1 PUSH4 0xDAD998A6 EQ PUSH2 0x20E JUMPI DUP1 PUSH4 0xEF056141 EQ PUSH2 0x259 JUMPI PUSH1 0x0 DUP1 REVERT JUMPDEST DUP1 PUSH4 0x1FFC9A7 EQ PUSH2 0xB9 JUMPI DUP1 PUSH4 0x2D2AC944 EQ PUSH2 0xE1 JUMPI DUP1 PUSH4 0x3644E515 EQ PUSH2 0xF6 JUMPI DUP1 PUSH4 0x39E5C8F9 EQ PUSH2 0x12B JUMPI DUP1 PUSH4 0x637B5D81 EQ PUSH2 0x14B JUMPI DUP1 PUSH4 0x7595ECAB EQ PUSH2 0x1A2 JUMPI JUMPDEST PUSH1 0x0 DUP1 REVERT JUMPDEST PUSH2 0xCC PUSH2 0xC7 CALLDATASIZE PUSH1 0x4 PUSH2 0x17E3 JUMP JUMPDEST PUSH2 0x26C JUMP JUMPDEST PUSH1 0x40 MLOAD SWAP1 ISZERO ISZERO DUP2 MSTORE PUSH1 0x20 ADD JUMPDEST PUSH1 0x40 MLOAD DUP1 SWAP2 SUB SWAP1 RETURN JUMPDEST PUSH2 0xF4 PUSH2 0xEF CALLDATASIZE PUSH1 0x4 PUSH2 0x1A1D JUMP JUMPDEST PUSH2 0x2A3 JUMP JUMPDEST STOP JUMPDEST PUSH2 0x11D PUSH32 0x0 DUP2 JUMP JUMPDEST PUSH1 0x40 MLOAD SWAP1 DUP2 MSTORE PUSH1 0x20 ADD PUSH2 0xD8 JUMP JUMPDEST PUSH2 0x13E PUSH2 0x139 CALLDATASIZE PUSH1 0x4 PUSH2 0x1ACA JUMP JUMPDEST PUSH2 0x712 JUMP JUMPDEST PUSH1 0x40 MLOAD PUSH2 0xD8 SWAP2 SWAP1 PUSH2 0x1B6B JUMP JUMPDEST PUSH2 0xCC PUSH2 0x159 CALLDATASIZE PUSH1 0x4 PUSH2 0x1BB1 JUMP JUMPDEST PUSH1 0x1 PUSH1 0x1 PUSH1 0xA0 SHL SUB DUP1 DUP6 AND PUSH1 0x0 SWAP1 DUP2 MSTORE PUSH1 0x20 DUP2 DUP2 MSTORE PUSH1 0x40 DUP1 DUP4 KECCAK256 SWAP4 DUP8 AND DUP4 MSTORE SWAP3 DUP2 MSTORE DUP3 DUP3 KECCAK256 DUP6 DUP4 MSTORE DUP2 MSTORE DUP3 DUP3 KECCAK256 PUSH1 0x1 PUSH1 0x1 PUSH1 0xE0 SHL SUB NOT DUP6 AND DUP4 MSTORE SWAP1 MSTORE KECCAK256 SLOAD PUSH1 0x1 EQ SWAP5 SWAP4 POP POP POP POP JUMP JUMPDEST PUSH2 0x1B5 PUSH2 0x1B0 CALLDATASIZE PUSH1 0x4 PUSH2 0x1BFE JUMP JUMPDEST PUSH2 0x8BF JUMP JUMPDEST PUSH1 0x40 MLOAD PUSH2 0xD8 SWAP2 SWAP1 PUSH2 0x1C86 JUMP JUMPDEST PUSH2 0x1B5 PUSH2 0x1D0 CALLDATASIZE PUSH1 0x4 PUSH2 0x1CBE JUMP JUMPDEST PUSH2 0xA1B JUMP JUMPDEST PUSH2 0xF4 PUSH2 0x1E3 CALLDATASIZE PUSH1 0x4 PUSH2 0x1DA1 JUMP JUMPDEST PUSH2 0xBBA JUMP JUMPDEST PUSH2 0x11D PUSH2 0x1F6 CALLDATASIZE PUSH1 0x4 PUSH2 0x1E2D JUMP JUMPDEST PUSH2 0xED5 JUMP JUMPDEST PUSH2 0xF4 PUSH2 0x209 CALLDATASIZE PUSH1 0x4 PUSH2 0x1E82 JUMP JUMPDEST PUSH2 0xF33 JUMP JUMPDEST PUSH2 0x11D PUSH2 0x21C CALLDATASIZE PUSH1 0x4 PUSH2 0x1EC4 JUMP JUMPDEST PUSH1 0x1 PUSH1 0x1 PUSH1 0xA0 SHL SUB DUP4 AND PUSH1 0x0 SWAP1 DUP2 MSTORE PUSH1 0x1 PUSH1 0x20 SWAP1 DUP2 MSTORE PUSH1 0x40 DUP1 DUP4 KECCAK256 DUP6 DUP5 MSTORE DUP3 MSTORE DUP1 DUP4 KECCAK256 PUSH1 0x1 PUSH1 0x1 PUSH1 0xE0 SHL SUB NOT DUP6 AND DUP5 MSTORE SWAP1 SWAP2 MSTORE SWAP1 KECCAK256 SLOAD SWAP4 SWAP3 POP POP POP JUMP JUMPDEST PUSH2 0xF4 PUSH2 0x267 CALLDATASIZE PUSH1 0x4 PUSH2 0x1F62 JUMP JUMPDEST PUSH2 0x10A7 JUMP JUMPDEST PUSH1 0x0 PUSH1 0x1 PUSH1 0x1 PUSH1 0xE0 SHL SUB NOT DUP3 AND PUSH4 0x6CFD62AD PUSH1 0xE1 SHL EQ DUP1 PUSH2 0x29D JUMPI POP PUSH1 0x1 PUSH1 0x1 PUSH1 0xE0 SHL SUB NOT DUP3 AND PUSH4 0x1FFC9A7 PUSH1 0xE0 SHL EQ JUMPDEST SWAP3 SWAP2 POP POP JUMP JUMPDEST DUP3 MLOAD DUP5 MLOAD EQ ISZERO DUP1 PUSH2 0x2B6 JUMPI POP DUP2 MLOAD DUP5 MLOAD EQ ISZERO JUMPDEST DUP1 PUSH2 0x2C3 JUMPI POP DUP1 MLOAD DUP5 MLOAD EQ ISZERO JUMPDEST ISZERO PUSH2 0x2E1 JUMPI PUSH1 0x40 MLOAD PUSH4 0x395C70BB PUSH1 0xE1 SHL DUP2 MSTORE PUSH1 0x4 ADD PUSH1 0x40 MLOAD DUP1 SWAP2 SUB SWAP1 REVERT JUMPDEST PUSH1 0x0 DUP1 JUMPDEST DUP6 MLOAD DUP2 LT ISZERO PUSH2 0x70A JUMPI CALLER PUSH1 0x0 SWAP1 DUP2 MSTORE PUSH1 0x20 DUP2 SWAP1 MSTORE PUSH1 0x40 DUP2 KECCAK256 DUP8 MLOAD SWAP1 SWAP2 SWAP1 DUP9 SWAP1 DUP5 SWAP1 DUP2 LT PUSH2 0x314 JUMPI PUSH2 0x314 PUSH2 0x20C7 JUMP JUMPDEST PUSH1 0x20 MUL PUSH1 0x20 ADD ADD MLOAD PUSH1 0x1 PUSH1 0x1 PUSH1 0xA0 SHL SUB AND PUSH1 0x1 PUSH1 0x1 PUSH1 0xA0 SHL SUB AND DUP2 MSTORE PUSH1 0x20 ADD SWAP1 DUP2 MSTORE PUSH1 0x20 ADD PUSH1 0x0 KECCAK256 PUSH1 0x0 DUP7 DUP4 DUP2 MLOAD DUP2 LT PUSH2 0x350 JUMPI PUSH2 0x350 PUSH2 0x20C7 JUMP JUMPDEST PUSH1 0x20 MUL PUSH1 0x20 ADD ADD MLOAD DUP2 MSTORE PUSH1 0x20 ADD SWAP1 DUP2 MSTORE PUSH1 0x20 ADD PUSH1 0x0 KECCAK256 PUSH1 0x0 DUP6 DUP4 DUP2 MLOAD DUP2 LT PUSH2 0x37A JUMPI PUSH2 0x37A PUSH2 0x20C7 JUMP JUMPDEST PUSH1 0x20 MUL PUSH1 0x20 ADD ADD MLOAD PUSH1 0x1 PUSH1 0x1 PUSH1 0xE0 SHL SUB NOT AND PUSH1 0x1 PUSH1 0x1 PUSH1 0xE0 SHL SUB NOT AND DUP2 MSTORE PUSH1 0x20 ADD SWAP1 DUP2 MSTORE PUSH1 0x20 ADD PUSH1 0x0 KECCAK256 SLOAD PUSH1 0x1 EQ SWAP2 POP DUP3 DUP2 DUP2 MLOAD DUP2 LT PUSH2 0x3BC JUMPI PUSH2 0x3BC PUSH2 0x20C7 JUMP JUMPDEST PUSH1 0x20 MUL PUSH1 0x20 ADD ADD MLOAD ISZERO ISZERO DUP3 ISZERO ISZERO EQ PUSH2 0x702 JUMPI DUP3 DUP2 DUP2 MLOAD DUP2 LT PUSH2 0x3E0 JUMPI PUSH2 0x3E0 PUSH2 0x20C7 JUMP JUMPDEST PUSH1 0x20 MUL PUSH1 0x20 ADD ADD MLOAD ISZERO PUSH2 0x4AE JUMPI PUSH1 0x1 DUP1 PUSH1 0x0 DUP9 DUP5 DUP2 MLOAD DUP2 LT PUSH2 0x404 JUMPI PUSH2 0x404 PUSH2 0x20C7 JUMP JUMPDEST PUSH1 0x20 MUL PUSH1 0x20 ADD ADD MLOAD PUSH1 0x1 PUSH1 0x1 PUSH1 0xA0 SHL SUB AND PUSH1 0x1 PUSH1 0x1 PUSH1 0xA0 SHL SUB AND DUP2 MSTORE PUSH1 0x20 ADD SWAP1 DUP2 MSTORE PUSH1 0x20 ADD PUSH1 0x0 KECCAK256 PUSH1 0x0 DUP8 DUP5 DUP2 MLOAD DUP2 LT PUSH2 0x440 JUMPI PUSH2 0x440 PUSH2 0x20C7 JUMP JUMPDEST PUSH1 0x20 MUL PUSH1 0x20 ADD ADD MLOAD DUP2 MSTORE PUSH1 0x20 ADD SWAP1 DUP2 MSTORE PUSH1 0x20 ADD PUSH1 0x0 KECCAK256 PUSH1 0x0 DUP7 DUP5 DUP2 MLOAD DUP2 LT PUSH2 0x46A JUMPI PUSH2 0x46A PUSH2 0x20C7 JUMP JUMPDEST PUSH1 0x20 MUL PUSH1 0x20 ADD ADD MLOAD PUSH1 0x1 PUSH1 0x1 PUSH1 0xE0 SHL SUB NOT AND PUSH1 0x1 PUSH1 0x1 PUSH1 0xE0 SHL SUB NOT AND DUP2 MSTORE PUSH1 0x20 ADD SWAP1 DUP2 MSTORE PUSH1 0x20 ADD PUSH1 0x0 KECCAK256 PUSH1 0x0 DUP3 DUP3 SLOAD PUSH2 0x4A3 SWAP2 SWAP1 PUSH2 0x20F3 JUMP JUMPDEST SWAP1 SWAP2 SSTORE POP PUSH2 0x56A SWAP1 POP JUMP JUMPDEST PUSH1 0x1 DUP1 PUSH1 0x0 DUP9 DUP5 DUP2 MLOAD DUP2 LT PUSH2 0x4C5 JUMPI PUSH2 0x4C5 PUSH2 0x20C7 JUMP JUMPDEST PUSH1 0x20 MUL PUSH1 0x20 ADD ADD MLOAD PUSH1 0x1 PUSH1 0x1 PUSH1 0xA0 SHL SUB AND PUSH1 0x1 PUSH1 0x1 PUSH1 0xA0 SHL SUB AND DUP2 MSTORE PUSH1 0x20 ADD SWAP1 DUP2 MSTORE PUSH1 0x20 ADD PUSH1 0x0 KECCAK256 PUSH1 0x0 DUP8 DUP5 DUP2 MLOAD DUP2 LT PUSH2 0x501 JUMPI PUSH2 0x501 PUSH2 0x20C7 JUMP JUMPDEST PUSH1 0x20 MUL PUSH1 0x20 ADD ADD MLOAD DUP2 MSTORE PUSH1 0x20 ADD SWAP1 DUP2 MSTORE PUSH1 0x20 ADD PUSH1 0x0 KECCAK256 PUSH1 0x0 DUP7 DUP5 DUP2 MLOAD DUP2 LT PUSH2 0x52B JUMPI PUSH2 0x52B PUSH2 0x20C7 JUMP JUMPDEST PUSH1 0x20 MUL PUSH1 0x20 ADD ADD MLOAD PUSH1 0x1 PUSH1 0x1 PUSH1 0xE0 SHL SUB NOT AND PUSH1 0x1 PUSH1 0x1 PUSH1 0xE0 SHL SUB NOT AND DUP2 MSTORE PUSH1 0x20 ADD SWAP1 DUP2 MSTORE PUSH1 0x20 ADD PUSH1 0x0 KECCAK256 PUSH1 0x0 DUP3 DUP3 SLOAD PUSH2 0x564 SWAP2 SWAP1 PUSH2 0x2106 JUMP JUMPDEST SWAP1 SWAP2 SSTORE POP POP JUMPDEST DUP3 DUP2 DUP2 MLOAD DUP2 LT PUSH2 0x57C JUMPI PUSH2 0x57C PUSH2 0x20C7 JUMP JUMPDEST PUSH1 0x20 MUL PUSH1 0x20 ADD ADD MLOAD PUSH2 0x58F JUMPI PUSH1 0x0 PUSH2 0x592 JUMP JUMPDEST PUSH1 0x1 JUMPDEST PUSH1 0xFF AND PUSH1 0x0 DUP1 CALLER PUSH1 0x1 PUSH1 0x1 PUSH1 0xA0 SHL SUB AND PUSH1 0x1 PUSH1 0x1 PUSH1 0xA0 SHL SUB AND DUP2 MSTORE PUSH1 0x20 ADD SWAP1 DUP2 MSTORE PUSH1 0x20 ADD PUSH1 0x0 KECCAK256 PUSH1 0x0 DUP9 DUP5 DUP2 MLOAD DUP2 LT PUSH2 0x5CD JUMPI PUSH2 0x5CD PUSH2 0x20C7 JUMP JUMPDEST PUSH1 0x20 MUL PUSH1 0x20 ADD ADD MLOAD PUSH1 0x1 PUSH1 0x1 PUSH1 0xA0 SHL SUB AND PUSH1 0x1 PUSH1 0x1 PUSH1 0xA0 SHL SUB AND DUP2 MSTORE PUSH1 0x20 ADD SWAP1 DUP2 MSTORE PUSH1 0x20 ADD PUSH1 0x0 KECCAK256 PUSH1 0x0 DUP8 DUP5 DUP2 MLOAD DUP2 LT PUSH2 0x609 JUMPI PUSH2 0x609 PUSH2 0x20C7 JUMP JUMPDEST PUSH1 0x20 MUL PUSH1 0x20 ADD ADD MLOAD DUP2 MSTORE PUSH1 0x20 ADD SWAP1 DUP2 MSTORE PUSH1 0x20 ADD PUSH1 0x0 KECCAK256 PUSH1 0x0 DUP7 DUP5 DUP2 MLOAD DUP2 LT PUSH2 0x633 JUMPI PUSH2 0x633 PUSH2 0x20C7 JUMP JUMPDEST PUSH1 0x20 MUL PUSH1 0x20 ADD ADD MLOAD PUSH1 0x1 PUSH1 0x1 PUSH1 0xE0 SHL SUB NOT AND PUSH1 0x1 PUSH1 0x1 PUSH1 0xE0 SHL SUB NOT AND DUP2 MSTORE PUSH1 0x20 ADD SWAP1 DUP2 MSTORE PUSH1 0x20 ADD PUSH1 0x0 KECCAK256 DUP2 SWAP1 SSTORE POP DUP5 DUP2 DUP2 MLOAD DUP2 LT PUSH2 0x673 JUMPI PUSH2 0x673 PUSH2 0x20C7 JUMP JUMPDEST PUSH1 0x20 MUL PUSH1 0x20 ADD ADD MLOAD DUP7 DUP3 DUP2 MLOAD DUP2 LT PUSH2 0x68D JUMPI PUSH2 0x68D PUSH2 0x20C7 JUMP JUMPDEST PUSH1 0x20 MUL PUSH1 0x20 ADD ADD MLOAD PUSH1 0x1 PUSH1 0x1 PUSH1 0xA0 SHL SUB AND CALLER PUSH1 0x1 PUSH1 0x1 PUSH1 0xA0 SHL SUB AND PUSH1 0x0 DUP1 MLOAD PUSH1 0x20 PUSH2 0x2173 DUP4 CODECOPY DUP2 MLOAD SWAP2 MSTORE DUP8 DUP6 DUP2 MLOAD DUP2 LT PUSH2 0x6C9 JUMPI PUSH2 0x6C9 PUSH2 0x20C7 JUMP JUMPDEST PUSH1 0x20 MUL PUSH1 0x20 ADD ADD MLOAD DUP8 DUP7 DUP2 MLOAD DUP2 LT PUSH2 0x6E3 JUMPI PUSH2 0x6E3 PUSH2 0x20C7 JUMP JUMPDEST PUSH1 0x20 MUL PUSH1 0x20 ADD ADD MLOAD PUSH1 0x40 MLOAD PUSH2 0x6F9 SWAP3 SWAP2 SWAP1 PUSH2 0x2119 JUMP JUMPDEST PUSH1 0x40 MLOAD DUP1 SWAP2 SUB SWAP1 LOG4 JUMPDEST PUSH1 0x1 ADD PUSH2 0x2E5 JUMP JUMPDEST POP POP POP POP POP POP JUMP JUMPDEST PUSH1 0x60 DUP4 MLOAD DUP6 MLOAD EQ ISZERO DUP1 PUSH2 0x727 JUMPI POP DUP3 MLOAD DUP6 MLOAD EQ ISZERO JUMPDEST DUP1 PUSH2 0x734 JUMPI POP DUP2 MLOAD DUP6 MLOAD EQ ISZERO JUMPDEST ISZERO PUSH2 0x752 JUMPI PUSH1 0x40 MLOAD PUSH4 0x395C70BB PUSH1 0xE1 SHL DUP2 MSTORE PUSH1 0x4 ADD PUSH1 0x40 MLOAD DUP1 SWAP2 SUB SWAP1 REVERT JUMPDEST PUSH1 0x0 DUP5 MLOAD PUSH8 0xFFFFFFFFFFFFFFFF DUP2 GT ISZERO PUSH2 0x76E JUMPI PUSH2 0x76E PUSH2 0x1805 JUMP JUMPDEST PUSH1 0x40 MLOAD SWAP1 DUP1 DUP3 MSTORE DUP1 PUSH1 0x20 MUL PUSH1 0x20 ADD DUP3 ADD PUSH1 0x40 MSTORE DUP1 ISZERO PUSH2 0x797 JUMPI DUP2 PUSH1 0x20 ADD PUSH1 0x20 DUP3 MUL DUP1 CALLDATASIZE DUP4 CALLDATACOPY ADD SWAP1 POP JUMPDEST POP SWAP1 POP PUSH1 0x0 JUMPDEST DUP6 MLOAD DUP2 LT ISZERO PUSH2 0x8B5 JUMPI PUSH1 0x0 DUP1 DUP9 DUP4 DUP2 MLOAD DUP2 LT PUSH2 0x7BB JUMPI PUSH2 0x7BB PUSH2 0x20C7 JUMP JUMPDEST PUSH1 0x20 MUL PUSH1 0x20 ADD ADD MLOAD PUSH1 0x1 PUSH1 0x1 PUSH1 0xA0 SHL SUB AND PUSH1 0x1 PUSH1 0x1 PUSH1 0xA0 SHL SUB AND DUP2 MSTORE PUSH1 0x20 ADD SWAP1 DUP2 MSTORE PUSH1 0x20 ADD PUSH1 0x0 KECCAK256 PUSH1 0x0 DUP8 DUP4 DUP2 MLOAD DUP2 LT PUSH2 0x7F7 JUMPI PUSH2 0x7F7 PUSH2 0x20C7 JUMP JUMPDEST PUSH1 0x20 MUL PUSH1 0x20 ADD ADD MLOAD PUSH1 0x1 PUSH1 0x1 PUSH1 0xA0 SHL SUB AND PUSH1 0x1 PUSH1 0x1 PUSH1 0xA0 SHL SUB AND DUP2 MSTORE PUSH1 0x20 ADD SWAP1 DUP2 MSTORE PUSH1 0x20 ADD PUSH1 0x0 KECCAK256 PUSH1 0x0 DUP7 DUP4 DUP2 MLOAD DUP2 LT PUSH2 0x833 JUMPI PUSH2 0x833 PUSH2 0x20C7 JUMP JUMPDEST PUSH1 0x20 MUL PUSH1 0x20 ADD ADD MLOAD DUP2 MSTORE PUSH1 0x20 ADD SWAP1 DUP2 MSTORE PUSH1 0x20 ADD PUSH1 0x0 KECCAK256 PUSH1 0x0 DUP6 DUP4 DUP2 MLOAD DUP2 LT PUSH2 0x85D JUMPI PUSH2 0x85D PUSH2 0x20C7 JUMP JUMPDEST PUSH1 0x20 MUL PUSH1 0x20 ADD ADD MLOAD PUSH1 0x1 PUSH1 0x1 PUSH1 0xE0 SHL SUB NOT AND PUSH1 0x1 PUSH1 0x1 PUSH1 0xE0 SHL SUB NOT AND DUP2 MSTORE PUSH1 0x20 ADD SWAP1 DUP2 MSTORE PUSH1 0x20 ADD PUSH1 0x0 KECCAK256 SLOAD PUSH1 0x1 EQ DUP3 DUP3 DUP2 MLOAD DUP2 LT PUSH2 0x89D JUMPI PUSH2 0x89D PUSH2 0x20C7 JUMP JUMPDEST SWAP2 ISZERO ISZERO PUSH1 0x20 SWAP3 DUP4 MUL SWAP2 SWAP1 SWAP2 ADD SWAP1 SWAP2 ADD MSTORE PUSH1 0x1 ADD PUSH2 0x79D JUMP JUMPDEST POP SWAP6 SWAP5 POP POP POP POP POP JUMP JUMPDEST PUSH1 0x60 DUP3 MLOAD DUP5 MLOAD EQ ISZERO DUP1 PUSH2 0x8D4 JUMPI POP DUP2 MLOAD DUP5 MLOAD EQ ISZERO JUMPDEST ISZERO PUSH2 0x8F2 JUMPI PUSH1 0x40 MLOAD PUSH4 0x395C70BB PUSH1 0xE1 SHL DUP2 MSTORE PUSH1 0x4 ADD PUSH1 0x40 MLOAD DUP1 SWAP2 SUB SWAP1 REVERT JUMPDEST PUSH1 0x0 DUP5 MLOAD PUSH8 0xFFFFFFFFFFFFFFFF DUP2 GT ISZERO PUSH2 0x90E JUMPI PUSH2 0x90E PUSH2 0x1805 JUMP JUMPDEST PUSH1 0x40 MLOAD SWAP1 DUP1 DUP3 MSTORE DUP1 PUSH1 0x20 MUL PUSH1 0x20 ADD DUP3 ADD PUSH1 0x40 MSTORE DUP1 ISZERO PUSH2 0x937 JUMPI DUP2 PUSH1 0x20 ADD PUSH1 0x20 DUP3 MUL DUP1 CALLDATASIZE DUP4 CALLDATACOPY ADD SWAP1 POP JUMPDEST POP SWAP1 POP PUSH1 0x0 JUMPDEST DUP6 MLOAD DUP2 LT ISZERO PUSH2 0xA12 JUMPI PUSH1 0x1 PUSH1 0x0 DUP8 DUP4 DUP2 MLOAD DUP2 LT PUSH2 0x95C JUMPI PUSH2 0x95C PUSH2 0x20C7 JUMP JUMPDEST PUSH1 0x20 MUL PUSH1 0x20 ADD ADD MLOAD PUSH1 0x1 PUSH1 0x1 PUSH1 0xA0 SHL SUB AND PUSH1 0x1 PUSH1 0x1 PUSH1 0xA0 SHL SUB AND DUP2 MSTORE PUSH1 0x20 ADD SWAP1 DUP2 MSTORE PUSH1 0x20 ADD PUSH1 0x0 KECCAK256 PUSH1 0x0 DUP7 DUP4 DUP2 MLOAD DUP2 LT PUSH2 0x998 JUMPI PUSH2 0x998 PUSH2 0x20C7 JUMP JUMPDEST PUSH1 0x20 MUL PUSH1 0x20 ADD ADD MLOAD DUP2 MSTORE PUSH1 0x20 ADD SWAP1 DUP2 MSTORE PUSH1 0x20 ADD PUSH1 0x0 KECCAK256 PUSH1 0x0 DUP6 DUP4 DUP2 MLOAD DUP2 LT PUSH2 0x9C2 JUMPI PUSH2 0x9C2 PUSH2 0x20C7 JUMP JUMPDEST PUSH1 0x20 MUL PUSH1 0x20 ADD ADD MLOAD PUSH1 0x1 PUSH1 0x1 PUSH1 0xE0 SHL SUB NOT AND PUSH1 0x1 PUSH1 0x1 PUSH1 0xE0 SHL SUB NOT AND DUP2 MSTORE PUSH1 0x20 ADD SWAP1 DUP2 MSTORE PUSH1 0x20 ADD PUSH1 0x0 KECCAK256 SLOAD DUP3 DUP3 DUP2 MLOAD DUP2 LT PUSH2 0x9FF JUMPI PUSH2 0x9FF PUSH2 0x20C7 JUMP JUMPDEST PUSH1 0x20 SWAP1 DUP2 MUL SWAP2 SWAP1 SWAP2 ADD ADD MSTORE PUSH1 0x1 ADD PUSH2 0x93D JUMP JUMPDEST POP SWAP5 SWAP4 POP POP POP POP JUMP JUMPDEST PUSH1 0x60 DUP5 MLOAD DUP7 MLOAD EQ ISZERO DUP1 PUSH2 0xA30 JUMPI POP DUP4 MLOAD DUP7 MLOAD EQ ISZERO JUMPDEST DUP1 PUSH2 0xA3D JUMPI POP DUP3 MLOAD DUP7 MLOAD EQ ISZERO JUMPDEST DUP1 PUSH2 0xA4A JUMPI POP DUP2 MLOAD DUP7 MLOAD EQ ISZERO JUMPDEST ISZERO PUSH2 0xA68 JUMPI PUSH1 0x40 MLOAD PUSH4 0x395C70BB PUSH1 0xE1 SHL DUP2 MSTORE PUSH1 0x4 ADD PUSH1 0x40 MLOAD DUP1 SWAP2 SUB SWAP1 REVERT JUMPDEST PUSH1 0x0 DUP7 MLOAD PUSH8 0xFFFFFFFFFFFFFFFF DUP2 GT ISZERO PUSH2 0xA84 JUMPI PUSH2 0xA84 PUSH2 0x1805 JUMP JUMPDEST PUSH1 0x40 MLOAD SWAP1 DUP1 DUP3 MSTORE DUP1 PUSH1 0x20 MUL PUSH1 0x20 ADD DUP3 ADD PUSH1 0x40 MSTORE DUP1 ISZERO PUSH2 0xAAD JUMPI DUP2 PUSH1 0x20 ADD PUSH1 0x20 DUP3 MUL DUP1 CALLDATASIZE DUP4 CALLDATACOPY ADD SWAP1 POP JUMPDEST POP SWAP1 POP PUSH1 0x0 JUMPDEST DUP8 MLOAD DUP2 LT ISZERO PUSH2 0xBAF JUMPI PUSH32 0x0 DUP9 DUP3 DUP2 MLOAD DUP2 LT PUSH2 0xAEF JUMPI PUSH2 0xAEF PUSH2 0x20C7 JUMP JUMPDEST PUSH1 0x20 MUL PUSH1 0x20 ADD ADD MLOAD DUP9 DUP4 DUP2 MLOAD DUP2 LT PUSH2 0xB09 JUMPI PUSH2 0xB09 PUSH2 0x20C7 JUMP JUMPDEST PUSH1 0x20 MUL PUSH1 0x20 ADD ADD MLOAD DUP9 DUP5 DUP2 MLOAD DUP2 LT PUSH2 0xB23 JUMPI PUSH2 0xB23 PUSH2 0x20C7 JUMP JUMPDEST PUSH1 0x20 MUL PUSH1 0x20 ADD ADD MLOAD DUP9 DUP6 DUP2 MLOAD DUP2 LT PUSH2 0xB3D JUMPI PUSH2 0xB3D PUSH2 0x20C7 JUMP JUMPDEST PUSH1 0x20 MUL PUSH1 0x20 ADD ADD MLOAD DUP9 DUP7 DUP2 MLOAD DUP2 LT PUSH2 0xB57 JUMPI PUSH2 0xB57 PUSH2 0x20C7 JUMP JUMPDEST PUSH1 0x20 MUL PUSH1 0x20 ADD ADD MLOAD PUSH1 0x40 MLOAD PUSH1 0x20 ADD PUSH2 0xB74 SWAP7 SWAP6 SWAP5 SWAP4 SWAP3 SWAP2 SWAP1 PUSH2 0x2135 JUMP JUMPDEST PUSH1 0x40 MLOAD PUSH1 0x20 DUP2 DUP4 SUB SUB DUP2 MSTORE SWAP1 PUSH1 0x40 MSTORE DUP1 MLOAD SWAP1 PUSH1 0x20 ADD KECCAK256 DUP3 DUP3 DUP2 MLOAD DUP2 LT PUSH2 0xB9C JUMPI PUSH2 0xB9C PUSH2 0x20C7 JUMP JUMPDEST PUSH1 0x20 SWAP1 DUP2 MUL SWAP2 SWAP1 SWAP2 ADD ADD MSTORE PUSH1 0x1 ADD PUSH2 0xAB3 JUMP JUMPDEST POP SWAP7 SWAP6 POP POP POP POP POP POP JUMP JUMPDEST DUP4 TIMESTAMP GT ISZERO PUSH2 0xBDB JUMPI PUSH1 0x40 MLOAD PUSH4 0x68C38C91 PUSH1 0xE0 SHL DUP2 MSTORE PUSH1 0x4 ADD PUSH1 0x40 MLOAD DUP1 SWAP2 SUB SWAP1 REVERT JUMPDEST PUSH1 0x0 PUSH32 0x0 DUP10 DUP10 DUP10 DUP10 DUP10 PUSH1 0x40 MLOAD PUSH1 0x20 ADD PUSH2 0xC18 SWAP7 SWAP6 SWAP5 SWAP4 SWAP3 SWAP2 SWAP1 PUSH2 0x2135 JUMP JUMPDEST PUSH1 0x40 DUP1 MLOAD PUSH1 0x1F NOT DUP2 DUP5 SUB ADD DUP2 MSTORE SWAP1 DUP3 SWAP1 MSTORE DUP1 MLOAD PUSH1 0x20 SWAP2 DUP3 ADD KECCAK256 PUSH32 0x19457468657265756D205369676E6564204D6573736167653A0A333200000000 SWAP2 DUP4 ADD SWAP2 SWAP1 SWAP2 MSTORE PUSH1 0x3C DUP3 ADD MSTORE PUSH1 0x5C ADD PUSH1 0x40 DUP1 MLOAD PUSH1 0x1F NOT DUP2 DUP5 SUB ADD DUP2 MSTORE DUP3 DUP3 MSTORE DUP1 MLOAD PUSH1 0x20 SWAP2 DUP3 ADD KECCAK256 PUSH1 0x0 DUP1 DUP6 MSTORE SWAP2 DUP5 ADD DUP1 DUP5 MSTORE DUP2 SWAP1 MSTORE PUSH1 0xFF DUP9 AND SWAP3 DUP5 ADD SWAP3 SWAP1 SWAP3 MSTORE PUSH1 0x60 DUP4 ADD DUP7 SWAP1 MSTORE PUSH1 0x80 DUP4 ADD DUP6 SWAP1 MSTORE SWAP1 SWAP3 POP SWAP1 PUSH1 0x1 SWAP1 PUSH1 0xA0 ADD PUSH1 0x20 PUSH1 0x40 MLOAD PUSH1 0x20 DUP2 SUB SWAP1 DUP1 DUP5 SUB SWAP1 DUP6 GAS STATICCALL ISZERO DUP1 ISZERO PUSH2 0xCCC JUMPI RETURNDATASIZE PUSH1 0x0 DUP1 RETURNDATACOPY RETURNDATASIZE PUSH1 0x0 REVERT JUMPDEST POP POP POP PUSH1 0x20 PUSH1 0x40 MLOAD SUB MLOAD SWAP1 POP DUP11 PUSH1 0x1 PUSH1 0x1 PUSH1 0xA0 SHL SUB AND DUP2 PUSH1 0x1 PUSH1 0x1 PUSH1 0xA0 SHL SUB AND EQ PUSH2 0xD0A JUMPI PUSH1 0x40 MLOAD PUSH4 0x8BAA579F PUSH1 0xE0 SHL DUP2 MSTORE PUSH1 0x4 ADD PUSH1 0x40 MLOAD DUP1 SWAP2 SUB SWAP1 REVERT JUMPDEST PUSH1 0x1 PUSH1 0x1 PUSH1 0xA0 SHL SUB DUP1 DUP3 AND PUSH1 0x0 SWAP1 DUP2 MSTORE PUSH1 0x20 DUP2 DUP2 MSTORE PUSH1 0x40 DUP1 DUP4 KECCAK256 SWAP4 DUP15 AND DUP4 MSTORE SWAP3 DUP2 MSTORE DUP3 DUP3 KECCAK256 DUP13 DUP4 MSTORE DUP2 MSTORE DUP3 DUP3 KECCAK256 PUSH1 0x1 PUSH1 0x1 PUSH1 0xE0 SHL SUB NOT DUP13 AND DUP4 MSTORE SWAP1 MSTORE KECCAK256 SLOAD PUSH1 0x1 EQ DUP8 ISZERO ISZERO DUP2 EQ PUSH2 0xEC7 JUMPI DUP8 ISZERO PUSH2 0xDAB JUMPI PUSH1 0x1 PUSH1 0x1 PUSH1 0xA0 SHL SUB DUP12 AND PUSH1 0x0 SWAP1 DUP2 MSTORE PUSH1 0x1 PUSH1 0x20 DUP2 DUP2 MSTORE PUSH1 0x40 DUP1 DUP5 KECCAK256 DUP15 DUP6 MSTORE DUP3 MSTORE DUP1 DUP5 KECCAK256 PUSH1 0x1 PUSH1 0x1 PUSH1 0xE0 SHL SUB NOT DUP15 AND DUP6 MSTORE SWAP1 SWAP2 MSTORE DUP3 KECCAK256 DUP1 SLOAD SWAP2 SWAP3 SWAP1 SWAP2 PUSH2 0xDA0 SWAP1 DUP5 SWAP1 PUSH2 0x20F3 JUMP JUMPDEST SWAP1 SWAP2 SSTORE POP PUSH2 0xDF7 SWAP1 POP JUMP JUMPDEST PUSH1 0x1 PUSH1 0x1 PUSH1 0xA0 SHL SUB DUP12 AND PUSH1 0x0 SWAP1 DUP2 MSTORE PUSH1 0x1 PUSH1 0x20 DUP2 DUP2 MSTORE PUSH1 0x40 DUP1 DUP5 KECCAK256 DUP15 DUP6 MSTORE DUP3 MSTORE DUP1 DUP5 KECCAK256 PUSH1 0x1 PUSH1 0x1 PUSH1 0xE0 SHL SUB NOT DUP15 AND DUP6 MSTORE SWAP1 SWAP2 MSTORE DUP3 KECCAK256 DUP1 SLOAD SWAP2 SWAP3 SWAP1 SWAP2 PUSH2 0xDF1 SWAP1 DUP5 SWAP1 PUSH2 0x2106 JUMP JUMPDEST SWAP1 SWAP2 SSTORE POP POP JUMPDEST DUP8 PUSH2 0xE03 JUMPI PUSH1 0x0 PUSH2 0xE06 JUMP JUMPDEST PUSH1 0x1 JUMPDEST PUSH1 0xFF AND PUSH1 0x0 DUP1 DUP5 PUSH1 0x1 PUSH1 0x1 PUSH1 0xA0 SHL SUB AND PUSH1 0x1 PUSH1 0x1 PUSH1 0xA0 SHL SUB AND DUP2 MSTORE PUSH1 0x20 ADD SWAP1 DUP2 MSTORE PUSH1 0x20 ADD PUSH1 0x0 KECCAK256 PUSH1 0x0 DUP14 PUSH1 0x1 PUSH1 0x1 PUSH1 0xA0 SHL SUB AND PUSH1 0x1 PUSH1 0x1 PUSH1 0xA0 SHL SUB AND DUP2 MSTORE PUSH1 0x20 ADD SWAP1 DUP2 MSTORE PUSH1 0x20 ADD PUSH1 0x0 KECCAK256 PUSH1 0x0 DUP13 DUP2 MSTORE PUSH1 0x20 ADD SWAP1 DUP2 MSTORE PUSH1 0x20 ADD PUSH1 0x0 KECCAK256 PUSH1 0x0 DUP12 PUSH1 0x1 PUSH1 0x1 PUSH1 0xE0 SHL SUB NOT AND PUSH1 0x1 PUSH1 0x1 PUSH1 0xE0 SHL SUB NOT AND DUP2 MSTORE PUSH1 0x20 ADD SWAP1 DUP2 MSTORE PUSH1 0x20 ADD PUSH1 0x0 KECCAK256 DUP2 SWAP1 SSTORE POP DUP10 DUP12 PUSH1 0x1 PUSH1 0x1 PUSH1 0xA0 SHL SUB AND DUP4 PUSH1 0x1 PUSH1 0x1 PUSH1 0xA0 SHL SUB AND PUSH1 0x0 DUP1 MLOAD PUSH1 0x20 PUSH2 0x2173 DUP4 CODECOPY DUP2 MLOAD SWAP2 MSTORE DUP13 DUP13 PUSH1 0x40 MLOAD PUSH2 0xEBE SWAP3 SWAP2 SWAP1 PUSH2 0x2119 JUMP JUMPDEST PUSH1 0x40 MLOAD DUP1 SWAP2 SUB SWAP1 LOG4 JUMPDEST POP POP POP POP POP POP POP POP POP POP POP POP JUMP JUMPDEST PUSH1 0x0 PUSH32 0x0 DUP7 DUP7 DUP7 DUP7 DUP7 PUSH1 0x40 MLOAD PUSH1 0x20 ADD PUSH2 0xF12 SWAP7 SWAP6 SWAP5 SWAP4 SWAP3 SWAP2 SWAP1 PUSH2 0x2135 JUMP JUMPDEST PUSH1 0x40 MLOAD PUSH1 0x20 DUP2 DUP4 SUB SUB DUP2 MSTORE SWAP1 PUSH1 0x40 MSTORE DUP1 MLOAD SWAP1 PUSH1 0x20 ADD KECCAK256 SWAP1 POP SWAP6 SWAP5 POP POP POP POP POP JUMP JUMPDEST CALLER PUSH1 0x0 SWAP1 DUP2 MSTORE PUSH1 0x20 DUP2 DUP2 MSTORE PUSH1 0x40 DUP1 DUP4 KECCAK256 PUSH1 0x1 PUSH1 0x1 PUSH1 0xA0 SHL SUB DUP9 AND DUP5 MSTORE DUP3 MSTORE DUP1 DUP4 KECCAK256 DUP7 DUP5 MSTORE DUP3 MSTORE DUP1 DUP4 KECCAK256 PUSH1 0x1 PUSH1 0x1 PUSH1 0xE0 SHL SUB NOT DUP7 AND DUP5 MSTORE SWAP1 SWAP2 MSTORE SWAP1 KECCAK256 SLOAD PUSH1 0x1 EQ DUP2 ISZERO ISZERO DUP2 EQ PUSH2 0x10A0 JUMPI DUP2 ISZERO PUSH2 0xFD2 JUMPI PUSH1 0x1 PUSH1 0x1 PUSH1 0xA0 SHL SUB DUP6 AND PUSH1 0x0 SWAP1 DUP2 MSTORE PUSH1 0x1 PUSH1 0x20 DUP2 DUP2 MSTORE PUSH1 0x40 DUP1 DUP5 KECCAK256 DUP9 DUP6 MSTORE DUP3 MSTORE DUP1 DUP5 KECCAK256 PUSH1 0x1 PUSH1 0x1 PUSH1 0xE0 SHL SUB NOT DUP9 AND DUP6 MSTORE SWAP1 SWAP2 MSTORE DUP3 KECCAK256 DUP1 SLOAD SWAP2 SWAP3 SWAP1 SWAP2 PUSH2 0xFC7 SWAP1 DUP5 SWAP1 PUSH2 0x20F3 JUMP JUMPDEST SWAP1 SWAP2 SSTORE POP PUSH2 0x101E SWAP1 POP JUMP JUMPDEST PUSH1 0x1 PUSH1 0x1 PUSH1 0xA0 SHL SUB DUP6 AND PUSH1 0x0 SWAP1 DUP2 MSTORE PUSH1 0x1 PUSH1 0x20 DUP2 DUP2 MSTORE PUSH1 0x40 DUP1 DUP5 KECCAK256 DUP9 DUP6 MSTORE DUP3 MSTORE DUP1 DUP5 KECCAK256 PUSH1 0x1 PUSH1 0x1 PUSH1 0xE0 SHL SUB NOT DUP9 AND DUP6 MSTORE SWAP1 SWAP2 MSTORE DUP3 KECCAK256 DUP1 SLOAD SWAP2 SWAP3 SWAP1 SWAP2 PUSH2 0x1018 SWAP1 DUP5 SWAP1 PUSH2 0x2106 JUMP JUMPDEST SWAP1 SWAP2 SSTORE POP POP JUMPDEST DUP2 PUSH2 0x102A JUMPI PUSH1 0x0 PUSH2 0x102D JUMP JUMPDEST PUSH1 0x1 JUMPDEST CALLER PUSH1 0x0 DUP2 DUP2 MSTORE PUSH1 0x20 DUP2 DUP2 MSTORE PUSH1 0x40 DUP1 DUP4 KECCAK256 PUSH1 0x1 PUSH1 0x1 PUSH1 0xA0 SHL SUB DUP12 AND DUP1 DUP6 MSTORE SWAP1 DUP4 MSTORE DUP2 DUP5 KECCAK256 DUP11 DUP6 MSTORE DUP4 MSTORE DUP2 DUP5 KECCAK256 PUSH1 0x1 PUSH1 0x1 PUSH1 0xE0 SHL SUB NOT DUP11 AND DUP6 MSTORE SWAP1 SWAP3 MSTORE SWAP2 DUP3 SWAP1 KECCAK256 PUSH1 0xFF SWAP5 SWAP1 SWAP5 AND SWAP1 SWAP4 SSTORE MLOAD DUP7 SWAP3 SWAP2 SWAP1 PUSH1 0x0 DUP1 MLOAD PUSH1 0x20 PUSH2 0x2173 DUP4 CODECOPY DUP2 MLOAD SWAP2 MSTORE SWAP1 PUSH2 0x1097 SWAP1 DUP9 SWAP1 DUP9 SWAP1 PUSH2 0x2119 JUMP JUMPDEST PUSH1 0x40 MLOAD DUP1 SWAP2 SUB SWAP1 LOG4 JUMPDEST POP POP POP POP POP JUMP JUMPDEST DUP8 MLOAD DUP10 MLOAD EQ ISZERO DUP1 PUSH2 0x10BA JUMPI POP DUP7 MLOAD DUP10 MLOAD EQ ISZERO JUMPDEST DUP1 PUSH2 0x10C7 JUMPI POP DUP6 MLOAD DUP10 MLOAD EQ ISZERO JUMPDEST DUP1 PUSH2 0x10D4 JUMPI POP DUP5 MLOAD DUP10 MLOAD EQ ISZERO JUMPDEST DUP1 PUSH2 0x10E1 JUMPI POP DUP4 MLOAD DUP10 MLOAD EQ ISZERO JUMPDEST DUP1 PUSH2 0x10EE JUMPI POP DUP3 MLOAD DUP10 MLOAD EQ ISZERO JUMPDEST DUP1 PUSH2 0x10FB JUMPI POP DUP2 MLOAD DUP10 MLOAD EQ ISZERO JUMPDEST DUP1 PUSH2 0x1108 JUMPI POP DUP1 MLOAD DUP10 MLOAD EQ ISZERO JUMPDEST ISZERO PUSH2 0x1126 JUMPI PUSH1 0x40 MLOAD PUSH4 0x395C70BB PUSH1 0xE1 SHL DUP2 MSTORE PUSH1 0x4 ADD PUSH1 0x40 MLOAD DUP1 SWAP2 SUB SWAP1 REVERT JUMPDEST PUSH1 0x0 DUP1 PUSH1 0x0 DUP1 JUMPDEST DUP12 MLOAD DUP2 LT ISZERO PUSH2 0x17B7 JUMPI DUP8 DUP2 DUP2 MLOAD DUP2 LT PUSH2 0x1148 JUMPI PUSH2 0x1148 PUSH2 0x20C7 JUMP JUMPDEST PUSH1 0x20 MUL PUSH1 0x20 ADD ADD MLOAD TIMESTAMP GT ISZERO PUSH2 0x1170 JUMPI PUSH1 0x40 MLOAD PUSH4 0x68C38C91 PUSH1 0xE0 SHL DUP2 MSTORE PUSH1 0x4 ADD PUSH1 0x40 MLOAD DUP1 SWAP2 SUB SWAP1 REVERT JUMPDEST PUSH32 0x0 DUP13 DUP3 DUP2 MLOAD DUP2 LT PUSH2 0x11A3 JUMPI PUSH2 0x11A3 PUSH2 0x20C7 JUMP JUMPDEST PUSH1 0x20 MUL PUSH1 0x20 ADD ADD MLOAD DUP13 DUP4 DUP2 MLOAD DUP2 LT PUSH2 0x11BD JUMPI PUSH2 0x11BD PUSH2 0x20C7 JUMP JUMPDEST PUSH1 0x20 MUL PUSH1 0x20 ADD ADD MLOAD DUP13 DUP5 DUP2 MLOAD DUP2 LT PUSH2 0x11D7 JUMPI PUSH2 0x11D7 PUSH2 0x20C7 JUMP JUMPDEST PUSH1 0x20 MUL PUSH1 0x20 ADD ADD MLOAD DUP13 DUP6 DUP2 MLOAD DUP2 LT PUSH2 0x11F1 JUMPI PUSH2 0x11F1 PUSH2 0x20C7 JUMP JUMPDEST PUSH1 0x20 MUL PUSH1 0x20 ADD ADD MLOAD DUP13 DUP7 DUP2 MLOAD DUP2 LT PUSH2 0x120B JUMPI PUSH2 0x120B PUSH2 0x20C7 JUMP JUMPDEST PUSH1 0x20 MUL PUSH1 0x20 ADD ADD MLOAD PUSH1 0x40 MLOAD PUSH1 0x20 ADD PUSH2 0x1228 SWAP7 SWAP6 SWAP5 SWAP4 SWAP3 SWAP2 SWAP1 PUSH2 0x2135 JUMP JUMPDEST PUSH1 0x40 DUP1 MLOAD PUSH1 0x1F NOT DUP2 DUP5 SUB ADD DUP2 MSTORE SWAP1 DUP3 SWAP1 MSTORE DUP1 MLOAD PUSH1 0x20 SWAP2 DUP3 ADD KECCAK256 PUSH32 0x19457468657265756D205369676E6564204D6573736167653A0A333200000000 SWAP2 DUP4 ADD SWAP2 SWAP1 SWAP2 MSTORE PUSH1 0x3C DUP3 ADD MSTORE PUSH1 0x5C ADD PUSH1 0x40 MLOAD PUSH1 0x20 DUP2 DUP4 SUB SUB DUP2 MSTORE SWAP1 PUSH1 0x40 MSTORE DUP1 MLOAD SWAP1 PUSH1 0x20 ADD KECCAK256 SWAP4 POP PUSH1 0x1 DUP5 DUP9 DUP4 DUP2 MLOAD DUP2 LT PUSH2 0x129E JUMPI PUSH2 0x129E PUSH2 0x20C7 JUMP JUMPDEST PUSH1 0x20 MUL PUSH1 0x20 ADD ADD MLOAD DUP9 DUP5 DUP2 MLOAD DUP2 LT PUSH2 0x12B8 JUMPI PUSH2 0x12B8 PUSH2 0x20C7 JUMP JUMPDEST PUSH1 0x20 MUL PUSH1 0x20 ADD ADD MLOAD DUP9 DUP6 DUP2 MLOAD DUP2 LT PUSH2 0x12D2 JUMPI PUSH2 0x12D2 PUSH2 0x20C7 JUMP JUMPDEST PUSH1 0x20 MUL PUSH1 0x20 ADD ADD MLOAD PUSH1 0x40 MLOAD PUSH1 0x0 DUP2 MSTORE PUSH1 0x20 ADD PUSH1 0x40 MSTORE PUSH1 0x40 MLOAD PUSH2 0x1310 SWAP5 SWAP4 SWAP3 SWAP2 SWAP1 SWAP4 DUP5 MSTORE PUSH1 0xFF SWAP3 SWAP1 SWAP3 AND PUSH1 0x20 DUP5 ADD MSTORE PUSH1 0x40 DUP4 ADD MSTORE PUSH1 0x60 DUP3 ADD MSTORE PUSH1 0x80 ADD SWAP1 JUMP JUMPDEST PUSH1 0x20 PUSH1 0x40 MLOAD PUSH1 0x20 DUP2 SUB SWAP1 DUP1 DUP5 SUB SWAP1 DUP6 GAS STATICCALL ISZERO DUP1 ISZERO PUSH2 0x1332 JUMPI RETURNDATASIZE PUSH1 0x0 DUP1 RETURNDATACOPY RETURNDATASIZE PUSH1 0x0 REVERT JUMPDEST POP POP POP PUSH1 0x20 PUSH1 0x40 MLOAD SUB MLOAD SWAP3 POP DUP13 DUP2 DUP2 MLOAD DUP2 LT PUSH2 0x1350 JUMPI PUSH2 0x1350 PUSH2 0x20C7 JUMP JUMPDEST PUSH1 0x20 MUL PUSH1 0x20 ADD ADD MLOAD PUSH1 0x1 PUSH1 0x1 PUSH1 0xA0 SHL SUB AND DUP4 PUSH1 0x1 PUSH1 0x1 PUSH1 0xA0 SHL SUB AND EQ PUSH2 0x1389 JUMPI PUSH1 0x40 MLOAD PUSH4 0x8BAA579F PUSH1 0xE0 SHL DUP2 MSTORE PUSH1 0x4 ADD PUSH1 0x40 MLOAD DUP1 SWAP2 SUB SWAP1 REVERT JUMPDEST PUSH1 0x0 DUP1 DUP5 PUSH1 0x1 PUSH1 0x1 PUSH1 0xA0 SHL SUB AND PUSH1 0x1 PUSH1 0x1 PUSH1 0xA0 SHL SUB AND DUP2 MSTORE PUSH1 0x20 ADD SWAP1 DUP2 MSTORE PUSH1 0x20 ADD PUSH1 0x0 KECCAK256 PUSH1 0x0 DUP14 DUP4 DUP2 MLOAD DUP2 LT PUSH2 0x13C1 JUMPI PUSH2 0x13C1 PUSH2 0x20C7 JUMP JUMPDEST PUSH1 0x20 MUL PUSH1 0x20 ADD ADD MLOAD PUSH1 0x1 PUSH1 0x1 PUSH1 0xA0 SHL SUB AND PUSH1 0x1 PUSH1 0x1 PUSH1 0xA0 SHL SUB AND DUP2 MSTORE PUSH1 0x20 ADD SWAP1 DUP2 MSTORE PUSH1 0x20 ADD PUSH1 0x0 KECCAK256 PUSH1 0x0 DUP13 DUP4 DUP2 MLOAD DUP2 LT PUSH2 0x13FD JUMPI PUSH2 0x13FD PUSH2 0x20C7 JUMP JUMPDEST PUSH1 0x20 MUL PUSH1 0x20 ADD ADD MLOAD DUP2 MSTORE PUSH1 0x20 ADD SWAP1 DUP2 MSTORE PUSH1 0x20 ADD PUSH1 0x0 KECCAK256 PUSH1 0x0 DUP12 DUP4 DUP2 MLOAD DUP2 LT PUSH2 0x1427 JUMPI PUSH2 0x1427 PUSH2 0x20C7 JUMP JUMPDEST PUSH1 0x20 MUL PUSH1 0x20 ADD ADD MLOAD PUSH1 0x1 PUSH1 0x1 PUSH1 0xE0 SHL SUB NOT AND PUSH1 0x1 PUSH1 0x1 PUSH1 0xE0 SHL SUB NOT AND DUP2 MSTORE PUSH1 0x20 ADD SWAP1 DUP2 MSTORE PUSH1 0x20 ADD PUSH1 0x0 KECCAK256 SLOAD PUSH1 0x1 EQ SWAP2 POP DUP9 DUP2 DUP2 MLOAD DUP2 LT PUSH2 0x1469 JUMPI PUSH2 0x1469 PUSH2 0x20C7 JUMP JUMPDEST PUSH1 0x20 MUL PUSH1 0x20 ADD ADD MLOAD ISZERO ISZERO DUP3 ISZERO ISZERO EQ PUSH2 0x17AF JUMPI DUP9 DUP2 DUP2 MLOAD DUP2 LT PUSH2 0x148D JUMPI PUSH2 0x148D PUSH2 0x20C7 JUMP JUMPDEST PUSH1 0x20 MUL PUSH1 0x20 ADD ADD MLOAD ISZERO PUSH2 0x155B JUMPI PUSH1 0x1 DUP1 PUSH1 0x0 DUP15 DUP5 DUP2 MLOAD DUP2 LT PUSH2 0x14B1 JUMPI PUSH2 0x14B1 PUSH2 0x20C7 JUMP JUMPDEST PUSH1 0x20 MUL PUSH1 0x20 ADD ADD MLOAD PUSH1 0x1 PUSH1 0x1 PUSH1 0xA0 SHL SUB AND PUSH1 0x1 PUSH1 0x1 PUSH1 0xA0 SHL SUB AND DUP2 MSTORE PUSH1 0x20 ADD SWAP1 DUP2 MSTORE PUSH1 0x20 ADD PUSH1 0x0 KECCAK256 PUSH1 0x0 DUP14 DUP5 DUP2 MLOAD DUP2 LT PUSH2 0x14ED JUMPI PUSH2 0x14ED PUSH2 0x20C7 JUMP JUMPDEST PUSH1 0x20 MUL PUSH1 0x20 ADD ADD MLOAD DUP2 MSTORE PUSH1 0x20 ADD SWAP1 DUP2 MSTORE PUSH1 0x20 ADD PUSH1 0x0 KECCAK256 PUSH1 0x0 DUP13 DUP5 DUP2 MLOAD DUP2 LT PUSH2 0x1517 JUMPI PUSH2 0x1517 PUSH2 0x20C7 JUMP JUMPDEST PUSH1 0x20 MUL PUSH1 0x20 ADD ADD MLOAD PUSH1 0x1 PUSH1 0x1 PUSH1 0xE0 SHL SUB NOT AND PUSH1 0x1 PUSH1 0x1 PUSH1 0xE0 SHL SUB NOT AND DUP2 MSTORE PUSH1 0x20 ADD SWAP1 DUP2 MSTORE PUSH1 0x20 ADD PUSH1 0x0 KECCAK256 PUSH1 0x0 DUP3 DUP3 SLOAD PUSH2 0x1550 SWAP2 SWAP1 PUSH2 0x20F3 JUMP JUMPDEST SWAP1 SWAP2 SSTORE POP PUSH2 0x1617 SWAP1 POP JUMP JUMPDEST PUSH1 0x1 DUP1 PUSH1 0x0 DUP15 DUP5 DUP2 MLOAD DUP2 LT PUSH2 0x1572 JUMPI PUSH2 0x1572 PUSH2 0x20C7 JUMP JUMPDEST PUSH1 0x20 MUL PUSH1 0x20 ADD ADD MLOAD PUSH1 0x1 PUSH1 0x1 PUSH1 0xA0 SHL SUB AND PUSH1 0x1 PUSH1 0x1 PUSH1 0xA0 SHL SUB AND DUP2 MSTORE PUSH1 0x20 ADD SWAP1 DUP2 MSTORE PUSH1 0x20 ADD PUSH1 0x0 KECCAK256 PUSH1 0x0 DUP14 DUP5 DUP2 MLOAD DUP2 LT PUSH2 0x15AE JUMPI PUSH2 0x15AE PUSH2 0x20C7 JUMP JUMPDEST PUSH1 0x20 MUL PUSH1 0x20 ADD ADD MLOAD DUP2 MSTORE PUSH1 0x20 ADD SWAP1 DUP2 MSTORE PUSH1 0x20 ADD PUSH1 0x0 KECCAK256 PUSH1 0x0 DUP13 DUP5 DUP2 MLOAD DUP2 LT PUSH2 0x15D8 JUMPI PUSH2 0x15D8 PUSH2 0x20C7 JUMP JUMPDEST PUSH1 0x20 MUL PUSH1 0x20 ADD ADD MLOAD PUSH1 0x1 PUSH1 0x1 PUSH1 0xE0 SHL SUB NOT AND PUSH1 0x1 PUSH1 0x1 PUSH1 0xE0 SHL SUB NOT AND DUP2 MSTORE PUSH1 0x20 ADD SWAP1 DUP2 MSTORE PUSH1 0x20 ADD PUSH1 0x0 KECCAK256 PUSH1 0x0 DUP3 DUP3 SLOAD PUSH2 0x1611 SWAP2 SWAP1 PUSH2 0x2106 JUMP JUMPDEST SWAP1 SWAP2 SSTORE POP POP JUMPDEST DUP9 DUP2 DUP2 MLOAD DUP2 LT PUSH2 0x1629 JUMPI PUSH2 0x1629 PUSH2 0x20C7 JUMP JUMPDEST PUSH1 0x20 MUL PUSH1 0x20 ADD ADD MLOAD PUSH2 0x163C JUMPI PUSH1 0x0 PUSH2 0x163F JUMP JUMPDEST PUSH1 0x1 JUMPDEST PUSH1 0xFF AND PUSH1 0x0 DUP1 DUP6 PUSH1 0x1 PUSH1 0x1 PUSH1 0xA0 SHL SUB AND PUSH1 0x1 PUSH1 0x1 PUSH1 0xA0 SHL SUB AND DUP2 MSTORE PUSH1 0x20 ADD SWAP1 DUP2 MSTORE PUSH1 0x20 ADD PUSH1 0x0 KECCAK256 PUSH1 0x0 DUP15 DUP5 DUP2 MLOAD DUP2 LT PUSH2 0x167A JUMPI PUSH2 0x167A PUSH2 0x20C7 JUMP JUMPDEST PUSH1 0x20 MUL PUSH1 0x20 ADD ADD MLOAD PUSH1 0x1 PUSH1 0x1 PUSH1 0xA0 SHL SUB AND PUSH1 0x1 PUSH1 0x1 PUSH1 0xA0 SHL SUB AND DUP2 MSTORE PUSH1 0x20 ADD SWAP1 DUP2 MSTORE PUSH1 0x20 ADD PUSH1 0x0 KECCAK256 PUSH1 0x0 DUP14 DUP5 DUP2 MLOAD DUP2 LT PUSH2 0x16B6 JUMPI PUSH2 0x16B6 PUSH2 0x20C7 JUMP JUMPDEST PUSH1 0x20 MUL PUSH1 0x20 ADD ADD MLOAD DUP2 MSTORE PUSH1 0x20 ADD SWAP1 DUP2 MSTORE PUSH1 0x20 ADD PUSH1 0x0 KECCAK256 PUSH1 0x0 DUP13 DUP5 DUP2 MLOAD DUP2 LT PUSH2 0x16E0 JUMPI PUSH2 0x16E0 PUSH2 0x20C7 JUMP JUMPDEST PUSH1 0x20 MUL PUSH1 0x20 ADD ADD MLOAD PUSH1 0x1 PUSH1 0x1 PUSH1 0xE0 SHL SUB NOT AND PUSH1 0x1 PUSH1 0x1 PUSH1 0xE0 SHL SUB NOT AND DUP2 MSTORE PUSH1 0x20 ADD SWAP1 DUP2 MSTORE PUSH1 0x20 ADD PUSH1 0x0 KECCAK256 DUP2 SWAP1 SSTORE POP DUP11 DUP2 DUP2 MLOAD DUP2 LT PUSH2 0x1720 JUMPI PUSH2 0x1720 PUSH2 0x20C7 JUMP JUMPDEST PUSH1 0x20 MUL PUSH1 0x20 ADD ADD MLOAD DUP13 DUP3 DUP2 MLOAD DUP2 LT PUSH2 0x173A JUMPI PUSH2 0x173A PUSH2 0x20C7 JUMP JUMPDEST PUSH1 0x20 MUL PUSH1 0x20 ADD ADD MLOAD PUSH1 0x1 PUSH1 0x1 PUSH1 0xA0 SHL SUB AND DUP5 PUSH1 0x1 PUSH1 0x1 PUSH1 0xA0 SHL SUB AND PUSH1 0x0 DUP1 MLOAD PUSH1 0x20 PUSH2 0x2173 DUP4 CODECOPY DUP2 MLOAD SWAP2 MSTORE DUP14 DUP6 DUP2 MLOAD DUP2 LT PUSH2 0x1776 JUMPI PUSH2 0x1776 PUSH2 0x20C7 JUMP JUMPDEST PUSH1 0x20 MUL PUSH1 0x20 ADD ADD MLOAD DUP14 DUP7 DUP2 MLOAD DUP2 LT PUSH2 0x1790 JUMPI PUSH2 0x1790 PUSH2 0x20C7 JUMP JUMPDEST PUSH1 0x20 MUL PUSH1 0x20 ADD ADD MLOAD PUSH1 0x40 MLOAD PUSH2 0x17A6 SWAP3 SWAP2 SWAP1 PUSH2 0x2119 JUMP JUMPDEST PUSH1 0x40 MLOAD DUP1 SWAP2 SUB SWAP1 LOG4 JUMPDEST PUSH1 0x1 ADD PUSH2 0x112D JUMP JUMPDEST POP POP POP POP POP POP POP POP POP POP POP POP POP JUMP JUMPDEST DUP1 CALLDATALOAD PUSH1 0x1 PUSH1 0x1 PUSH1 0xE0 SHL SUB NOT DUP2 AND DUP2 EQ PUSH2 0x17DE JUMPI PUSH1 0x0 DUP1 REVERT JUMPDEST SWAP2 SWAP1 POP JUMP JUMPDEST PUSH1 0x0 PUSH1 0x20 DUP3 DUP5 SUB SLT ISZERO PUSH2 0x17F5 JUMPI PUSH1 0x0 DUP1 REVERT JUMPDEST PUSH2 0x17FE DUP3 PUSH2 0x17C6 JUMP JUMPDEST SWAP4 SWAP3 POP POP POP JUMP JUMPDEST PUSH4 0x4E487B71 PUSH1 0xE0 SHL PUSH1 0x0 MSTORE PUSH1 0x41 PUSH1 0x4 MSTORE PUSH1 0x24 PUSH1 0x0 REVERT JUMPDEST PUSH1 0x40 MLOAD PUSH1 0x1F DUP3 ADD PUSH1 0x1F NOT AND DUP2 ADD PUSH8 0xFFFFFFFFFFFFFFFF DUP2 GT DUP3 DUP3 LT OR ISZERO PUSH2 0x1844 JUMPI PUSH2 0x1844 PUSH2 0x1805 JUMP JUMPDEST PUSH1 0x40 MSTORE SWAP2 SWAP1 POP JUMP JUMPDEST PUSH1 0x0 PUSH8 0xFFFFFFFFFFFFFFFF DUP3 GT ISZERO PUSH2 0x1866 JUMPI PUSH2 0x1866 PUSH2 0x1805 JUMP JUMPDEST POP PUSH1 0x5 SHL PUSH1 0x20 ADD SWAP1 JUMP JUMPDEST DUP1 CALLDATALOAD PUSH1 0x1 PUSH1 0x1 PUSH1 0xA0 SHL SUB DUP2 AND DUP2 EQ PUSH2 0x17DE JUMPI PUSH1 0x0 DUP1 REVERT JUMPDEST PUSH1 0x0 DUP3 PUSH1 0x1F DUP4 ADD SLT PUSH2 0x1898 JUMPI PUSH1 0x0 DUP1 REVERT JUMPDEST DUP2 CALLDATALOAD PUSH1 0x20 PUSH2 0x18AD PUSH2 0x18A8 DUP4 PUSH2 0x184C JUMP JUMPDEST PUSH2 0x181B JUMP JUMPDEST DUP3 DUP2 MSTORE PUSH1 0x5 SWAP3 SWAP1 SWAP3 SHL DUP5 ADD DUP2 ADD SWAP2 DUP2 DUP2 ADD SWAP1 DUP7 DUP5 GT ISZERO PUSH2 0x18CC JUMPI PUSH1 0x0 DUP1 REVERT JUMPDEST DUP3 DUP7 ADD JUMPDEST DUP5 DUP2 LT ISZERO PUSH2 0xBAF JUMPI PUSH2 0x18E1 DUP2 PUSH2 0x1870 JUMP JUMPDEST DUP4 MSTORE SWAP2 DUP4 ADD SWAP2 DUP4 ADD PUSH2 0x18D0 JUMP JUMPDEST PUSH1 0x0 DUP3 PUSH1 0x1F DUP4 ADD SLT PUSH2 0x18FF JUMPI PUSH1 0x0 DUP1 REVERT JUMPDEST DUP2 CALLDATALOAD PUSH1 0x20 PUSH2 0x190F PUSH2 0x18A8 DUP4 PUSH2 0x184C JUMP JUMPDEST DUP3 DUP2 MSTORE PUSH1 0x5 SWAP3 SWAP1 SWAP3 SHL DUP5 ADD DUP2 ADD SWAP2 DUP2 DUP2 ADD SWAP1 DUP7 DUP5 GT ISZERO PUSH2 0x192E JUMPI PUSH1 0x0 DUP1 REVERT JUMPDEST DUP3 DUP7 ADD JUMPDEST DUP5 DUP2 LT ISZERO PUSH2 0xBAF JUMPI DUP1 CALLDATALOAD DUP4 MSTORE SWAP2 DUP4 ADD SWAP2 DUP4 ADD PUSH2 0x1932 JUMP JUMPDEST PUSH1 0x0 DUP3 PUSH1 0x1F DUP4 ADD SLT PUSH2 0x195A JUMPI PUSH1 0x0 DUP1 REVERT JUMPDEST DUP2 CALLDATALOAD PUSH1 0x20 PUSH2 0x196A PUSH2 0x18A8 DUP4 PUSH2 0x184C JUMP JUMPDEST DUP3 DUP2 MSTORE PUSH1 0x5 SWAP3 SWAP1 SWAP3 SHL DUP5 ADD DUP2 ADD SWAP2 DUP2 DUP2 ADD SWAP1 DUP7 DUP5 GT ISZERO PUSH2 0x1989 JUMPI PUSH1 0x0 DUP1 REVERT JUMPDEST DUP3 DUP7 ADD JUMPDEST DUP5 DUP2 LT ISZERO PUSH2 0xBAF JUMPI PUSH2 0x199E DUP2 PUSH2 0x17C6 JUMP JUMPDEST DUP4 MSTORE SWAP2 DUP4 ADD SWAP2 DUP4 ADD PUSH2 0x198D JUMP JUMPDEST DUP1 CALLDATALOAD DUP1 ISZERO ISZERO DUP2 EQ PUSH2 0x17DE JUMPI PUSH1 0x0 DUP1 REVERT JUMPDEST PUSH1 0x0 DUP3 PUSH1 0x1F DUP4 ADD SLT PUSH2 0x19CC JUMPI PUSH1 0x0 DUP1 REVERT JUMPDEST DUP2 CALLDATALOAD PUSH1 0x20 PUSH2 0x19DC PUSH2 0x18A8 DUP4 PUSH2 0x184C JUMP JUMPDEST DUP3 DUP2 MSTORE PUSH1 0x5 SWAP3 SWAP1 SWAP3 SHL DUP5 ADD DUP2 ADD SWAP2 DUP2 DUP2 ADD SWAP1 DUP7 DUP5 GT ISZERO PUSH2 0x19FB JUMPI PUSH1 0x0 DUP1 REVERT JUMPDEST DUP3 DUP7 ADD JUMPDEST DUP5 DUP2 LT ISZERO PUSH2 0xBAF JUMPI PUSH2 0x1A10 DUP2 PUSH2 0x19AB JUMP JUMPDEST DUP4 MSTORE SWAP2 DUP4 ADD SWAP2 DUP4 ADD PUSH2 0x19FF JUMP JUMPDEST PUSH1 0x0 DUP1 PUSH1 0x0 DUP1 PUSH1 0x80 DUP6 DUP8 SUB SLT ISZERO PUSH2 0x1A33 JUMPI PUSH1 0x0 DUP1 REVERT JUMPDEST DUP5 CALLDATALOAD PUSH8 0xFFFFFFFFFFFFFFFF DUP1 DUP3 GT ISZERO PUSH2 0x1A4B JUMPI PUSH1 0x0 DUP1 REVERT JUMPDEST PUSH2 0x1A57 DUP9 DUP4 DUP10 ADD PUSH2 0x1887 JUMP JUMPDEST SWAP6 POP PUSH1 0x20 DUP8 ADD CALLDATALOAD SWAP2 POP DUP1 DUP3 GT ISZERO PUSH2 0x1A6D JUMPI PUSH1 0x0 DUP1 REVERT JUMPDEST PUSH2 0x1A79 DUP9 DUP4 DUP10 ADD PUSH2 0x18EE JUMP JUMPDEST SWAP5 POP PUSH1 0x40 DUP8 ADD CALLDATALOAD SWAP2 POP DUP1 DUP3 GT ISZERO PUSH2 0x1A8F JUMPI PUSH1 0x0 DUP1 REVERT JUMPDEST PUSH2 0x1A9B DUP9 DUP4 DUP10 ADD PUSH2 0x1949 JUMP JUMPDEST SWAP4 POP PUSH1 0x60 DUP8 ADD CALLDATALOAD SWAP2 POP DUP1 DUP3 GT ISZERO PUSH2 0x1AB1 JUMPI PUSH1 0x0 DUP1 REVERT JUMPDEST POP PUSH2 0x1ABE DUP8 DUP3 DUP9 ADD PUSH2 0x19BB JUMP JUMPDEST SWAP2 POP POP SWAP3 SWAP6 SWAP2 SWAP5 POP SWAP3 POP JUMP JUMPDEST PUSH1 0x0 DUP1 PUSH1 0x0 DUP1 PUSH1 0x80 DUP6 DUP8 SUB SLT ISZERO PUSH2 0x1AE0 JUMPI PUSH1 0x0 DUP1 REVERT JUMPDEST DUP5 CALLDATALOAD PUSH8 0xFFFFFFFFFFFFFFFF DUP1 DUP3 GT ISZERO PUSH2 0x1AF8 JUMPI PUSH1 0x0 DUP1 REVERT JUMPDEST PUSH2 0x1B04 DUP9 DUP4 DUP10 ADD PUSH2 0x1887 JUMP JUMPDEST SWAP6 POP PUSH1 0x20 DUP8 ADD CALLDATALOAD SWAP2 POP DUP1 DUP3 GT ISZERO PUSH2 0x1B1A JUMPI PUSH1 0x0 DUP1 REVERT JUMPDEST PUSH2 0x1B26 DUP9 DUP4 DUP10 ADD PUSH2 0x1887 JUMP JUMPDEST SWAP5 POP PUSH1 0x40 DUP8 ADD CALLDATALOAD SWAP2 POP DUP1 DUP3 GT ISZERO PUSH2 0x1B3C JUMPI PUSH1 0x0 DUP1 REVERT JUMPDEST PUSH2 0x1B48 DUP9 DUP4 DUP10 ADD PUSH2 0x18EE JUMP JUMPDEST SWAP4 POP PUSH1 0x60 DUP8 ADD CALLDATALOAD SWAP2 POP DUP1 DUP3 GT ISZERO PUSH2 0x1B5E JUMPI PUSH1 0x0 DUP1 REVERT JUMPDEST POP PUSH2 0x1ABE DUP8 DUP3 DUP9 ADD PUSH2 0x1949 JUMP JUMPDEST PUSH1 0x20 DUP1 DUP3 MSTORE DUP3 MLOAD DUP3 DUP3 ADD DUP2 SWAP1 MSTORE PUSH1 0x0 SWAP2 SWAP1 DUP5 DUP3 ADD SWAP1 PUSH1 0x40 DUP6 ADD SWAP1 DUP5 JUMPDEST DUP2 DUP2 LT ISZERO PUSH2 0x1BA5 JUMPI DUP4 MLOAD ISZERO ISZERO DUP4 MSTORE SWAP3 DUP5 ADD SWAP3 SWAP2 DUP5 ADD SWAP2 PUSH1 0x1 ADD PUSH2 0x1B87 JUMP JUMPDEST POP SWAP1 SWAP7 SWAP6 POP POP POP POP POP POP JUMP JUMPDEST PUSH1 0x0 DUP1 PUSH1 0x0 DUP1 PUSH1 0x80 DUP6 DUP8 SUB SLT ISZERO PUSH2 0x1BC7 JUMPI PUSH1 0x0 DUP1 REVERT JUMPDEST PUSH2 0x1BD0 DUP6 PUSH2 0x1870 JUMP JUMPDEST SWAP4 POP PUSH2 0x1BDE PUSH1 0x20 DUP7 ADD PUSH2 0x1870 JUMP JUMPDEST SWAP3 POP PUSH1 0x40 DUP6 ADD CALLDATALOAD SWAP2 POP PUSH2 0x1BF3 PUSH1 0x60 DUP7 ADD PUSH2 0x17C6 JUMP JUMPDEST SWAP1 POP SWAP3 SWAP6 SWAP2 SWAP5 POP SWAP3 POP JUMP JUMPDEST PUSH1 0x0 DUP1 PUSH1 0x0 PUSH1 0x60 DUP5 DUP7 SUB SLT ISZERO PUSH2 0x1C13 JUMPI PUSH1 0x0 DUP1 REVERT JUMPDEST DUP4 CALLDATALOAD PUSH8 0xFFFFFFFFFFFFFFFF DUP1 DUP3 GT ISZERO PUSH2 0x1C2B JUMPI PUSH1 0x0 DUP1 REVERT JUMPDEST PUSH2 0x1C37 DUP8 DUP4 DUP9 ADD PUSH2 0x1887 JUMP JUMPDEST SWAP5 POP PUSH1 0x20 DUP7 ADD CALLDATALOAD SWAP2 POP DUP1 DUP3 GT ISZERO PUSH2 0x1C4D JUMPI PUSH1 0x0 DUP1 REVERT JUMPDEST PUSH2 0x1C59 DUP8 DUP4 DUP9 ADD PUSH2 0x18EE JUMP JUMPDEST SWAP4 POP PUSH1 0x40 DUP7 ADD CALLDATALOAD SWAP2 POP DUP1 DUP3 GT ISZERO PUSH2 0x1C6F JUMPI PUSH1 0x0 DUP1 REVERT JUMPDEST POP PUSH2 0x1C7C DUP7 DUP3 DUP8 ADD PUSH2 0x1949 JUMP JUMPDEST SWAP2 POP POP SWAP3 POP SWAP3 POP SWAP3 JUMP JUMPDEST PUSH1 0x20 DUP1 DUP3 MSTORE DUP3 MLOAD DUP3 DUP3 ADD DUP2 SWAP1 MSTORE PUSH1 0x0 SWAP2 SWAP1 DUP5 DUP3 ADD SWAP1 PUSH1 0x40 DUP6 ADD SWAP1 DUP5 JUMPDEST DUP2 DUP2 LT ISZERO PUSH2 0x1BA5 JUMPI DUP4 MLOAD DUP4 MSTORE SWAP3 DUP5 ADD SWAP3 SWAP2 DUP5 ADD SWAP2 PUSH1 0x1 ADD PUSH2 0x1CA2 JUMP JUMPDEST PUSH1 0x0 DUP1 PUSH1 0x0 DUP1 PUSH1 0x0 PUSH1 0xA0 DUP7 DUP9 SUB SLT ISZERO PUSH2 0x1CD6 JUMPI PUSH1 0x0 DUP1 REVERT JUMPDEST DUP6 CALLDATALOAD PUSH8 0xFFFFFFFFFFFFFFFF DUP1 DUP3 GT ISZERO PUSH2 0x1CEE JUMPI PUSH1 0x0 DUP1 REVERT JUMPDEST PUSH2 0x1CFA DUP10 DUP4 DUP11 ADD PUSH2 0x1887 JUMP JUMPDEST SWAP7 POP PUSH1 0x20 DUP9 ADD CALLDATALOAD SWAP2 POP DUP1 DUP3 GT ISZERO PUSH2 0x1D10 JUMPI PUSH1 0x0 DUP1 REVERT JUMPDEST PUSH2 0x1D1C DUP10 DUP4 DUP11 ADD PUSH2 0x18EE JUMP JUMPDEST SWAP6 POP PUSH1 0x40 DUP9 ADD CALLDATALOAD SWAP2 POP DUP1 DUP3 GT ISZERO PUSH2 0x1D32 JUMPI PUSH1 0x0 DUP1 REVERT JUMPDEST PUSH2 0x1D3E DUP10 DUP4 DUP11 ADD PUSH2 0x1949 JUMP JUMPDEST SWAP5 POP PUSH1 0x60 DUP9 ADD CALLDATALOAD SWAP2 POP DUP1 DUP3 GT ISZERO PUSH2 0x1D54 JUMPI PUSH1 0x0 DUP1 REVERT JUMPDEST PUSH2 0x1D60 DUP10 DUP4 DUP11 ADD PUSH2 0x19BB JUMP JUMPDEST SWAP4 POP PUSH1 0x80 DUP9 ADD CALLDATALOAD SWAP2 POP DUP1 DUP3 GT ISZERO PUSH2 0x1D76 JUMPI PUSH1 0x0 DUP1 REVERT JUMPDEST POP PUSH2 0x1D83 DUP9 DUP3 DUP10 ADD PUSH2 0x18EE JUMP JUMPDEST SWAP2 POP POP SWAP3 SWAP6 POP SWAP3 SWAP6 SWAP1 SWAP4 POP JUMP JUMPDEST DUP1 CALLDATALOAD PUSH1 0xFF DUP2 AND DUP2 EQ PUSH2 0x17DE JUMPI PUSH1 0x0 DUP1 REVERT JUMPDEST PUSH1 0x0 DUP1 PUSH1 0x0 DUP1 PUSH1 0x0 DUP1 PUSH1 0x0 DUP1 PUSH1 0x0 PUSH2 0x120 DUP11 DUP13 SUB SLT ISZERO PUSH2 0x1DC0 JUMPI PUSH1 0x0 DUP1 REVERT JUMPDEST PUSH2 0x1DC9 DUP11 PUSH2 0x1870 JUMP JUMPDEST SWAP9 POP PUSH2 0x1DD7 PUSH1 0x20 DUP12 ADD PUSH2 0x1870 JUMP JUMPDEST SWAP8 POP PUSH1 0x40 DUP11 ADD CALLDATALOAD SWAP7 POP PUSH2 0x1DEC PUSH1 0x60 DUP12 ADD PUSH2 0x17C6 JUMP JUMPDEST SWAP6 POP PUSH2 0x1DFA PUSH1 0x80 DUP12 ADD PUSH2 0x19AB JUMP JUMPDEST SWAP5 POP PUSH1 0xA0 DUP11 ADD CALLDATALOAD SWAP4 POP PUSH2 0x1E0F PUSH1 0xC0 DUP12 ADD PUSH2 0x1D90 JUMP JUMPDEST SWAP3 POP PUSH1 0xE0 DUP11 ADD CALLDATALOAD SWAP2 POP PUSH2 0x100 DUP11 ADD CALLDATALOAD SWAP1 POP SWAP3 SWAP6 SWAP9 POP SWAP3 SWAP6 SWAP9 POP SWAP3 SWAP6 SWAP9 JUMP JUMPDEST PUSH1 0x0 DUP1 PUSH1 0x0 DUP1 PUSH1 0x0 PUSH1 0xA0 DUP7 DUP9 SUB SLT ISZERO PUSH2 0x1E45 JUMPI PUSH1 0x0 DUP1 REVERT JUMPDEST PUSH2 0x1E4E DUP7 PUSH2 0x1870 JUMP JUMPDEST SWAP5 POP PUSH1 0x20 DUP7 ADD CALLDATALOAD SWAP4 POP PUSH2 0x1E63 PUSH1 0x40 DUP8 ADD PUSH2 0x17C6 JUMP JUMPDEST SWAP3 POP PUSH2 0x1E71 PUSH1 0x60 DUP8 ADD PUSH2 0x19AB JUMP JUMPDEST SWAP5 SWAP8 SWAP4 SWAP7 POP SWAP2 SWAP5 PUSH1 0x80 ADD CALLDATALOAD SWAP3 SWAP2 POP POP JUMP JUMPDEST PUSH1 0x0 DUP1 PUSH1 0x0 DUP1 PUSH1 0x80 DUP6 DUP8 SUB SLT ISZERO PUSH2 0x1E98 JUMPI PUSH1 0x0 DUP1 REVERT JUMPDEST PUSH2 0x1EA1 DUP6 PUSH2 0x1870 JUMP JUMPDEST SWAP4 POP PUSH1 0x20 DUP6 ADD CALLDATALOAD SWAP3 POP PUSH2 0x1EB6 PUSH1 0x40 DUP7 ADD PUSH2 0x17C6 JUMP JUMPDEST SWAP2 POP PUSH2 0x1BF3 PUSH1 0x60 DUP7 ADD PUSH2 0x19AB JUMP JUMPDEST PUSH1 0x0 DUP1 PUSH1 0x0 PUSH1 0x60 DUP5 DUP7 SUB SLT ISZERO PUSH2 0x1ED9 JUMPI PUSH1 0x0 DUP1 REVERT JUMPDEST PUSH2 0x1EE2 DUP5 PUSH2 0x1870 JUMP JUMPDEST SWAP3 POP PUSH1 0x20 DUP5 ADD CALLDATALOAD SWAP2 POP PUSH2 0x1EF7 PUSH1 0x40 DUP6 ADD PUSH2 0x17C6 JUMP JUMPDEST SWAP1 POP SWAP3 POP SWAP3 POP SWAP3 JUMP JUMPDEST PUSH1 0x0 DUP3 PUSH1 0x1F DUP4 ADD SLT PUSH2 0x1F11 JUMPI PUSH1 0x0 DUP1 REVERT JUMPDEST DUP2 CALLDATALOAD PUSH1 0x20 PUSH2 0x1F21 PUSH2 0x18A8 DUP4 PUSH2 0x184C JUMP JUMPDEST DUP3 DUP2 MSTORE PUSH1 0x5 SWAP3 SWAP1 SWAP3 SHL DUP5 ADD DUP2 ADD SWAP2 DUP2 DUP2 ADD SWAP1 DUP7 DUP5 GT ISZERO PUSH2 0x1F40 JUMPI PUSH1 0x0 DUP1 REVERT JUMPDEST DUP3 DUP7 ADD JUMPDEST DUP5 DUP2 LT ISZERO PUSH2 0xBAF JUMPI PUSH2 0x1F55 DUP2 PUSH2 0x1D90 JUMP JUMPDEST DUP4 MSTORE SWAP2 DUP4 ADD SWAP2 DUP4 ADD PUSH2 0x1F44 JUMP JUMPDEST PUSH1 0x0 DUP1 PUSH1 0x0 DUP1 PUSH1 0x0 DUP1 PUSH1 0x0 DUP1 PUSH1 0x0 PUSH2 0x120 DUP11 DUP13 SUB SLT ISZERO PUSH2 0x1F81 JUMPI PUSH1 0x0 DUP1 REVERT JUMPDEST DUP10 CALLDATALOAD PUSH8 0xFFFFFFFFFFFFFFFF DUP1 DUP3 GT ISZERO PUSH2 0x1F99 JUMPI PUSH1 0x0 DUP1 REVERT JUMPDEST PUSH2 0x1FA5 DUP14 DUP4 DUP15 ADD PUSH2 0x1887 JUMP JUMPDEST SWAP11 POP PUSH1 0x20 DUP13 ADD CALLDATALOAD SWAP2 POP DUP1 DUP3 GT ISZERO PUSH2 0x1FBB JUMPI PUSH1 0x0 DUP1 REVERT JUMPDEST PUSH2 0x1FC7 DUP14 DUP4 DUP15 ADD PUSH2 0x1887 JUMP JUMPDEST SWAP10 POP PUSH1 0x40 DUP13 ADD CALLDATALOAD SWAP2 POP DUP1 DUP3 GT ISZERO PUSH2 0x1FDD JUMPI PUSH1 0x0 DUP1 REVERT JUMPDEST PUSH2 0x1FE9 DUP14 DUP4 DUP15 ADD PUSH2 0x18EE JUMP JUMPDEST SWAP9 POP PUSH1 0x60 DUP13 ADD CALLDATALOAD SWAP2 POP DUP1 DUP3 GT ISZERO PUSH2 0x1FFF JUMPI PUSH1 0x0 DUP1 REVERT JUMPDEST PUSH2 0x200B DUP14 DUP4 DUP15 ADD PUSH2 0x1949 JUMP JUMPDEST SWAP8 POP PUSH1 0x80 DUP13 ADD CALLDATALOAD SWAP2 POP DUP1 DUP3 GT ISZERO PUSH2 0x2021 JUMPI PUSH1 0x0 DUP1 REVERT JUMPDEST PUSH2 0x202D DUP14 DUP4 DUP15 ADD PUSH2 0x19BB JUMP JUMPDEST SWAP7 POP PUSH1 0xA0 DUP13 ADD CALLDATALOAD SWAP2 POP DUP1 DUP3 GT ISZERO PUSH2 0x2043 JUMPI PUSH1 0x0 DUP1 REVERT JUMPDEST PUSH2 0x204F DUP14 DUP4 DUP15 ADD PUSH2 0x18EE JUMP JUMPDEST SWAP6 POP PUSH1 0xC0 DUP13 ADD CALLDATALOAD SWAP2 POP DUP1 DUP3 GT ISZERO PUSH2 0x2065 JUMPI PUSH1 0x0 DUP1 REVERT JUMPDEST PUSH2 0x2071 DUP14 DUP4 DUP15 ADD PUSH2 0x1F00 JUMP JUMPDEST SWAP5 POP PUSH1 0xE0 DUP13 ADD CALLDATALOAD SWAP2 POP DUP1 DUP3 GT ISZERO PUSH2 0x2087 JUMPI PUSH1 0x0 DUP1 REVERT JUMPDEST PUSH2 0x2093 DUP14 DUP4 DUP15 ADD PUSH2 0x18EE JUMP JUMPDEST SWAP4 POP PUSH2 0x100 DUP13 ADD CALLDATALOAD SWAP2 POP DUP1 DUP3 GT ISZERO PUSH2 0x20AA JUMPI PUSH1 0x0 DUP1 REVERT JUMPDEST POP PUSH2 0x20B7 DUP13 DUP3 DUP14 ADD PUSH2 0x18EE JUMP JUMPDEST SWAP2 POP POP SWAP3 SWAP6 SWAP9 POP SWAP3 SWAP6 SWAP9 POP SWAP3 SWAP6 SWAP9 JUMP JUMPDEST PUSH4 0x4E487B71 PUSH1 0xE0 SHL PUSH1 0x0 MSTORE PUSH1 0x32 PUSH1 0x4 MSTORE PUSH1 0x24 PUSH1 0x0 REVERT JUMPDEST PUSH4 0x4E487B71 PUSH1 0xE0 SHL PUSH1 0x0 MSTORE PUSH1 0x11 PUSH1 0x4 MSTORE PUSH1 0x24 PUSH1 0x0 REVERT JUMPDEST DUP1 DUP3 ADD DUP1 DUP3 GT ISZERO PUSH2 0x29D JUMPI PUSH2 0x29D PUSH2 0x20DD JUMP JUMPDEST DUP2 DUP2 SUB DUP2 DUP2 GT ISZERO PUSH2 0x29D JUMPI PUSH2 0x29D PUSH2 0x20DD JUMP JUMPDEST PUSH1 0x1 PUSH1 0x1 PUSH1 0xE0 SHL SUB NOT SWAP3 SWAP1 SWAP3 AND DUP3 MSTORE ISZERO ISZERO PUSH1 0x20 DUP3 ADD MSTORE PUSH1 0x40 ADD SWAP1 JUMP JUMPDEST SWAP6 DUP7 MSTORE PUSH1 0x1 PUSH1 0x1 PUSH1 0xA0 SHL SUB SWAP5 SWAP1 SWAP5 AND PUSH1 0x20 DUP7 ADD MSTORE PUSH1 0x40 DUP6 ADD SWAP3 SWAP1 SWAP3 MSTORE PUSH1 0x1 PUSH1 0x1 PUSH1 0xE0 SHL SUB NOT AND PUSH1 0x60 DUP5 ADD MSTORE ISZERO ISZERO PUSH1 0x80 DUP4 ADD MSTORE PUSH1 0xA0 DUP3 ADD MSTORE PUSH1 0xC0 ADD SWAP1 JUMP INVALID PUSH12 0xE468BF8D2B303BE2F302153 0xE4 0xC5 0xD0 PUSH13 0xDF1FC436EAB9E127E482DC596D 0xC0 0xB7 LOG2 PUSH5 0x6970667358 0x22 SLT KECCAK256 GASLIMIT 0xE3 0xF8 DUP10 0x4B SWAP7 0xBD CALLDATACOPY EQ 0xD3 PUSH16 0x4A2AA4365A65A4FF7EBA56C2478A0E80 0xBC 0xC7 CALLVALUE 0xE3 CALLER PUSH5 0x736F6C6343 STOP ADDMOD SGT STOP CALLER "},"methodIdentifiers":{"DOMAIN_SEPARATOR()":"3644e515","bulkEmote(address[],uint256[],bytes4[],bool[])":"2d2ac944","bulkEmoteCountOf(address[],uint256[],bytes4[])":"7595ecab","bulkPrepareMessagesToPresignEmote(address[],uint256[],bytes4[],bool[],uint256[])":"7d42e2bc","bulkPresignedEmote(address[],address[],uint256[],bytes4[],bool[],uint256[],uint8[],bytes32[],bytes32[])":"ef056141","emote(address,uint256,bytes4,bool)":"b1495281","emoteCountOf(address,uint256,bytes4)":"dad998a6","hasEmoterUsedEmote(address,address,uint256,bytes4)":"637b5d81","haveEmotersUsedEmotes(address[],address[],uint256[],bytes4[])":"39e5c8f9","prepareMessageToPresignEmote(address,uint256,bytes4,bool,uint256)":"a3a370b4","presignedEmote(address,address,uint256,bytes4,bool,uint256,uint8,bytes32,bytes32)":"81af4ca3","supportsInterface(bytes4)":"01ffc9a7"}}}}}